{
  "abi": [
    {
      "anonymous": false,
      "inputs": [
        {
          "indexed": true,
          "internalType": "address",
          "name": "previousOwner",
          "type": "address"
        },
        {
          "indexed": true,
          "internalType": "address",
          "name": "newOwner",
          "type": "address"
        }
      ],
      "name": "OwnershipTransferred",
      "type": "event"
    },
    {
      "inputs": [
        {
          "internalType": "string",
          "name": "_name",
          "type": "string"
        },
        {
          "internalType": "address",
          "name": "_address",
          "type": "address"
        },
        {
          "internalType": "string",
          "name": "_ipfsInfo",
          "type": "string"
        }
      ],
      "name": "createToken",
      "outputs": [],
      "stateMutability": "nonpayable",
      "type": "function"
    },
    {
      "inputs": [
        {
          "internalType": "address",
          "name": "",
          "type": "address"
        }
      ],
      "name": "getOnWhiteList",
      "outputs": [
        {
          "internalType": "bool",
          "name": "",
          "type": "bool"
        }
      ],
      "stateMutability": "pure",
      "type": "function"
    },
    {
      "inputs": [],
      "name": "getOpenToPublic",
      "outputs": [
        {
          "internalType": "bool",
          "name": "",
          "type": "bool"
        }
      ],
      "stateMutability": "view",
      "type": "function"
    },
    {
      "inputs": [],
      "name": "getSaleStarted",
      "outputs": [
        {
          "internalType": "bool",
          "name": "",
          "type": "bool"
        }
      ],
      "stateMutability": "view",
      "type": "function"
    },
    {
      "inputs": [],
      "name": "isOwner",
      "outputs": [
        {
          "internalType": "bool",
          "name": "",
          "type": "bool"
        }
      ],
      "stateMutability": "view",
      "type": "function"
    },
    {
      "inputs": [],
      "name": "owner",
      "outputs": [
        {
          "internalType": "address",
          "name": "",
          "type": "address"
        }
      ],
      "stateMutability": "view",
      "type": "function"
    },
    {
      "inputs": [],
      "name": "renounceOwnership",
      "outputs": [],
      "stateMutability": "nonpayable",
      "type": "function"
    },
    {
      "inputs": [],
      "name": "safeMint",
      "outputs": [],
      "stateMutability": "payable",
      "type": "function"
    },
    {
      "inputs": [
        {
          "internalType": "address",
          "name": "newOwner",
          "type": "address"
        }
      ],
      "name": "transferOwnership",
      "outputs": [],
      "stateMutability": "nonpayable",
      "type": "function"
    },
    {
      "inputs": [],
      "name": "withdraw",
      "outputs": [],
      "stateMutability": "nonpayable",
      "type": "function"
    }
  ],
  "bytecode": "6080604052600280546001600160401b0319169055655af3107a400060035534801561002a57600080fd5b50600080546001600160a01b03191633178082556040516001600160a01b039190911691907f8be0079c531659141344cd1fd0a4f28419497f9722a3daafe3b4186f6b6457e0908290a3610a16806100836000396000f3fe6080604052600436106100915760003560e01c806377eb17b41161005957806377eb17b4146101155780638680d87e146101355780638da5cb5b1461014a5780638f32d59b1461016c578063f2fde38b1461018157610091565b80630b64251e146100965780633acde386146100c15780633ccfd60b146100e15780636871ee40146100f8578063715018a614610100575b600080fd5b3480156100a257600080fd5b506100ab6101a1565b6040516100b89190610907565b60405180910390f35b3480156100cd57600080fd5b506100ab6100dc366004610759565b6101b9565b3480156100ed57600080fd5b506100f66101bf565b005b6100f6610216565b34801561010c57600080fd5b506100f661023f565b34801561012157600080fd5b506100f661013036600461077c565b61029a565b34801561014157600080fd5b506100ab610420565b34801561015657600080fd5b5061015f61043d565b6040516100b891906108f3565b34801561017857600080fd5b506100ab61044c565b34801561018d57600080fd5b506100f661019c366004610759565b61045d565b6000806101ac61047a565b6004015460ff1691505090565b50600190565b6101c761044c565b6101d057600080fd5b60006101da61043d565b6040519091506001600160a01b038216904780156108fc02916000818181858888f19350505050158015610212573d6000803e3d6000fd5b5050565b3360009081526001602052604090205461022f57600080fd5b600354341461023d57600080fd5b565b61024761044c565b61025057600080fd5b600080546040516001600160a01b03909116907f8be0079c531659141344cd1fd0a4f28419497f9722a3daafe3b4186f6b6457e0908390a3600080546001600160a01b0319169055565b6102a2610530565b604051620cf04560e51b815273__NftLibs_______________________________9063019e08a0906102dc90879087908790600401610912565b60006040518083038186803b1580156102f457600080fd5b505af4158015610308573d6000803e3d6000fd5b505050506040513d6000823e601f3d908101601f1916820160405261033091908101906107f1565b6001600160a01b038416600090815260016020818152604083208054928301815583529182902083518051949550859460059093029091019261037892849290910190610571565b506020828101516001830180546001600160a01b0319166001600160a01b03909216919091179055604083015180518051919260028501926103bd9284920190610571565b505050606082015151600382015560808201516004909101805460a09093015115156101000261ff001992151560ff19909416939093179190911691909117905550506002805463ffffffff8082166001011663ffffffff199091161790555050565b60008061042b61047a565b60040154610100900460ff1692915050565b6000546001600160a01b031690565b6000546001600160a01b0316331490565b61046561044c565b61046e57600080fd5b610477816104c2565b50565b3360009081526001602052604081205461049357600080fd5b3360009081526001602052604081208054909182916104ae57fe5b906000526020600020906005020191505090565b6001600160a01b0381166104d557600080fd5b600080546040516001600160a01b03808516939216917f8be0079c531659141344cd1fd0a4f28419497f9722a3daafe3b4186f6b6457e091a3600080546001600160a01b0319166001600160a01b0392909216919091179055565b6040805160c08101825260608152600060208201529081016105506105ef565b815260200161055d610602565b815260006020820181905260409091015290565b828054600181600116156101000203166002900490600052602060002090601f016020900481019282601f106105b257805160ff19168380011785556105df565b828001600101855582156105df579182015b828111156105df5782518255916020019190600101906105c4565b506105eb929150610615565b5090565b6040518060200160405280606081525090565b6040518060200160405280600081525090565b5b808211156105eb5760008155600101610616565b8051610635816109cb565b92915050565b8051801515811461063557600080fd5b600082601f83011261065b578081fd5b813561066e61066982610977565b610950565b915080825283602082850101111561068557600080fd5b8060208401602084013760009082016020015292915050565b600082601f8301126106ae578081fd5b81516106bc61066982610977565b91508082528360208285010111156106d357600080fd5b6106e481602084016020860161099b565b5092915050565b6000602082840312156106fc578081fd5b6107066020610950565b9050815167ffffffffffffffff81111561071f57600080fd5b61072b8482850161069e565b82525092915050565b600060208284031215610745578081fd5b61074f6020610950565b9151825250919050565b60006020828403121561076a578081fd5b8135610775816109cb565b9392505050565b600080600060608486031215610790578182fd5b833567ffffffffffffffff808211156107a7578384fd5b6107b38783880161064b565b9450602086013591506107c5826109cb565b909250604085013590808211156107da578283fd5b506107e78682870161064b565b9150509250925092565b600060208284031215610802578081fd5b815167ffffffffffffffff80821115610819578283fd5b9083019060c0828603121561082c578283fd5b61083660c0610950565b825182811115610844578485fd5b6108508782860161069e565b825250610860866020850161062a565b6020820152604083015182811115610876578485fd5b610882878286016106eb565b6040830152506108958660608501610734565b60608201526108a7866080850161063b565b60808201526108b98660a0850161063b565b60a082015295945050505050565b600081518084526108df81602086016020860161099b565b601f01601f19169290920160200192915050565b6001600160a01b0391909116815260200190565b901515815260200190565b60006060825261092560608301866108c7565b6001600160a01b0385166020840152828103604084015261094681856108c7565b9695505050505050565b60405181810167ffffffffffffffff8111828210171561096f57600080fd5b604052919050565b600067ffffffffffffffff82111561098d578081fd5b50601f01601f191660200190565b60005b838110156109b657818101518382015260200161099e565b838111156109c5576000848401525b50505050565b6001600160a01b038116811461047757600080fdfea26469706673582212205c6bc5f00e2c15d0cfda7e8deb07b96808ba74ff2ba747535053c9348ea3103b64736f6c634300060c0033",
  "bytecodeSha1": "5628395f6e16ebc2a591e77f90ac3da4983a2526",
  "compiler": {
    "evm_version": "istanbul",
    "optimizer": {
      "enabled": true,
      "runs": 200
    },
    "version": "0.6.12+commit.27d51765"
  },
  "contractName": "NftCollection",
  "deployedBytecode": "6080604052600436106100915760003560e01c806377eb17b41161005957806377eb17b4146101155780638680d87e146101355780638da5cb5b1461014a5780638f32d59b1461016c578063f2fde38b1461018157610091565b80630b64251e146100965780633acde386146100c15780633ccfd60b146100e15780636871ee40146100f8578063715018a614610100575b600080fd5b3480156100a257600080fd5b506100ab6101a1565b6040516100b89190610907565b60405180910390f35b3480156100cd57600080fd5b506100ab6100dc366004610759565b6101b9565b3480156100ed57600080fd5b506100f66101bf565b005b6100f6610216565b34801561010c57600080fd5b506100f661023f565b34801561012157600080fd5b506100f661013036600461077c565b61029a565b34801561014157600080fd5b506100ab610420565b34801561015657600080fd5b5061015f61043d565b6040516100b891906108f3565b34801561017857600080fd5b506100ab61044c565b34801561018d57600080fd5b506100f661019c366004610759565b61045d565b6000806101ac61047a565b6004015460ff1691505090565b50600190565b6101c761044c565b6101d057600080fd5b60006101da61043d565b6040519091506001600160a01b038216904780156108fc02916000818181858888f19350505050158015610212573d6000803e3d6000fd5b5050565b3360009081526001602052604090205461022f57600080fd5b600354341461023d57600080fd5b565b61024761044c565b61025057600080fd5b600080546040516001600160a01b03909116907f8be0079c531659141344cd1fd0a4f28419497f9722a3daafe3b4186f6b6457e0908390a3600080546001600160a01b0319169055565b6102a2610530565b604051620cf04560e51b815273__$67ab562366c52fcbcaecae584739bc0d72$__9063019e08a0906102dc90879087908790600401610912565b60006040518083038186803b1580156102f457600080fd5b505af4158015610308573d6000803e3d6000fd5b505050506040513d6000823e601f3d908101601f1916820160405261033091908101906107f1565b6001600160a01b038416600090815260016020818152604083208054928301815583529182902083518051949550859460059093029091019261037892849290910190610571565b506020828101516001830180546001600160a01b0319166001600160a01b03909216919091179055604083015180518051919260028501926103bd9284920190610571565b505050606082015151600382015560808201516004909101805460a09093015115156101000261ff001992151560ff19909416939093179190911691909117905550506002805463ffffffff8082166001011663ffffffff199091161790555050565b60008061042b61047a565b60040154610100900460ff1692915050565b6000546001600160a01b031690565b6000546001600160a01b0316331490565b61046561044c565b61046e57600080fd5b610477816104c2565b50565b3360009081526001602052604081205461049357600080fd5b3360009081526001602052604081208054909182916104ae57fe5b906000526020600020906005020191505090565b6001600160a01b0381166104d557600080fd5b600080546040516001600160a01b03808516939216917f8be0079c531659141344cd1fd0a4f28419497f9722a3daafe3b4186f6b6457e091a3600080546001600160a01b0319166001600160a01b0392909216919091179055565b6040805160c08101825260608152600060208201529081016105506105ef565b815260200161055d610602565b815260006020820181905260409091015290565b828054600181600116156101000203166002900490600052602060002090601f016020900481019282601f106105b257805160ff19168380011785556105df565b828001600101855582156105df579182015b828111156105df5782518255916020019190600101906105c4565b506105eb929150610615565b5090565b6040518060200160405280606081525090565b6040518060200160405280600081525090565b5b808211156105eb5760008155600101610616565b8051610635816109cb565b92915050565b8051801515811461063557600080fd5b600082601f83011261065b578081fd5b813561066e61066982610977565b610950565b915080825283602082850101111561068557600080fd5b8060208401602084013760009082016020015292915050565b600082601f8301126106ae578081fd5b81516106bc61066982610977565b91508082528360208285010111156106d357600080fd5b6106e481602084016020860161099b565b5092915050565b6000602082840312156106fc578081fd5b6107066020610950565b9050815167ffffffffffffffff81111561071f57600080fd5b61072b8482850161069e565b82525092915050565b600060208284031215610745578081fd5b61074f6020610950565b9151825250919050565b60006020828403121561076a578081fd5b8135610775816109cb565b9392505050565b600080600060608486031215610790578182fd5b833567ffffffffffffffff808211156107a7578384fd5b6107b38783880161064b565b9450602086013591506107c5826109cb565b909250604085013590808211156107da578283fd5b506107e78682870161064b565b9150509250925092565b600060208284031215610802578081fd5b815167ffffffffffffffff80821115610819578283fd5b9083019060c0828603121561082c578283fd5b61083660c0610950565b825182811115610844578485fd5b6108508782860161069e565b825250610860866020850161062a565b6020820152604083015182811115610876578485fd5b610882878286016106eb565b6040830152506108958660608501610734565b60608201526108a7866080850161063b565b60808201526108b98660a0850161063b565b60a082015295945050505050565b600081518084526108df81602086016020860161099b565b601f01601f19169290920160200192915050565b6001600160a01b0391909116815260200190565b901515815260200190565b60006060825261092560608301866108c7565b6001600160a01b0385166020840152828103604084015261094681856108c7565b9695505050505050565b60405181810167ffffffffffffffff8111828210171561096f57600080fd5b604052919050565b600067ffffffffffffffff82111561098d578081fd5b50601f01601f191660200190565b60005b838110156109b657818101518382015260200161099e565b838111156109c5576000848401525b50505050565b6001600160a01b038116811461047757600080fdfea26469706673582212205c6bc5f00e2c15d0cfda7e8deb07b96808ba74ff2ba747535053c9348ea3103b64736f6c634300060c0033",
  "language": "Solidity",
  "natspec": {
    "kind": "dev",
    "methods": {
      "isOwner()": {
        "returns": {
          "_0": "true if `msg.sender` is the owner of the contract."
        }
      },
      "owner()": {
        "returns": {
          "_0": "the address of the owner."
        }
      },
      "renounceOwnership()": {
        "details": "Allows the current owner to relinquish control of the contract.",
        "notice": "Renouncing to ownership will leave the contract without an owner. It will not be possible to call the functions with the `onlyOwner` modifier anymore."
      },
      "transferOwnership(address)": {
        "details": "Allows the current owner to transfer control of the contract to a newOwner.",
        "params": {
          "newOwner": "The address to transfer ownership to."
        }
      }
    },
    "version": 1
  },
  "opcodes": "PUSH1 0x80 PUSH1 0x40 MSTORE PUSH1 0x4 CALLDATASIZE LT PUSH2 0x91 JUMPI PUSH1 0x0 CALLDATALOAD PUSH1 0xE0 SHR DUP1 PUSH4 0x77EB17B4 GT PUSH2 0x59 JUMPI DUP1 PUSH4 0x77EB17B4 EQ PUSH2 0x115 JUMPI DUP1 PUSH4 0x8680D87E EQ PUSH2 0x135 JUMPI DUP1 PUSH4 0x8DA5CB5B EQ PUSH2 0x14A JUMPI DUP1 PUSH4 0x8F32D59B EQ PUSH2 0x16C JUMPI DUP1 PUSH4 0xF2FDE38B EQ PUSH2 0x181 JUMPI PUSH2 0x91 JUMP JUMPDEST DUP1 PUSH4 0xB64251E EQ PUSH2 0x96 JUMPI DUP1 PUSH4 0x3ACDE386 EQ PUSH2 0xC1 JUMPI DUP1 PUSH4 0x3CCFD60B EQ PUSH2 0xE1 JUMPI DUP1 PUSH4 0x6871EE40 EQ PUSH2 0xF8 JUMPI DUP1 PUSH4 0x715018A6 EQ PUSH2 0x100 JUMPI JUMPDEST PUSH1 0x0 DUP1 REVERT JUMPDEST CALLVALUE DUP1 ISZERO PUSH2 0xA2 JUMPI PUSH1 0x0 DUP1 REVERT JUMPDEST POP PUSH2 0xAB PUSH2 0x1A1 JUMP JUMPDEST PUSH1 0x40 MLOAD PUSH2 0xB8 SWAP2 SWAP1 PUSH2 0x907 JUMP JUMPDEST PUSH1 0x40 MLOAD DUP1 SWAP2 SUB SWAP1 RETURN JUMPDEST CALLVALUE DUP1 ISZERO PUSH2 0xCD JUMPI PUSH1 0x0 DUP1 REVERT JUMPDEST POP PUSH2 0xAB PUSH2 0xDC CALLDATASIZE PUSH1 0x4 PUSH2 0x759 JUMP JUMPDEST PUSH2 0x1B9 JUMP JUMPDEST CALLVALUE DUP1 ISZERO PUSH2 0xED JUMPI PUSH1 0x0 DUP1 REVERT JUMPDEST POP PUSH2 0xF6 PUSH2 0x1BF JUMP JUMPDEST STOP JUMPDEST PUSH2 0xF6 PUSH2 0x216 JUMP JUMPDEST CALLVALUE DUP1 ISZERO PUSH2 0x10C JUMPI PUSH1 0x0 DUP1 REVERT JUMPDEST POP PUSH2 0xF6 PUSH2 0x23F JUMP JUMPDEST CALLVALUE DUP1 ISZERO PUSH2 0x121 JUMPI PUSH1 0x0 DUP1 REVERT JUMPDEST POP PUSH2 0xF6 PUSH2 0x130 CALLDATASIZE PUSH1 0x4 PUSH2 0x77C JUMP JUMPDEST PUSH2 0x29A JUMP JUMPDEST CALLVALUE DUP1 ISZERO PUSH2 0x141 JUMPI PUSH1 0x0 DUP1 REVERT JUMPDEST POP PUSH2 0xAB PUSH2 0x420 JUMP JUMPDEST CALLVALUE DUP1 ISZERO PUSH2 0x156 JUMPI PUSH1 0x0 DUP1 REVERT JUMPDEST POP PUSH2 0x15F PUSH2 0x43D JUMP JUMPDEST PUSH1 0x40 MLOAD PUSH2 0xB8 SWAP2 SWAP1 PUSH2 0x8F3 JUMP JUMPDEST CALLVALUE DUP1 ISZERO PUSH2 0x178 JUMPI PUSH1 0x0 DUP1 REVERT JUMPDEST POP PUSH2 0xAB PUSH2 0x44C JUMP JUMPDEST CALLVALUE DUP1 ISZERO PUSH2 0x18D JUMPI PUSH1 0x0 DUP1 REVERT JUMPDEST POP PUSH2 0xF6 PUSH2 0x19C CALLDATASIZE PUSH1 0x4 PUSH2 0x759 JUMP JUMPDEST PUSH2 0x45D JUMP JUMPDEST PUSH1 0x0 DUP1 PUSH2 0x1AC PUSH2 0x47A JUMP JUMPDEST PUSH1 0x4 ADD SLOAD PUSH1 0xFF AND SWAP2 POP POP SWAP1 JUMP JUMPDEST POP PUSH1 0x1 SWAP1 JUMP JUMPDEST PUSH2 0x1C7 PUSH2 0x44C JUMP JUMPDEST PUSH2 0x1D0 JUMPI PUSH1 0x0 DUP1 REVERT JUMPDEST PUSH1 0x0 PUSH2 0x1DA PUSH2 0x43D JUMP JUMPDEST PUSH1 0x40 MLOAD SWAP1 SWAP2 POP PUSH1 0x1 PUSH1 0x1 PUSH1 0xA0 SHL SUB DUP3 AND SWAP1 SELFBALANCE DUP1 ISZERO PUSH2 0x8FC MUL SWAP2 PUSH1 0x0 DUP2 DUP2 DUP2 DUP6 DUP9 DUP9 CALL SWAP4 POP POP POP POP ISZERO DUP1 ISZERO PUSH2 0x212 JUMPI RETURNDATASIZE PUSH1 0x0 DUP1 RETURNDATACOPY RETURNDATASIZE PUSH1 0x0 REVERT JUMPDEST POP POP JUMP JUMPDEST CALLER PUSH1 0x0 SWAP1 DUP2 MSTORE PUSH1 0x1 PUSH1 0x20 MSTORE PUSH1 0x40 SWAP1 KECCAK256 SLOAD PUSH2 0x22F JUMPI PUSH1 0x0 DUP1 REVERT JUMPDEST PUSH1 0x3 SLOAD CALLVALUE EQ PUSH2 0x23D JUMPI PUSH1 0x0 DUP1 REVERT JUMPDEST JUMP JUMPDEST PUSH2 0x247 PUSH2 0x44C JUMP JUMPDEST PUSH2 0x250 JUMPI PUSH1 0x0 DUP1 REVERT JUMPDEST PUSH1 0x0 DUP1 SLOAD PUSH1 0x40 MLOAD PUSH1 0x1 PUSH1 0x1 PUSH1 0xA0 SHL SUB SWAP1 SWAP2 AND SWAP1 PUSH32 0x8BE0079C531659141344CD1FD0A4F28419497F9722A3DAAFE3B4186F6B6457E0 SWAP1 DUP4 SWAP1 LOG3 PUSH1 0x0 DUP1 SLOAD PUSH1 0x1 PUSH1 0x1 PUSH1 0xA0 SHL SUB NOT AND SWAP1 SSTORE JUMP JUMPDEST PUSH2 0x2A2 PUSH2 0x530 JUMP JUMPDEST PUSH1 0x40 MLOAD PUSH3 0xCF045 PUSH1 0xE5 SHL DUP2 MSTORE PUSH20 0x0 SWAP1 PUSH4 0x19E08A0 SWAP1 PUSH2 0x2DC SWAP1 DUP8 SWAP1 DUP8 SWAP1 DUP8 SWAP1 PUSH1 0x4 ADD PUSH2 0x912 JUMP JUMPDEST PUSH1 0x0 PUSH1 0x40 MLOAD DUP1 DUP4 SUB DUP2 DUP7 DUP1 EXTCODESIZE ISZERO DUP1 ISZERO PUSH2 0x2F4 JUMPI PUSH1 0x0 DUP1 REVERT JUMPDEST POP GAS DELEGATECALL ISZERO DUP1 ISZERO PUSH2 0x308 JUMPI RETURNDATASIZE PUSH1 0x0 DUP1 RETURNDATACOPY RETURNDATASIZE PUSH1 0x0 REVERT JUMPDEST POP POP POP POP PUSH1 0x40 MLOAD RETURNDATASIZE PUSH1 0x0 DUP3 RETURNDATACOPY PUSH1 0x1F RETURNDATASIZE SWAP1 DUP2 ADD PUSH1 0x1F NOT AND DUP3 ADD PUSH1 0x40 MSTORE PUSH2 0x330 SWAP2 SWAP1 DUP2 ADD SWAP1 PUSH2 0x7F1 JUMP JUMPDEST PUSH1 0x1 PUSH1 0x1 PUSH1 0xA0 SHL SUB DUP5 AND PUSH1 0x0 SWAP1 DUP2 MSTORE PUSH1 0x1 PUSH1 0x20 DUP2 DUP2 MSTORE PUSH1 0x40 DUP4 KECCAK256 DUP1 SLOAD SWAP3 DUP4 ADD DUP2 SSTORE DUP4 MSTORE SWAP2 DUP3 SWAP1 KECCAK256 DUP4 MLOAD DUP1 MLOAD SWAP5 SWAP6 POP DUP6 SWAP5 PUSH1 0x5 SWAP1 SWAP4 MUL SWAP1 SWAP2 ADD SWAP3 PUSH2 0x378 SWAP3 DUP5 SWAP3 SWAP1 SWAP2 ADD SWAP1 PUSH2 0x571 JUMP JUMPDEST POP PUSH1 0x20 DUP3 DUP2 ADD MLOAD PUSH1 0x1 DUP4 ADD DUP1 SLOAD PUSH1 0x1 PUSH1 0x1 PUSH1 0xA0 SHL SUB NOT AND PUSH1 0x1 PUSH1 0x1 PUSH1 0xA0 SHL SUB SWAP1 SWAP3 AND SWAP2 SWAP1 SWAP2 OR SWAP1 SSTORE PUSH1 0x40 DUP4 ADD MLOAD DUP1 MLOAD DUP1 MLOAD SWAP2 SWAP3 PUSH1 0x2 DUP6 ADD SWAP3 PUSH2 0x3BD SWAP3 DUP5 SWAP3 ADD SWAP1 PUSH2 0x571 JUMP JUMPDEST POP POP POP PUSH1 0x60 DUP3 ADD MLOAD MLOAD PUSH1 0x3 DUP3 ADD SSTORE PUSH1 0x80 DUP3 ADD MLOAD PUSH1 0x4 SWAP1 SWAP2 ADD DUP1 SLOAD PUSH1 0xA0 SWAP1 SWAP4 ADD MLOAD ISZERO ISZERO PUSH2 0x100 MUL PUSH2 0xFF00 NOT SWAP3 ISZERO ISZERO PUSH1 0xFF NOT SWAP1 SWAP5 AND SWAP4 SWAP1 SWAP4 OR SWAP2 SWAP1 SWAP2 AND SWAP2 SWAP1 SWAP2 OR SWAP1 SSTORE POP POP PUSH1 0x2 DUP1 SLOAD PUSH4 0xFFFFFFFF DUP1 DUP3 AND PUSH1 0x1 ADD AND PUSH4 0xFFFFFFFF NOT SWAP1 SWAP2 AND OR SWAP1 SSTORE POP POP JUMP JUMPDEST PUSH1 0x0 DUP1 PUSH2 0x42B PUSH2 0x47A JUMP JUMPDEST PUSH1 0x4 ADD SLOAD PUSH2 0x100 SWAP1 DIV PUSH1 0xFF AND SWAP3 SWAP2 POP POP JUMP JUMPDEST PUSH1 0x0 SLOAD PUSH1 0x1 PUSH1 0x1 PUSH1 0xA0 SHL SUB AND SWAP1 JUMP JUMPDEST PUSH1 0x0 SLOAD PUSH1 0x1 PUSH1 0x1 PUSH1 0xA0 SHL SUB AND CALLER EQ SWAP1 JUMP JUMPDEST PUSH2 0x465 PUSH2 0x44C JUMP JUMPDEST PUSH2 0x46E JUMPI PUSH1 0x0 DUP1 REVERT JUMPDEST PUSH2 0x477 DUP2 PUSH2 0x4C2 JUMP JUMPDEST POP JUMP JUMPDEST CALLER PUSH1 0x0 SWAP1 DUP2 MSTORE PUSH1 0x1 PUSH1 0x20 MSTORE PUSH1 0x40 DUP2 KECCAK256 SLOAD PUSH2 0x493 JUMPI PUSH1 0x0 DUP1 REVERT JUMPDEST CALLER PUSH1 0x0 SWAP1 DUP2 MSTORE PUSH1 0x1 PUSH1 0x20 MSTORE PUSH1 0x40 DUP2 KECCAK256 DUP1 SLOAD SWAP1 SWAP2 DUP3 SWAP2 PUSH2 0x4AE JUMPI INVALID JUMPDEST SWAP1 PUSH1 0x0 MSTORE PUSH1 0x20 PUSH1 0x0 KECCAK256 SWAP1 PUSH1 0x5 MUL ADD SWAP2 POP POP SWAP1 JUMP JUMPDEST PUSH1 0x1 PUSH1 0x1 PUSH1 0xA0 SHL SUB DUP2 AND PUSH2 0x4D5 JUMPI PUSH1 0x0 DUP1 REVERT JUMPDEST PUSH1 0x0 DUP1 SLOAD PUSH1 0x40 MLOAD PUSH1 0x1 PUSH1 0x1 PUSH1 0xA0 SHL SUB DUP1 DUP6 AND SWAP4 SWAP3 AND SWAP2 PUSH32 0x8BE0079C531659141344CD1FD0A4F28419497F9722A3DAAFE3B4186F6B6457E0 SWAP2 LOG3 PUSH1 0x0 DUP1 SLOAD PUSH1 0x1 PUSH1 0x1 PUSH1 0xA0 SHL SUB NOT AND PUSH1 0x1 PUSH1 0x1 PUSH1 0xA0 SHL SUB SWAP3 SWAP1 SWAP3 AND SWAP2 SWAP1 SWAP2 OR SWAP1 SSTORE JUMP JUMPDEST PUSH1 0x40 DUP1 MLOAD PUSH1 0xC0 DUP2 ADD DUP3 MSTORE PUSH1 0x60 DUP2 MSTORE PUSH1 0x0 PUSH1 0x20 DUP3 ADD MSTORE SWAP1 DUP2 ADD PUSH2 0x550 PUSH2 0x5EF JUMP JUMPDEST DUP2 MSTORE PUSH1 0x20 ADD PUSH2 0x55D PUSH2 0x602 JUMP JUMPDEST DUP2 MSTORE PUSH1 0x0 PUSH1 0x20 DUP3 ADD DUP2 SWAP1 MSTORE PUSH1 0x40 SWAP1 SWAP2 ADD MSTORE SWAP1 JUMP JUMPDEST DUP3 DUP1 SLOAD PUSH1 0x1 DUP2 PUSH1 0x1 AND ISZERO PUSH2 0x100 MUL SUB AND PUSH1 0x2 SWAP1 DIV SWAP1 PUSH1 0x0 MSTORE PUSH1 0x20 PUSH1 0x0 KECCAK256 SWAP1 PUSH1 0x1F ADD PUSH1 0x20 SWAP1 DIV DUP2 ADD SWAP3 DUP3 PUSH1 0x1F LT PUSH2 0x5B2 JUMPI DUP1 MLOAD PUSH1 0xFF NOT AND DUP4 DUP1 ADD OR DUP6 SSTORE PUSH2 0x5DF JUMP JUMPDEST DUP3 DUP1 ADD PUSH1 0x1 ADD DUP6 SSTORE DUP3 ISZERO PUSH2 0x5DF JUMPI SWAP2 DUP3 ADD JUMPDEST DUP3 DUP2 GT ISZERO PUSH2 0x5DF JUMPI DUP3 MLOAD DUP3 SSTORE SWAP2 PUSH1 0x20 ADD SWAP2 SWAP1 PUSH1 0x1 ADD SWAP1 PUSH2 0x5C4 JUMP JUMPDEST POP PUSH2 0x5EB SWAP3 SWAP2 POP PUSH2 0x615 JUMP JUMPDEST POP SWAP1 JUMP JUMPDEST PUSH1 0x40 MLOAD DUP1 PUSH1 0x20 ADD PUSH1 0x40 MSTORE DUP1 PUSH1 0x60 DUP2 MSTORE POP SWAP1 JUMP JUMPDEST PUSH1 0x40 MLOAD DUP1 PUSH1 0x20 ADD PUSH1 0x40 MSTORE DUP1 PUSH1 0x0 DUP2 MSTORE POP SWAP1 JUMP JUMPDEST JUMPDEST DUP1 DUP3 GT ISZERO PUSH2 0x5EB JUMPI PUSH1 0x0 DUP2 SSTORE PUSH1 0x1 ADD PUSH2 0x616 JUMP JUMPDEST DUP1 MLOAD PUSH2 0x635 DUP2 PUSH2 0x9CB JUMP JUMPDEST SWAP3 SWAP2 POP POP JUMP JUMPDEST DUP1 MLOAD DUP1 ISZERO ISZERO DUP2 EQ PUSH2 0x635 JUMPI PUSH1 0x0 DUP1 REVERT JUMPDEST PUSH1 0x0 DUP3 PUSH1 0x1F DUP4 ADD SLT PUSH2 0x65B JUMPI DUP1 DUP2 REVERT JUMPDEST DUP2 CALLDATALOAD PUSH2 0x66E PUSH2 0x669 DUP3 PUSH2 0x977 JUMP JUMPDEST PUSH2 0x950 JUMP JUMPDEST SWAP2 POP DUP1 DUP3 MSTORE DUP4 PUSH1 0x20 DUP3 DUP6 ADD ADD GT ISZERO PUSH2 0x685 JUMPI PUSH1 0x0 DUP1 REVERT JUMPDEST DUP1 PUSH1 0x20 DUP5 ADD PUSH1 0x20 DUP5 ADD CALLDATACOPY PUSH1 0x0 SWAP1 DUP3 ADD PUSH1 0x20 ADD MSTORE SWAP3 SWAP2 POP POP JUMP JUMPDEST PUSH1 0x0 DUP3 PUSH1 0x1F DUP4 ADD SLT PUSH2 0x6AE JUMPI DUP1 DUP2 REVERT JUMPDEST DUP2 MLOAD PUSH2 0x6BC PUSH2 0x669 DUP3 PUSH2 0x977 JUMP JUMPDEST SWAP2 POP DUP1 DUP3 MSTORE DUP4 PUSH1 0x20 DUP3 DUP6 ADD ADD GT ISZERO PUSH2 0x6D3 JUMPI PUSH1 0x0 DUP1 REVERT JUMPDEST PUSH2 0x6E4 DUP2 PUSH1 0x20 DUP5 ADD PUSH1 0x20 DUP7 ADD PUSH2 0x99B JUMP JUMPDEST POP SWAP3 SWAP2 POP POP JUMP JUMPDEST PUSH1 0x0 PUSH1 0x20 DUP3 DUP5 SUB SLT ISZERO PUSH2 0x6FC JUMPI DUP1 DUP2 REVERT JUMPDEST PUSH2 0x706 PUSH1 0x20 PUSH2 0x950 JUMP JUMPDEST SWAP1 POP DUP2 MLOAD PUSH8 0xFFFFFFFFFFFFFFFF DUP2 GT ISZERO PUSH2 0x71F JUMPI PUSH1 0x0 DUP1 REVERT JUMPDEST PUSH2 0x72B DUP5 DUP3 DUP6 ADD PUSH2 0x69E JUMP JUMPDEST DUP3 MSTORE POP SWAP3 SWAP2 POP POP JUMP JUMPDEST PUSH1 0x0 PUSH1 0x20 DUP3 DUP5 SUB SLT ISZERO PUSH2 0x745 JUMPI DUP1 DUP2 REVERT JUMPDEST PUSH2 0x74F PUSH1 0x20 PUSH2 0x950 JUMP JUMPDEST SWAP2 MLOAD DUP3 MSTORE POP SWAP2 SWAP1 POP JUMP JUMPDEST PUSH1 0x0 PUSH1 0x20 DUP3 DUP5 SUB SLT ISZERO PUSH2 0x76A JUMPI DUP1 DUP2 REVERT JUMPDEST DUP2 CALLDATALOAD PUSH2 0x775 DUP2 PUSH2 0x9CB JUMP JUMPDEST SWAP4 SWAP3 POP POP POP JUMP JUMPDEST PUSH1 0x0 DUP1 PUSH1 0x0 PUSH1 0x60 DUP5 DUP7 SUB SLT ISZERO PUSH2 0x790 JUMPI DUP2 DUP3 REVERT JUMPDEST DUP4 CALLDATALOAD PUSH8 0xFFFFFFFFFFFFFFFF DUP1 DUP3 GT ISZERO PUSH2 0x7A7 JUMPI DUP4 DUP5 REVERT JUMPDEST PUSH2 0x7B3 DUP8 DUP4 DUP9 ADD PUSH2 0x64B JUMP JUMPDEST SWAP5 POP PUSH1 0x20 DUP7 ADD CALLDATALOAD SWAP2 POP PUSH2 0x7C5 DUP3 PUSH2 0x9CB JUMP JUMPDEST SWAP1 SWAP3 POP PUSH1 0x40 DUP6 ADD CALLDATALOAD SWAP1 DUP1 DUP3 GT ISZERO PUSH2 0x7DA JUMPI DUP3 DUP4 REVERT JUMPDEST POP PUSH2 0x7E7 DUP7 DUP3 DUP8 ADD PUSH2 0x64B JUMP JUMPDEST SWAP2 POP POP SWAP3 POP SWAP3 POP SWAP3 JUMP JUMPDEST PUSH1 0x0 PUSH1 0x20 DUP3 DUP5 SUB SLT ISZERO PUSH2 0x802 JUMPI DUP1 DUP2 REVERT JUMPDEST DUP2 MLOAD PUSH8 0xFFFFFFFFFFFFFFFF DUP1 DUP3 GT ISZERO PUSH2 0x819 JUMPI DUP3 DUP4 REVERT JUMPDEST SWAP1 DUP4 ADD SWAP1 PUSH1 0xC0 DUP3 DUP7 SUB SLT ISZERO PUSH2 0x82C JUMPI DUP3 DUP4 REVERT JUMPDEST PUSH2 0x836 PUSH1 0xC0 PUSH2 0x950 JUMP JUMPDEST DUP3 MLOAD DUP3 DUP2 GT ISZERO PUSH2 0x844 JUMPI DUP5 DUP6 REVERT JUMPDEST PUSH2 0x850 DUP8 DUP3 DUP7 ADD PUSH2 0x69E JUMP JUMPDEST DUP3 MSTORE POP PUSH2 0x860 DUP7 PUSH1 0x20 DUP6 ADD PUSH2 0x62A JUMP JUMPDEST PUSH1 0x20 DUP3 ADD MSTORE PUSH1 0x40 DUP4 ADD MLOAD DUP3 DUP2 GT ISZERO PUSH2 0x876 JUMPI DUP5 DUP6 REVERT JUMPDEST PUSH2 0x882 DUP8 DUP3 DUP7 ADD PUSH2 0x6EB JUMP JUMPDEST PUSH1 0x40 DUP4 ADD MSTORE POP PUSH2 0x895 DUP7 PUSH1 0x60 DUP6 ADD PUSH2 0x734 JUMP JUMPDEST PUSH1 0x60 DUP3 ADD MSTORE PUSH2 0x8A7 DUP7 PUSH1 0x80 DUP6 ADD PUSH2 0x63B JUMP JUMPDEST PUSH1 0x80 DUP3 ADD MSTORE PUSH2 0x8B9 DUP7 PUSH1 0xA0 DUP6 ADD PUSH2 0x63B JUMP JUMPDEST PUSH1 0xA0 DUP3 ADD MSTORE SWAP6 SWAP5 POP POP POP POP POP JUMP JUMPDEST PUSH1 0x0 DUP2 MLOAD DUP1 DUP5 MSTORE PUSH2 0x8DF DUP2 PUSH1 0x20 DUP7 ADD PUSH1 0x20 DUP7 ADD PUSH2 0x99B JUMP JUMPDEST PUSH1 0x1F ADD PUSH1 0x1F NOT AND SWAP3 SWAP1 SWAP3 ADD PUSH1 0x20 ADD SWAP3 SWAP2 POP POP JUMP JUMPDEST PUSH1 0x1 PUSH1 0x1 PUSH1 0xA0 SHL SUB SWAP2 SWAP1 SWAP2 AND DUP2 MSTORE PUSH1 0x20 ADD SWAP1 JUMP JUMPDEST SWAP1 ISZERO ISZERO DUP2 MSTORE PUSH1 0x20 ADD SWAP1 JUMP JUMPDEST PUSH1 0x0 PUSH1 0x60 DUP3 MSTORE PUSH2 0x925 PUSH1 0x60 DUP4 ADD DUP7 PUSH2 0x8C7 JUMP JUMPDEST PUSH1 0x1 PUSH1 0x1 PUSH1 0xA0 SHL SUB DUP6 AND PUSH1 0x20 DUP5 ADD MSTORE DUP3 DUP2 SUB PUSH1 0x40 DUP5 ADD MSTORE PUSH2 0x946 DUP2 DUP6 PUSH2 0x8C7 JUMP JUMPDEST SWAP7 SWAP6 POP POP POP POP POP POP JUMP JUMPDEST PUSH1 0x40 MLOAD DUP2 DUP2 ADD PUSH8 0xFFFFFFFFFFFFFFFF DUP2 GT DUP3 DUP3 LT OR ISZERO PUSH2 0x96F JUMPI PUSH1 0x0 DUP1 REVERT JUMPDEST PUSH1 0x40 MSTORE SWAP2 SWAP1 POP JUMP JUMPDEST PUSH1 0x0 PUSH8 0xFFFFFFFFFFFFFFFF DUP3 GT ISZERO PUSH2 0x98D JUMPI DUP1 DUP2 REVERT JUMPDEST POP PUSH1 0x1F ADD PUSH1 0x1F NOT AND PUSH1 0x20 ADD SWAP1 JUMP JUMPDEST PUSH1 0x0 JUMPDEST DUP4 DUP2 LT ISZERO PUSH2 0x9B6 JUMPI DUP2 DUP2 ADD MLOAD DUP4 DUP3 ADD MSTORE PUSH1 0x20 ADD PUSH2 0x99E JUMP JUMPDEST DUP4 DUP2 GT ISZERO PUSH2 0x9C5 JUMPI PUSH1 0x0 DUP5 DUP5 ADD MSTORE JUMPDEST POP POP POP POP JUMP JUMPDEST PUSH1 0x1 PUSH1 0x1 PUSH1 0xA0 SHL SUB DUP2 AND DUP2 EQ PUSH2 0x477 JUMPI PUSH1 0x0 DUP1 REVERT INVALID LOG2 PUSH5 0x6970667358 0x22 SLT KECCAK256 0x5C PUSH12 0xC5F00E2C15D0CFDA7E8DEB07 0xB9 PUSH9 0x8BA74FF2BA7475350 MSTORE8 0xC9 CALLVALUE DUP15 LOG3 LT EXTCODESIZE PUSH5 0x736F6C6343 STOP MOD 0xC STOP CALLER ",
  "sha1": "44b8f83630eab2d267e53b0cce929fb65c8fc094",
  "source": "pragma solidity ^0.6.0;\npragma experimental ABIEncoderV2;\n\nimport \"./Ownable.sol\";\n\n// NFT type define \nlibrary NftLibs {\n    /*\n     *  Store a reference to an image, stored in IPFS, in an ethereum smart contract.\n     */\n    struct ImageInfo {\n        string ipfsInfo;\n    }\n\n    struct Price {\n        uint price;\n    }\n\n    struct NftInfo {\n        string nftName;\n        address nftProducer;\n        ImageInfo imageInfo;\n        Price price;\n        bool hasStarted;\n        bool publicEnabledShow;\n    }\n\n    modifier hasMandotaryFields(string memory _name, address _address, string memory _ipfsInfo) {\n        bytes memory tempEmptyNameStringTest = bytes(_name); \n        bytes memory tempEmptyImageStringTest = bytes(_ipfsInfo); \n\n        require(tempEmptyNameStringTest.length > 0 \n                && tempEmptyImageStringTest.length > 0\n                && _address != address(0));\n\n        _;\n    }\n\n    function createNftInfo(string memory _name, address _address, string memory _ipfsInfo) \n            public hasMandotaryFields(_name, _address, _ipfsInfo) \n            returns (NftInfo memory) {\n        NftInfo memory nftInfo = NftInfo(_name, _address, ImageInfo(_ipfsInfo), Price(0), false, false);\n        return nftInfo;\n    }\n}\n\ncontract NftCollection is Ownable {\n    /*\n     * Store all NFT for each address has.\n     * Stores the number of tokens each address has\n     */\n    mapping (address => NftLibs.NftInfo[]) AddressToNftInfos;\n\n    // Stores the maximum number of tokens that you wanna sell.\n    uint32 maxSupply = 0;\n\n    // Stores the remaining mints.\n    uint32 numberOfMints = 0;\n\n    uint gasPay = 0.0001 ether;\n\n    function createToken(string memory _name, address _address, string memory _ipfsInfo) public {\n        NftLibs.NftInfo memory nftInfo = NftLibs.createNftInfo(_name, _address, _ipfsInfo);\n        AddressToNftInfos[_address].push(nftInfo);\n        maxSupply ++;\n    }\n\n    function getNftInfo() private view hasMinted returns(NftLibs.NftInfo storage) {\n        NftLibs.NftInfo[] storage nftInfos = AddressToNftInfos[msg.sender];\n\n        // TODO: Fix bellow.\n        return nftInfos[0];\n    }\n\n    modifier hasMinted() {\n        require(AddressToNftInfos[msg.sender].length > 0);\n        _;\n    }\n\n    function withdraw() external onlyOwner {\n        address payable _owner = address(uint160(owner()));\n        _owner.transfer(address(this).balance);\n    }\n\n    function safeMint() external payable hasMinted() {\n        // Check to make sure gasPay ether was sent to the function call:\n        require(msg.value == gasPay);\n\n        // After get GAS could convert token to Non-Fungible token :)))\n    }\n\n    // Display status if sale has started.\n    function getSaleStarted() public view returns (bool) {\n        NftLibs.NftInfo storage nftInfo = getNftInfo();\n        return nftInfo.hasStarted;\n    }\n\n    // Once public enabled show it and enable mint button for all\n    function getOpenToPublic() public view returns (bool) {\n        NftLibs.NftInfo storage nftInfo = getNftInfo();\n        return nftInfo.publicEnabledShow;\n    }\n\n    // TODO: Implement function.\n    function getOnWhiteList(address) public pure returns (bool) {\n        return true;\n    }\n}",
  "sourcePath": "contracts/NftCollection.sol",
  "type": "contract"
}