{
  "abi": [
    {
      "anonymous": false,
      "inputs": [
        {
          "indexed": true,
          "internalType": "address",
          "name": "previousOwner",
          "type": "address"
        },
        {
          "indexed": true,
          "internalType": "address",
          "name": "newOwner",
          "type": "address"
        }
      ],
      "name": "OwnershipTransferred",
      "type": "event"
    },
    {
      "inputs": [
        {
          "internalType": "address",
          "name": "_address",
          "type": "address"
        }
      ],
      "name": "addToWhiteList",
      "outputs": [],
      "stateMutability": "nonpayable",
      "type": "function"
    },
    {
      "inputs": [
        {
          "internalType": "string",
          "name": "_name",
          "type": "string"
        },
        {
          "internalType": "address",
          "name": "_address",
          "type": "address"
        },
        {
          "internalType": "string",
          "name": "_ipfsInfo",
          "type": "string"
        }
      ],
      "name": "createToken",
      "outputs": [],
      "stateMutability": "nonpayable",
      "type": "function"
    },
    {
      "inputs": [],
      "name": "getMaxSupply",
      "outputs": [
        {
          "internalType": "uint256",
          "name": "",
          "type": "uint256"
        }
      ],
      "stateMutability": "view",
      "type": "function"
    },
    {
      "inputs": [],
      "name": "getNumberOfPreSale",
      "outputs": [
        {
          "internalType": "uint256",
          "name": "",
          "type": "uint256"
        }
      ],
      "stateMutability": "view",
      "type": "function"
    },
    {
      "inputs": [],
      "name": "getNumberOfPubliSale",
      "outputs": [
        {
          "internalType": "uint256",
          "name": "",
          "type": "uint256"
        }
      ],
      "stateMutability": "view",
      "type": "function"
    },
    {
      "inputs": [],
      "name": "getOnWhiteList",
      "outputs": [
        {
          "internalType": "bool",
          "name": "",
          "type": "bool"
        }
      ],
      "stateMutability": "view",
      "type": "function"
    },
    {
      "inputs": [],
      "name": "getOpenToPublic",
      "outputs": [
        {
          "internalType": "bool",
          "name": "",
          "type": "bool"
        }
      ],
      "stateMutability": "view",
      "type": "function"
    },
    {
      "inputs": [],
      "name": "getRemainingMints",
      "outputs": [
        {
          "internalType": "uint256",
          "name": "",
          "type": "uint256"
        }
      ],
      "stateMutability": "view",
      "type": "function"
    },
    {
      "inputs": [],
      "name": "getSaleStarted",
      "outputs": [
        {
          "internalType": "bool",
          "name": "",
          "type": "bool"
        }
      ],
      "stateMutability": "view",
      "type": "function"
    },
    {
      "inputs": [],
      "name": "isOwner",
      "outputs": [
        {
          "internalType": "bool",
          "name": "",
          "type": "bool"
        }
      ],
      "stateMutability": "view",
      "type": "function"
    },
    {
      "inputs": [],
      "name": "owner",
      "outputs": [
        {
          "internalType": "address",
          "name": "",
          "type": "address"
        }
      ],
      "stateMutability": "view",
      "type": "function"
    },
    {
      "inputs": [],
      "name": "renounceOwnership",
      "outputs": [],
      "stateMutability": "nonpayable",
      "type": "function"
    },
    {
      "inputs": [],
      "name": "safeMint",
      "outputs": [],
      "stateMutability": "payable",
      "type": "function"
    },
    {
      "inputs": [],
      "name": "setClosedToPublic",
      "outputs": [
        {
          "internalType": "bool",
          "name": "",
          "type": "bool"
        }
      ],
      "stateMutability": "nonpayable",
      "type": "function"
    },
    {
      "inputs": [],
      "name": "setOpenToPublic",
      "outputs": [
        {
          "internalType": "bool",
          "name": "",
          "type": "bool"
        }
      ],
      "stateMutability": "nonpayable",
      "type": "function"
    },
    {
      "inputs": [
        {
          "internalType": "address",
          "name": "newOwner",
          "type": "address"
        }
      ],
      "name": "transferOwnership",
      "outputs": [],
      "stateMutability": "nonpayable",
      "type": "function"
    }
  ],
  "bytecode": "6080604052600380546001600160881b031916905564e8d4a5100060045534801561002957600080fd5b50600080546001600160a01b03191633178082556040516001600160a01b039190911691907f8be0079c531659141344cd1fd0a4f28419497f9722a3daafe3b4186f6b6457e0908290a3610c6c806100826000396000f3fe6080604052600436106100f35760003560e01c80638680d87e1161008a578063c42946c711610059578063c42946c71461022f578063c987f40314610244578063f2fde38b14610259578063fd02c23914610279576100f3565b80638680d87e146101ce5780638c23c4bc146101e35780638da5cb5b146101f85780638f32d59b1461021a576100f3565b80634c0f38c2116100c65780634c0f38c21461016f5780636871ee4014610191578063715018a61461019957806377eb17b4146101ae576100f3565b80630b64251e146100f85780633a6be1151461012357806347ee039414610138578063491100c51461015a575b600080fd5b34801561010457600080fd5b5061010d61028e565b60405161011a9190610b54565b60405180910390f35b34801561012f57600080fd5b5061010d6102a6565b34801561014457600080fd5b506101586101533660046109b8565b6102c9565b005b34801561016657600080fd5b5061010d6102fe565b34801561017b57600080fd5b5061018461031e565b60405161011a9190610b9d565b61015861032f565b3480156101a557600080fd5b50610158610467565b3480156101ba57600080fd5b506101586101c93660046109db565b6104c2565b3480156101da57600080fd5b5061010d61063b565b3480156101ef57600080fd5b50610184610644565b34801561020457600080fd5b5061020d610657565b60405161011a9190610b40565b34801561022657600080fd5b5061010d610666565b34801561023b57600080fd5b50610184610677565b34801561025057600080fd5b5061010d61068a565b34801561026557600080fd5b506101586102743660046109b8565b6106a0565b34801561028557600080fd5b506101846106bd565b6000806102996106e0565b6004015460ff1691505090565b60006102b0610666565b6102b957600080fd5b6003805460ff1916600117905590565b6102d1610666565b6102da57600080fd5b6001600160a01b03166000908152600260205260409020805460ff19166001179055565b6000610308610666565b61031157600080fd5b6003805460ff1916905590565b600354610100900463ffffffff1690565b3360009081526001602052604090205461034857600080fd5b61035061068a565b8061035e575061035e61063b565b61036757600080fd5b60045434101561037657600080fd5b61037e61063b565b156103b25760038054600163ffffffff600160681b808404821692909201160263ffffffff60681b199091161790556103f0565b6103ba61068a565b156103f05760038054600163ffffffff600160481b80840482169290920116026cffffffff000000000000000000199091161790555b60006103fa610657565b6004546040519192506001600160a01b0383169181156108fc0291906000818181858888f19350505050158015610435573d6000803e3d6000fd5b505060038054600163ffffffff65010000000000808404821692909201160268ffffffff000000000019909116179055565b61046f610666565b61047857600080fd5b600080546040516001600160a01b03909116907f8be0079c531659141344cd1fd0a4f28419497f9722a3daafe3b4186f6b6457e0908390a3600080546001600160a01b0319169055565b6104ca610796565b604051620cf04560e51b815273__NftLibs_______________________________9063019e08a09061050490879087908790600401610b5f565b60006040518083038186803b15801561051c57600080fd5b505af4158015610530573d6000803e3d6000fd5b505050506040513d6000823e601f3d908101601f191682016040526105589190810190610a50565b6001600160a01b03841660009081526001602081815260408320805492830181558352918290208351805194955085946005909302909101926105a0928492909101906107d0565b506020828101516001830180546001600160a01b0319166001600160a01b03909216919091179055604083015180518051919260028501926105e592849201906107d0565b5050506060820151516003828101919091556080909201516004909101805460ff1916911515919091179055805464ffffffff001981166101009182900463ffffffff9081166001011690910217905550505050565b60035460ff1690565b600354600160681b900463ffffffff1690565b6000546001600160a01b031690565b6000546001600160a01b0316331490565b600354600160481b900463ffffffff1690565b3360009081526002602052604090205460ff1690565b6106a8610666565b6106b157600080fd5b6106ba81610728565b50565b60035463ffffffff65010000000000820481166101009092048116919091031690565b336000908152600160205260408120546106f957600080fd5b33600090815260016020526040812080549091829161071457fe5b906000526020600020906005020191505090565b6001600160a01b03811661073b57600080fd5b600080546040516001600160a01b03808516939216917f8be0079c531659141344cd1fd0a4f28419497f9722a3daafe3b4186f6b6457e091a3600080546001600160a01b0319166001600160a01b0392909216919091179055565b6040805160a08101825260608152600060208201529081016107b661084e565b81526020016107c3610861565b8152600060209091015290565b828054600181600116156101000203166002900490600052602060002090601f016020900481019282601f1061081157805160ff191683800117855561083e565b8280016001018555821561083e579182015b8281111561083e578251825591602001919060010190610823565b5061084a929150610874565b5090565b6040518060200160405280606081525090565b6040518060200160405280600081525090565b5b8082111561084a5760008155600101610875565b805161089481610c21565b92915050565b8051801515811461089457600080fd5b600082601f8301126108ba578081fd5b81356108cd6108c882610bcd565b610ba6565b91508082528360208285010111156108e457600080fd5b8060208401602084013760009082016020015292915050565b600082601f83011261090d578081fd5b815161091b6108c882610bcd565b915080825283602082850101111561093257600080fd5b610943816020840160208601610bf1565b5092915050565b60006020828403121561095b578081fd5b6109656020610ba6565b9050815167ffffffffffffffff81111561097e57600080fd5b61098a848285016108fd565b82525092915050565b6000602082840312156109a4578081fd5b6109ae6020610ba6565b9151825250919050565b6000602082840312156109c9578081fd5b81356109d481610c21565b9392505050565b6000806000606084860312156109ef578182fd5b833567ffffffffffffffff80821115610a06578384fd5b610a12878388016108aa565b945060208601359150610a2482610c21565b90925060408501359080821115610a39578283fd5b50610a46868287016108aa565b9150509250925092565b600060208284031215610a61578081fd5b815167ffffffffffffffff80821115610a78578283fd5b9083019060a08286031215610a8b578283fd5b610a9560a0610ba6565b825182811115610aa3578485fd5b610aaf878286016108fd565b825250610abf8660208501610889565b6020820152604083015182811115610ad5578485fd5b610ae18782860161094a565b604083015250610af48660608501610993565b6060820152610b06866080850161089a565b608082015295945050505050565b60008151808452610b2c816020860160208601610bf1565b601f01601f19169290920160200192915050565b6001600160a01b0391909116815260200190565b901515815260200190565b600060608252610b726060830186610b14565b6001600160a01b03851660208401528281036040840152610b938185610b14565b9695505050505050565b90815260200190565b60405181810167ffffffffffffffff81118282101715610bc557600080fd5b604052919050565b600067ffffffffffffffff821115610be3578081fd5b50601f01601f191660200190565b60005b83811015610c0c578181015183820152602001610bf4565b83811115610c1b576000848401525b50505050565b6001600160a01b03811681146106ba57600080fdfea264697066735822122050dadaf5524d5a5ff6a16a2a4e8951189240edc351cae4bdc9a6307567075ffe64736f6c634300060c0033",
  "bytecodeSha1": "cb03e47e90c1d38f5400fe08b4d786606ba27f05",
  "compiler": {
    "evm_version": "istanbul",
    "optimizer": {
      "enabled": true,
      "runs": 200
    },
    "version": "0.6.12+commit.27d51765"
  },
  "contractName": "NftCollection",
  "deployedBytecode": "6080604052600436106100f35760003560e01c80638680d87e1161008a578063c42946c711610059578063c42946c71461022f578063c987f40314610244578063f2fde38b14610259578063fd02c23914610279576100f3565b80638680d87e146101ce5780638c23c4bc146101e35780638da5cb5b146101f85780638f32d59b1461021a576100f3565b80634c0f38c2116100c65780634c0f38c21461016f5780636871ee4014610191578063715018a61461019957806377eb17b4146101ae576100f3565b80630b64251e146100f85780633a6be1151461012357806347ee039414610138578063491100c51461015a575b600080fd5b34801561010457600080fd5b5061010d61028e565b60405161011a9190610b54565b60405180910390f35b34801561012f57600080fd5b5061010d6102a6565b34801561014457600080fd5b506101586101533660046109b8565b6102c9565b005b34801561016657600080fd5b5061010d6102fe565b34801561017b57600080fd5b5061018461031e565b60405161011a9190610b9d565b61015861032f565b3480156101a557600080fd5b50610158610467565b3480156101ba57600080fd5b506101586101c93660046109db565b6104c2565b3480156101da57600080fd5b5061010d61063b565b3480156101ef57600080fd5b50610184610644565b34801561020457600080fd5b5061020d610657565b60405161011a9190610b40565b34801561022657600080fd5b5061010d610666565b34801561023b57600080fd5b50610184610677565b34801561025057600080fd5b5061010d61068a565b34801561026557600080fd5b506101586102743660046109b8565b6106a0565b34801561028557600080fd5b506101846106bd565b6000806102996106e0565b6004015460ff1691505090565b60006102b0610666565b6102b957600080fd5b6003805460ff1916600117905590565b6102d1610666565b6102da57600080fd5b6001600160a01b03166000908152600260205260409020805460ff19166001179055565b6000610308610666565b61031157600080fd5b6003805460ff1916905590565b600354610100900463ffffffff1690565b3360009081526001602052604090205461034857600080fd5b61035061068a565b8061035e575061035e61063b565b61036757600080fd5b60045434101561037657600080fd5b61037e61063b565b156103b25760038054600163ffffffff600160681b808404821692909201160263ffffffff60681b199091161790556103f0565b6103ba61068a565b156103f05760038054600163ffffffff600160481b80840482169290920116026cffffffff000000000000000000199091161790555b60006103fa610657565b6004546040519192506001600160a01b0383169181156108fc0291906000818181858888f19350505050158015610435573d6000803e3d6000fd5b505060038054600163ffffffff65010000000000808404821692909201160268ffffffff000000000019909116179055565b61046f610666565b61047857600080fd5b600080546040516001600160a01b03909116907f8be0079c531659141344cd1fd0a4f28419497f9722a3daafe3b4186f6b6457e0908390a3600080546001600160a01b0319169055565b6104ca610796565b604051620cf04560e51b815273__$67ab562366c52fcbcaecae584739bc0d72$__9063019e08a09061050490879087908790600401610b5f565b60006040518083038186803b15801561051c57600080fd5b505af4158015610530573d6000803e3d6000fd5b505050506040513d6000823e601f3d908101601f191682016040526105589190810190610a50565b6001600160a01b03841660009081526001602081815260408320805492830181558352918290208351805194955085946005909302909101926105a0928492909101906107d0565b506020828101516001830180546001600160a01b0319166001600160a01b03909216919091179055604083015180518051919260028501926105e592849201906107d0565b5050506060820151516003828101919091556080909201516004909101805460ff1916911515919091179055805464ffffffff001981166101009182900463ffffffff9081166001011690910217905550505050565b60035460ff1690565b600354600160681b900463ffffffff1690565b6000546001600160a01b031690565b6000546001600160a01b0316331490565b600354600160481b900463ffffffff1690565b3360009081526002602052604090205460ff1690565b6106a8610666565b6106b157600080fd5b6106ba81610728565b50565b60035463ffffffff65010000000000820481166101009092048116919091031690565b336000908152600160205260408120546106f957600080fd5b33600090815260016020526040812080549091829161071457fe5b906000526020600020906005020191505090565b6001600160a01b03811661073b57600080fd5b600080546040516001600160a01b03808516939216917f8be0079c531659141344cd1fd0a4f28419497f9722a3daafe3b4186f6b6457e091a3600080546001600160a01b0319166001600160a01b0392909216919091179055565b6040805160a08101825260608152600060208201529081016107b661084e565b81526020016107c3610861565b8152600060209091015290565b828054600181600116156101000203166002900490600052602060002090601f016020900481019282601f1061081157805160ff191683800117855561083e565b8280016001018555821561083e579182015b8281111561083e578251825591602001919060010190610823565b5061084a929150610874565b5090565b6040518060200160405280606081525090565b6040518060200160405280600081525090565b5b8082111561084a5760008155600101610875565b805161089481610c21565b92915050565b8051801515811461089457600080fd5b600082601f8301126108ba578081fd5b81356108cd6108c882610bcd565b610ba6565b91508082528360208285010111156108e457600080fd5b8060208401602084013760009082016020015292915050565b600082601f83011261090d578081fd5b815161091b6108c882610bcd565b915080825283602082850101111561093257600080fd5b610943816020840160208601610bf1565b5092915050565b60006020828403121561095b578081fd5b6109656020610ba6565b9050815167ffffffffffffffff81111561097e57600080fd5b61098a848285016108fd565b82525092915050565b6000602082840312156109a4578081fd5b6109ae6020610ba6565b9151825250919050565b6000602082840312156109c9578081fd5b81356109d481610c21565b9392505050565b6000806000606084860312156109ef578182fd5b833567ffffffffffffffff80821115610a06578384fd5b610a12878388016108aa565b945060208601359150610a2482610c21565b90925060408501359080821115610a39578283fd5b50610a46868287016108aa565b9150509250925092565b600060208284031215610a61578081fd5b815167ffffffffffffffff80821115610a78578283fd5b9083019060a08286031215610a8b578283fd5b610a9560a0610ba6565b825182811115610aa3578485fd5b610aaf878286016108fd565b825250610abf8660208501610889565b6020820152604083015182811115610ad5578485fd5b610ae18782860161094a565b604083015250610af48660608501610993565b6060820152610b06866080850161089a565b608082015295945050505050565b60008151808452610b2c816020860160208601610bf1565b601f01601f19169290920160200192915050565b6001600160a01b0391909116815260200190565b901515815260200190565b600060608252610b726060830186610b14565b6001600160a01b03851660208401528281036040840152610b938185610b14565b9695505050505050565b90815260200190565b60405181810167ffffffffffffffff81118282101715610bc557600080fd5b604052919050565b600067ffffffffffffffff821115610be3578081fd5b50601f01601f191660200190565b60005b83811015610c0c578181015183820152602001610bf4565b83811115610c1b576000848401525b50505050565b6001600160a01b03811681146106ba57600080fdfea264697066735822122050dadaf5524d5a5ff6a16a2a4e8951189240edc351cae4bdc9a6307567075ffe64736f6c634300060c0033",
  "language": "Solidity",
  "natspec": {
    "kind": "dev",
    "methods": {
      "isOwner()": {
        "returns": {
          "_0": "true if `msg.sender` is the owner of the contract."
        }
      },
      "owner()": {
        "returns": {
          "_0": "the address of the owner."
        }
      },
      "renounceOwnership()": {
        "details": "Allows the current owner to relinquish control of the contract.",
        "notice": "Renouncing to ownership will leave the contract without an owner. It will not be possible to call the functions with the `onlyOwner` modifier anymore."
      },
      "transferOwnership(address)": {
        "details": "Allows the current owner to transfer control of the contract to a newOwner.",
        "params": {
          "newOwner": "The address to transfer ownership to."
        }
      }
    },
    "version": 1
  },
  "opcodes": "PUSH1 0x80 PUSH1 0x40 MSTORE PUSH1 0x4 CALLDATASIZE LT PUSH2 0xF3 JUMPI PUSH1 0x0 CALLDATALOAD PUSH1 0xE0 SHR DUP1 PUSH4 0x8680D87E GT PUSH2 0x8A JUMPI DUP1 PUSH4 0xC42946C7 GT PUSH2 0x59 JUMPI DUP1 PUSH4 0xC42946C7 EQ PUSH2 0x22F JUMPI DUP1 PUSH4 0xC987F403 EQ PUSH2 0x244 JUMPI DUP1 PUSH4 0xF2FDE38B EQ PUSH2 0x259 JUMPI DUP1 PUSH4 0xFD02C239 EQ PUSH2 0x279 JUMPI PUSH2 0xF3 JUMP JUMPDEST DUP1 PUSH4 0x8680D87E EQ PUSH2 0x1CE JUMPI DUP1 PUSH4 0x8C23C4BC EQ PUSH2 0x1E3 JUMPI DUP1 PUSH4 0x8DA5CB5B EQ PUSH2 0x1F8 JUMPI DUP1 PUSH4 0x8F32D59B EQ PUSH2 0x21A JUMPI PUSH2 0xF3 JUMP JUMPDEST DUP1 PUSH4 0x4C0F38C2 GT PUSH2 0xC6 JUMPI DUP1 PUSH4 0x4C0F38C2 EQ PUSH2 0x16F JUMPI DUP1 PUSH4 0x6871EE40 EQ PUSH2 0x191 JUMPI DUP1 PUSH4 0x715018A6 EQ PUSH2 0x199 JUMPI DUP1 PUSH4 0x77EB17B4 EQ PUSH2 0x1AE JUMPI PUSH2 0xF3 JUMP JUMPDEST DUP1 PUSH4 0xB64251E EQ PUSH2 0xF8 JUMPI DUP1 PUSH4 0x3A6BE115 EQ PUSH2 0x123 JUMPI DUP1 PUSH4 0x47EE0394 EQ PUSH2 0x138 JUMPI DUP1 PUSH4 0x491100C5 EQ PUSH2 0x15A JUMPI JUMPDEST PUSH1 0x0 DUP1 REVERT JUMPDEST CALLVALUE DUP1 ISZERO PUSH2 0x104 JUMPI PUSH1 0x0 DUP1 REVERT JUMPDEST POP PUSH2 0x10D PUSH2 0x28E JUMP JUMPDEST PUSH1 0x40 MLOAD PUSH2 0x11A SWAP2 SWAP1 PUSH2 0xB54 JUMP JUMPDEST PUSH1 0x40 MLOAD DUP1 SWAP2 SUB SWAP1 RETURN JUMPDEST CALLVALUE DUP1 ISZERO PUSH2 0x12F JUMPI PUSH1 0x0 DUP1 REVERT JUMPDEST POP PUSH2 0x10D PUSH2 0x2A6 JUMP JUMPDEST CALLVALUE DUP1 ISZERO PUSH2 0x144 JUMPI PUSH1 0x0 DUP1 REVERT JUMPDEST POP PUSH2 0x158 PUSH2 0x153 CALLDATASIZE PUSH1 0x4 PUSH2 0x9B8 JUMP JUMPDEST PUSH2 0x2C9 JUMP JUMPDEST STOP JUMPDEST CALLVALUE DUP1 ISZERO PUSH2 0x166 JUMPI PUSH1 0x0 DUP1 REVERT JUMPDEST POP PUSH2 0x10D PUSH2 0x2FE JUMP JUMPDEST CALLVALUE DUP1 ISZERO PUSH2 0x17B JUMPI PUSH1 0x0 DUP1 REVERT JUMPDEST POP PUSH2 0x184 PUSH2 0x31E JUMP JUMPDEST PUSH1 0x40 MLOAD PUSH2 0x11A SWAP2 SWAP1 PUSH2 0xB9D JUMP JUMPDEST PUSH2 0x158 PUSH2 0x32F JUMP JUMPDEST CALLVALUE DUP1 ISZERO PUSH2 0x1A5 JUMPI PUSH1 0x0 DUP1 REVERT JUMPDEST POP PUSH2 0x158 PUSH2 0x467 JUMP JUMPDEST CALLVALUE DUP1 ISZERO PUSH2 0x1BA JUMPI PUSH1 0x0 DUP1 REVERT JUMPDEST POP PUSH2 0x158 PUSH2 0x1C9 CALLDATASIZE PUSH1 0x4 PUSH2 0x9DB JUMP JUMPDEST PUSH2 0x4C2 JUMP JUMPDEST CALLVALUE DUP1 ISZERO PUSH2 0x1DA JUMPI PUSH1 0x0 DUP1 REVERT JUMPDEST POP PUSH2 0x10D PUSH2 0x63B JUMP JUMPDEST CALLVALUE DUP1 ISZERO PUSH2 0x1EF JUMPI PUSH1 0x0 DUP1 REVERT JUMPDEST POP PUSH2 0x184 PUSH2 0x644 JUMP JUMPDEST CALLVALUE DUP1 ISZERO PUSH2 0x204 JUMPI PUSH1 0x0 DUP1 REVERT JUMPDEST POP PUSH2 0x20D PUSH2 0x657 JUMP JUMPDEST PUSH1 0x40 MLOAD PUSH2 0x11A SWAP2 SWAP1 PUSH2 0xB40 JUMP JUMPDEST CALLVALUE DUP1 ISZERO PUSH2 0x226 JUMPI PUSH1 0x0 DUP1 REVERT JUMPDEST POP PUSH2 0x10D PUSH2 0x666 JUMP JUMPDEST CALLVALUE DUP1 ISZERO PUSH2 0x23B JUMPI PUSH1 0x0 DUP1 REVERT JUMPDEST POP PUSH2 0x184 PUSH2 0x677 JUMP JUMPDEST CALLVALUE DUP1 ISZERO PUSH2 0x250 JUMPI PUSH1 0x0 DUP1 REVERT JUMPDEST POP PUSH2 0x10D PUSH2 0x68A JUMP JUMPDEST CALLVALUE DUP1 ISZERO PUSH2 0x265 JUMPI PUSH1 0x0 DUP1 REVERT JUMPDEST POP PUSH2 0x158 PUSH2 0x274 CALLDATASIZE PUSH1 0x4 PUSH2 0x9B8 JUMP JUMPDEST PUSH2 0x6A0 JUMP JUMPDEST CALLVALUE DUP1 ISZERO PUSH2 0x285 JUMPI PUSH1 0x0 DUP1 REVERT JUMPDEST POP PUSH2 0x184 PUSH2 0x6BD JUMP JUMPDEST PUSH1 0x0 DUP1 PUSH2 0x299 PUSH2 0x6E0 JUMP JUMPDEST PUSH1 0x4 ADD SLOAD PUSH1 0xFF AND SWAP2 POP POP SWAP1 JUMP JUMPDEST PUSH1 0x0 PUSH2 0x2B0 PUSH2 0x666 JUMP JUMPDEST PUSH2 0x2B9 JUMPI PUSH1 0x0 DUP1 REVERT JUMPDEST PUSH1 0x3 DUP1 SLOAD PUSH1 0xFF NOT AND PUSH1 0x1 OR SWAP1 SSTORE SWAP1 JUMP JUMPDEST PUSH2 0x2D1 PUSH2 0x666 JUMP JUMPDEST PUSH2 0x2DA JUMPI PUSH1 0x0 DUP1 REVERT JUMPDEST PUSH1 0x1 PUSH1 0x1 PUSH1 0xA0 SHL SUB AND PUSH1 0x0 SWAP1 DUP2 MSTORE PUSH1 0x2 PUSH1 0x20 MSTORE PUSH1 0x40 SWAP1 KECCAK256 DUP1 SLOAD PUSH1 0xFF NOT AND PUSH1 0x1 OR SWAP1 SSTORE JUMP JUMPDEST PUSH1 0x0 PUSH2 0x308 PUSH2 0x666 JUMP JUMPDEST PUSH2 0x311 JUMPI PUSH1 0x0 DUP1 REVERT JUMPDEST PUSH1 0x3 DUP1 SLOAD PUSH1 0xFF NOT AND SWAP1 SSTORE SWAP1 JUMP JUMPDEST PUSH1 0x3 SLOAD PUSH2 0x100 SWAP1 DIV PUSH4 0xFFFFFFFF AND SWAP1 JUMP JUMPDEST CALLER PUSH1 0x0 SWAP1 DUP2 MSTORE PUSH1 0x1 PUSH1 0x20 MSTORE PUSH1 0x40 SWAP1 KECCAK256 SLOAD PUSH2 0x348 JUMPI PUSH1 0x0 DUP1 REVERT JUMPDEST PUSH2 0x350 PUSH2 0x68A JUMP JUMPDEST DUP1 PUSH2 0x35E JUMPI POP PUSH2 0x35E PUSH2 0x63B JUMP JUMPDEST PUSH2 0x367 JUMPI PUSH1 0x0 DUP1 REVERT JUMPDEST PUSH1 0x4 SLOAD CALLVALUE LT ISZERO PUSH2 0x376 JUMPI PUSH1 0x0 DUP1 REVERT JUMPDEST PUSH2 0x37E PUSH2 0x63B JUMP JUMPDEST ISZERO PUSH2 0x3B2 JUMPI PUSH1 0x3 DUP1 SLOAD PUSH1 0x1 PUSH4 0xFFFFFFFF PUSH1 0x1 PUSH1 0x68 SHL DUP1 DUP5 DIV DUP3 AND SWAP3 SWAP1 SWAP3 ADD AND MUL PUSH4 0xFFFFFFFF PUSH1 0x68 SHL NOT SWAP1 SWAP2 AND OR SWAP1 SSTORE PUSH2 0x3F0 JUMP JUMPDEST PUSH2 0x3BA PUSH2 0x68A JUMP JUMPDEST ISZERO PUSH2 0x3F0 JUMPI PUSH1 0x3 DUP1 SLOAD PUSH1 0x1 PUSH4 0xFFFFFFFF PUSH1 0x1 PUSH1 0x48 SHL DUP1 DUP5 DIV DUP3 AND SWAP3 SWAP1 SWAP3 ADD AND MUL PUSH13 0xFFFFFFFF000000000000000000 NOT SWAP1 SWAP2 AND OR SWAP1 SSTORE JUMPDEST PUSH1 0x0 PUSH2 0x3FA PUSH2 0x657 JUMP JUMPDEST PUSH1 0x4 SLOAD PUSH1 0x40 MLOAD SWAP2 SWAP3 POP PUSH1 0x1 PUSH1 0x1 PUSH1 0xA0 SHL SUB DUP4 AND SWAP2 DUP2 ISZERO PUSH2 0x8FC MUL SWAP2 SWAP1 PUSH1 0x0 DUP2 DUP2 DUP2 DUP6 DUP9 DUP9 CALL SWAP4 POP POP POP POP ISZERO DUP1 ISZERO PUSH2 0x435 JUMPI RETURNDATASIZE PUSH1 0x0 DUP1 RETURNDATACOPY RETURNDATASIZE PUSH1 0x0 REVERT JUMPDEST POP POP PUSH1 0x3 DUP1 SLOAD PUSH1 0x1 PUSH4 0xFFFFFFFF PUSH6 0x10000000000 DUP1 DUP5 DIV DUP3 AND SWAP3 SWAP1 SWAP3 ADD AND MUL PUSH9 0xFFFFFFFF0000000000 NOT SWAP1 SWAP2 AND OR SWAP1 SSTORE JUMP JUMPDEST PUSH2 0x46F PUSH2 0x666 JUMP JUMPDEST PUSH2 0x478 JUMPI PUSH1 0x0 DUP1 REVERT JUMPDEST PUSH1 0x0 DUP1 SLOAD PUSH1 0x40 MLOAD PUSH1 0x1 PUSH1 0x1 PUSH1 0xA0 SHL SUB SWAP1 SWAP2 AND SWAP1 PUSH32 0x8BE0079C531659141344CD1FD0A4F28419497F9722A3DAAFE3B4186F6B6457E0 SWAP1 DUP4 SWAP1 LOG3 PUSH1 0x0 DUP1 SLOAD PUSH1 0x1 PUSH1 0x1 PUSH1 0xA0 SHL SUB NOT AND SWAP1 SSTORE JUMP JUMPDEST PUSH2 0x4CA PUSH2 0x796 JUMP JUMPDEST PUSH1 0x40 MLOAD PUSH3 0xCF045 PUSH1 0xE5 SHL DUP2 MSTORE PUSH20 0x0 SWAP1 PUSH4 0x19E08A0 SWAP1 PUSH2 0x504 SWAP1 DUP8 SWAP1 DUP8 SWAP1 DUP8 SWAP1 PUSH1 0x4 ADD PUSH2 0xB5F JUMP JUMPDEST PUSH1 0x0 PUSH1 0x40 MLOAD DUP1 DUP4 SUB DUP2 DUP7 DUP1 EXTCODESIZE ISZERO DUP1 ISZERO PUSH2 0x51C JUMPI PUSH1 0x0 DUP1 REVERT JUMPDEST POP GAS DELEGATECALL ISZERO DUP1 ISZERO PUSH2 0x530 JUMPI RETURNDATASIZE PUSH1 0x0 DUP1 RETURNDATACOPY RETURNDATASIZE PUSH1 0x0 REVERT JUMPDEST POP POP POP POP PUSH1 0x40 MLOAD RETURNDATASIZE PUSH1 0x0 DUP3 RETURNDATACOPY PUSH1 0x1F RETURNDATASIZE SWAP1 DUP2 ADD PUSH1 0x1F NOT AND DUP3 ADD PUSH1 0x40 MSTORE PUSH2 0x558 SWAP2 SWAP1 DUP2 ADD SWAP1 PUSH2 0xA50 JUMP JUMPDEST PUSH1 0x1 PUSH1 0x1 PUSH1 0xA0 SHL SUB DUP5 AND PUSH1 0x0 SWAP1 DUP2 MSTORE PUSH1 0x1 PUSH1 0x20 DUP2 DUP2 MSTORE PUSH1 0x40 DUP4 KECCAK256 DUP1 SLOAD SWAP3 DUP4 ADD DUP2 SSTORE DUP4 MSTORE SWAP2 DUP3 SWAP1 KECCAK256 DUP4 MLOAD DUP1 MLOAD SWAP5 SWAP6 POP DUP6 SWAP5 PUSH1 0x5 SWAP1 SWAP4 MUL SWAP1 SWAP2 ADD SWAP3 PUSH2 0x5A0 SWAP3 DUP5 SWAP3 SWAP1 SWAP2 ADD SWAP1 PUSH2 0x7D0 JUMP JUMPDEST POP PUSH1 0x20 DUP3 DUP2 ADD MLOAD PUSH1 0x1 DUP4 ADD DUP1 SLOAD PUSH1 0x1 PUSH1 0x1 PUSH1 0xA0 SHL SUB NOT AND PUSH1 0x1 PUSH1 0x1 PUSH1 0xA0 SHL SUB SWAP1 SWAP3 AND SWAP2 SWAP1 SWAP2 OR SWAP1 SSTORE PUSH1 0x40 DUP4 ADD MLOAD DUP1 MLOAD DUP1 MLOAD SWAP2 SWAP3 PUSH1 0x2 DUP6 ADD SWAP3 PUSH2 0x5E5 SWAP3 DUP5 SWAP3 ADD SWAP1 PUSH2 0x7D0 JUMP JUMPDEST POP POP POP PUSH1 0x60 DUP3 ADD MLOAD MLOAD PUSH1 0x3 DUP3 DUP2 ADD SWAP2 SWAP1 SWAP2 SSTORE PUSH1 0x80 SWAP1 SWAP3 ADD MLOAD PUSH1 0x4 SWAP1 SWAP2 ADD DUP1 SLOAD PUSH1 0xFF NOT AND SWAP2 ISZERO ISZERO SWAP2 SWAP1 SWAP2 OR SWAP1 SSTORE DUP1 SLOAD PUSH5 0xFFFFFFFF00 NOT DUP2 AND PUSH2 0x100 SWAP2 DUP3 SWAP1 DIV PUSH4 0xFFFFFFFF SWAP1 DUP2 AND PUSH1 0x1 ADD AND SWAP1 SWAP2 MUL OR SWAP1 SSTORE POP POP POP POP JUMP JUMPDEST PUSH1 0x3 SLOAD PUSH1 0xFF AND SWAP1 JUMP JUMPDEST PUSH1 0x3 SLOAD PUSH1 0x1 PUSH1 0x68 SHL SWAP1 DIV PUSH4 0xFFFFFFFF AND SWAP1 JUMP JUMPDEST PUSH1 0x0 SLOAD PUSH1 0x1 PUSH1 0x1 PUSH1 0xA0 SHL SUB AND SWAP1 JUMP JUMPDEST PUSH1 0x0 SLOAD PUSH1 0x1 PUSH1 0x1 PUSH1 0xA0 SHL SUB AND CALLER EQ SWAP1 JUMP JUMPDEST PUSH1 0x3 SLOAD PUSH1 0x1 PUSH1 0x48 SHL SWAP1 DIV PUSH4 0xFFFFFFFF AND SWAP1 JUMP JUMPDEST CALLER PUSH1 0x0 SWAP1 DUP2 MSTORE PUSH1 0x2 PUSH1 0x20 MSTORE PUSH1 0x40 SWAP1 KECCAK256 SLOAD PUSH1 0xFF AND SWAP1 JUMP JUMPDEST PUSH2 0x6A8 PUSH2 0x666 JUMP JUMPDEST PUSH2 0x6B1 JUMPI PUSH1 0x0 DUP1 REVERT JUMPDEST PUSH2 0x6BA DUP2 PUSH2 0x728 JUMP JUMPDEST POP JUMP JUMPDEST PUSH1 0x3 SLOAD PUSH4 0xFFFFFFFF PUSH6 0x10000000000 DUP3 DIV DUP2 AND PUSH2 0x100 SWAP1 SWAP3 DIV DUP2 AND SWAP2 SWAP1 SWAP2 SUB AND SWAP1 JUMP JUMPDEST CALLER PUSH1 0x0 SWAP1 DUP2 MSTORE PUSH1 0x1 PUSH1 0x20 MSTORE PUSH1 0x40 DUP2 KECCAK256 SLOAD PUSH2 0x6F9 JUMPI PUSH1 0x0 DUP1 REVERT JUMPDEST CALLER PUSH1 0x0 SWAP1 DUP2 MSTORE PUSH1 0x1 PUSH1 0x20 MSTORE PUSH1 0x40 DUP2 KECCAK256 DUP1 SLOAD SWAP1 SWAP2 DUP3 SWAP2 PUSH2 0x714 JUMPI INVALID JUMPDEST SWAP1 PUSH1 0x0 MSTORE PUSH1 0x20 PUSH1 0x0 KECCAK256 SWAP1 PUSH1 0x5 MUL ADD SWAP2 POP POP SWAP1 JUMP JUMPDEST PUSH1 0x1 PUSH1 0x1 PUSH1 0xA0 SHL SUB DUP2 AND PUSH2 0x73B JUMPI PUSH1 0x0 DUP1 REVERT JUMPDEST PUSH1 0x0 DUP1 SLOAD PUSH1 0x40 MLOAD PUSH1 0x1 PUSH1 0x1 PUSH1 0xA0 SHL SUB DUP1 DUP6 AND SWAP4 SWAP3 AND SWAP2 PUSH32 0x8BE0079C531659141344CD1FD0A4F28419497F9722A3DAAFE3B4186F6B6457E0 SWAP2 LOG3 PUSH1 0x0 DUP1 SLOAD PUSH1 0x1 PUSH1 0x1 PUSH1 0xA0 SHL SUB NOT AND PUSH1 0x1 PUSH1 0x1 PUSH1 0xA0 SHL SUB SWAP3 SWAP1 SWAP3 AND SWAP2 SWAP1 SWAP2 OR SWAP1 SSTORE JUMP JUMPDEST PUSH1 0x40 DUP1 MLOAD PUSH1 0xA0 DUP2 ADD DUP3 MSTORE PUSH1 0x60 DUP2 MSTORE PUSH1 0x0 PUSH1 0x20 DUP3 ADD MSTORE SWAP1 DUP2 ADD PUSH2 0x7B6 PUSH2 0x84E JUMP JUMPDEST DUP2 MSTORE PUSH1 0x20 ADD PUSH2 0x7C3 PUSH2 0x861 JUMP JUMPDEST DUP2 MSTORE PUSH1 0x0 PUSH1 0x20 SWAP1 SWAP2 ADD MSTORE SWAP1 JUMP JUMPDEST DUP3 DUP1 SLOAD PUSH1 0x1 DUP2 PUSH1 0x1 AND ISZERO PUSH2 0x100 MUL SUB AND PUSH1 0x2 SWAP1 DIV SWAP1 PUSH1 0x0 MSTORE PUSH1 0x20 PUSH1 0x0 KECCAK256 SWAP1 PUSH1 0x1F ADD PUSH1 0x20 SWAP1 DIV DUP2 ADD SWAP3 DUP3 PUSH1 0x1F LT PUSH2 0x811 JUMPI DUP1 MLOAD PUSH1 0xFF NOT AND DUP4 DUP1 ADD OR DUP6 SSTORE PUSH2 0x83E JUMP JUMPDEST DUP3 DUP1 ADD PUSH1 0x1 ADD DUP6 SSTORE DUP3 ISZERO PUSH2 0x83E JUMPI SWAP2 DUP3 ADD JUMPDEST DUP3 DUP2 GT ISZERO PUSH2 0x83E JUMPI DUP3 MLOAD DUP3 SSTORE SWAP2 PUSH1 0x20 ADD SWAP2 SWAP1 PUSH1 0x1 ADD SWAP1 PUSH2 0x823 JUMP JUMPDEST POP PUSH2 0x84A SWAP3 SWAP2 POP PUSH2 0x874 JUMP JUMPDEST POP SWAP1 JUMP JUMPDEST PUSH1 0x40 MLOAD DUP1 PUSH1 0x20 ADD PUSH1 0x40 MSTORE DUP1 PUSH1 0x60 DUP2 MSTORE POP SWAP1 JUMP JUMPDEST PUSH1 0x40 MLOAD DUP1 PUSH1 0x20 ADD PUSH1 0x40 MSTORE DUP1 PUSH1 0x0 DUP2 MSTORE POP SWAP1 JUMP JUMPDEST JUMPDEST DUP1 DUP3 GT ISZERO PUSH2 0x84A JUMPI PUSH1 0x0 DUP2 SSTORE PUSH1 0x1 ADD PUSH2 0x875 JUMP JUMPDEST DUP1 MLOAD PUSH2 0x894 DUP2 PUSH2 0xC21 JUMP JUMPDEST SWAP3 SWAP2 POP POP JUMP JUMPDEST DUP1 MLOAD DUP1 ISZERO ISZERO DUP2 EQ PUSH2 0x894 JUMPI PUSH1 0x0 DUP1 REVERT JUMPDEST PUSH1 0x0 DUP3 PUSH1 0x1F DUP4 ADD SLT PUSH2 0x8BA JUMPI DUP1 DUP2 REVERT JUMPDEST DUP2 CALLDATALOAD PUSH2 0x8CD PUSH2 0x8C8 DUP3 PUSH2 0xBCD JUMP JUMPDEST PUSH2 0xBA6 JUMP JUMPDEST SWAP2 POP DUP1 DUP3 MSTORE DUP4 PUSH1 0x20 DUP3 DUP6 ADD ADD GT ISZERO PUSH2 0x8E4 JUMPI PUSH1 0x0 DUP1 REVERT JUMPDEST DUP1 PUSH1 0x20 DUP5 ADD PUSH1 0x20 DUP5 ADD CALLDATACOPY PUSH1 0x0 SWAP1 DUP3 ADD PUSH1 0x20 ADD MSTORE SWAP3 SWAP2 POP POP JUMP JUMPDEST PUSH1 0x0 DUP3 PUSH1 0x1F DUP4 ADD SLT PUSH2 0x90D JUMPI DUP1 DUP2 REVERT JUMPDEST DUP2 MLOAD PUSH2 0x91B PUSH2 0x8C8 DUP3 PUSH2 0xBCD JUMP JUMPDEST SWAP2 POP DUP1 DUP3 MSTORE DUP4 PUSH1 0x20 DUP3 DUP6 ADD ADD GT ISZERO PUSH2 0x932 JUMPI PUSH1 0x0 DUP1 REVERT JUMPDEST PUSH2 0x943 DUP2 PUSH1 0x20 DUP5 ADD PUSH1 0x20 DUP7 ADD PUSH2 0xBF1 JUMP JUMPDEST POP SWAP3 SWAP2 POP POP JUMP JUMPDEST PUSH1 0x0 PUSH1 0x20 DUP3 DUP5 SUB SLT ISZERO PUSH2 0x95B JUMPI DUP1 DUP2 REVERT JUMPDEST PUSH2 0x965 PUSH1 0x20 PUSH2 0xBA6 JUMP JUMPDEST SWAP1 POP DUP2 MLOAD PUSH8 0xFFFFFFFFFFFFFFFF DUP2 GT ISZERO PUSH2 0x97E JUMPI PUSH1 0x0 DUP1 REVERT JUMPDEST PUSH2 0x98A DUP5 DUP3 DUP6 ADD PUSH2 0x8FD JUMP JUMPDEST DUP3 MSTORE POP SWAP3 SWAP2 POP POP JUMP JUMPDEST PUSH1 0x0 PUSH1 0x20 DUP3 DUP5 SUB SLT ISZERO PUSH2 0x9A4 JUMPI DUP1 DUP2 REVERT JUMPDEST PUSH2 0x9AE PUSH1 0x20 PUSH2 0xBA6 JUMP JUMPDEST SWAP2 MLOAD DUP3 MSTORE POP SWAP2 SWAP1 POP JUMP JUMPDEST PUSH1 0x0 PUSH1 0x20 DUP3 DUP5 SUB SLT ISZERO PUSH2 0x9C9 JUMPI DUP1 DUP2 REVERT JUMPDEST DUP2 CALLDATALOAD PUSH2 0x9D4 DUP2 PUSH2 0xC21 JUMP JUMPDEST SWAP4 SWAP3 POP POP POP JUMP JUMPDEST PUSH1 0x0 DUP1 PUSH1 0x0 PUSH1 0x60 DUP5 DUP7 SUB SLT ISZERO PUSH2 0x9EF JUMPI DUP2 DUP3 REVERT JUMPDEST DUP4 CALLDATALOAD PUSH8 0xFFFFFFFFFFFFFFFF DUP1 DUP3 GT ISZERO PUSH2 0xA06 JUMPI DUP4 DUP5 REVERT JUMPDEST PUSH2 0xA12 DUP8 DUP4 DUP9 ADD PUSH2 0x8AA JUMP JUMPDEST SWAP5 POP PUSH1 0x20 DUP7 ADD CALLDATALOAD SWAP2 POP PUSH2 0xA24 DUP3 PUSH2 0xC21 JUMP JUMPDEST SWAP1 SWAP3 POP PUSH1 0x40 DUP6 ADD CALLDATALOAD SWAP1 DUP1 DUP3 GT ISZERO PUSH2 0xA39 JUMPI DUP3 DUP4 REVERT JUMPDEST POP PUSH2 0xA46 DUP7 DUP3 DUP8 ADD PUSH2 0x8AA JUMP JUMPDEST SWAP2 POP POP SWAP3 POP SWAP3 POP SWAP3 JUMP JUMPDEST PUSH1 0x0 PUSH1 0x20 DUP3 DUP5 SUB SLT ISZERO PUSH2 0xA61 JUMPI DUP1 DUP2 REVERT JUMPDEST DUP2 MLOAD PUSH8 0xFFFFFFFFFFFFFFFF DUP1 DUP3 GT ISZERO PUSH2 0xA78 JUMPI DUP3 DUP4 REVERT JUMPDEST SWAP1 DUP4 ADD SWAP1 PUSH1 0xA0 DUP3 DUP7 SUB SLT ISZERO PUSH2 0xA8B JUMPI DUP3 DUP4 REVERT JUMPDEST PUSH2 0xA95 PUSH1 0xA0 PUSH2 0xBA6 JUMP JUMPDEST DUP3 MLOAD DUP3 DUP2 GT ISZERO PUSH2 0xAA3 JUMPI DUP5 DUP6 REVERT JUMPDEST PUSH2 0xAAF DUP8 DUP3 DUP7 ADD PUSH2 0x8FD JUMP JUMPDEST DUP3 MSTORE POP PUSH2 0xABF DUP7 PUSH1 0x20 DUP6 ADD PUSH2 0x889 JUMP JUMPDEST PUSH1 0x20 DUP3 ADD MSTORE PUSH1 0x40 DUP4 ADD MLOAD DUP3 DUP2 GT ISZERO PUSH2 0xAD5 JUMPI DUP5 DUP6 REVERT JUMPDEST PUSH2 0xAE1 DUP8 DUP3 DUP7 ADD PUSH2 0x94A JUMP JUMPDEST PUSH1 0x40 DUP4 ADD MSTORE POP PUSH2 0xAF4 DUP7 PUSH1 0x60 DUP6 ADD PUSH2 0x993 JUMP JUMPDEST PUSH1 0x60 DUP3 ADD MSTORE PUSH2 0xB06 DUP7 PUSH1 0x80 DUP6 ADD PUSH2 0x89A JUMP JUMPDEST PUSH1 0x80 DUP3 ADD MSTORE SWAP6 SWAP5 POP POP POP POP POP JUMP JUMPDEST PUSH1 0x0 DUP2 MLOAD DUP1 DUP5 MSTORE PUSH2 0xB2C DUP2 PUSH1 0x20 DUP7 ADD PUSH1 0x20 DUP7 ADD PUSH2 0xBF1 JUMP JUMPDEST PUSH1 0x1F ADD PUSH1 0x1F NOT AND SWAP3 SWAP1 SWAP3 ADD PUSH1 0x20 ADD SWAP3 SWAP2 POP POP JUMP JUMPDEST PUSH1 0x1 PUSH1 0x1 PUSH1 0xA0 SHL SUB SWAP2 SWAP1 SWAP2 AND DUP2 MSTORE PUSH1 0x20 ADD SWAP1 JUMP JUMPDEST SWAP1 ISZERO ISZERO DUP2 MSTORE PUSH1 0x20 ADD SWAP1 JUMP JUMPDEST PUSH1 0x0 PUSH1 0x60 DUP3 MSTORE PUSH2 0xB72 PUSH1 0x60 DUP4 ADD DUP7 PUSH2 0xB14 JUMP JUMPDEST PUSH1 0x1 PUSH1 0x1 PUSH1 0xA0 SHL SUB DUP6 AND PUSH1 0x20 DUP5 ADD MSTORE DUP3 DUP2 SUB PUSH1 0x40 DUP5 ADD MSTORE PUSH2 0xB93 DUP2 DUP6 PUSH2 0xB14 JUMP JUMPDEST SWAP7 SWAP6 POP POP POP POP POP POP JUMP JUMPDEST SWAP1 DUP2 MSTORE PUSH1 0x20 ADD SWAP1 JUMP JUMPDEST PUSH1 0x40 MLOAD DUP2 DUP2 ADD PUSH8 0xFFFFFFFFFFFFFFFF DUP2 GT DUP3 DUP3 LT OR ISZERO PUSH2 0xBC5 JUMPI PUSH1 0x0 DUP1 REVERT JUMPDEST PUSH1 0x40 MSTORE SWAP2 SWAP1 POP JUMP JUMPDEST PUSH1 0x0 PUSH8 0xFFFFFFFFFFFFFFFF DUP3 GT ISZERO PUSH2 0xBE3 JUMPI DUP1 DUP2 REVERT JUMPDEST POP PUSH1 0x1F ADD PUSH1 0x1F NOT AND PUSH1 0x20 ADD SWAP1 JUMP JUMPDEST PUSH1 0x0 JUMPDEST DUP4 DUP2 LT ISZERO PUSH2 0xC0C JUMPI DUP2 DUP2 ADD MLOAD DUP4 DUP3 ADD MSTORE PUSH1 0x20 ADD PUSH2 0xBF4 JUMP JUMPDEST DUP4 DUP2 GT ISZERO PUSH2 0xC1B JUMPI PUSH1 0x0 DUP5 DUP5 ADD MSTORE JUMPDEST POP POP POP POP JUMP JUMPDEST PUSH1 0x1 PUSH1 0x1 PUSH1 0xA0 SHL SUB DUP2 AND DUP2 EQ PUSH2 0x6BA JUMPI PUSH1 0x0 DUP1 REVERT INVALID LOG2 PUSH5 0x6970667358 0x22 SLT KECCAK256 POP 0xDA 0xDA CREATE2 MSTORE 0x4D GAS 0x5F 0xF6 LOG1 PUSH11 0x2A4E8951189240EDC351CA 0xE4 0xBD 0xC9 0xA6 ADDRESS PUSH22 0x67075FFE64736F6C634300060C003300000000000000 ",
  "sha1": "f18e93bb468d50b7567ed6500312488d96d3be43",
  "source": "pragma solidity ^0.6.0;\npragma experimental ABIEncoderV2;\n\nimport \"./Ownable.sol\";\n\n// NFT type define \nlibrary NftLibs {\n    /*\n     *  Store a reference to an image, stored in IPFS, in an ethereum smart contract.\n     */\n    struct ImageInfo {\n        string ipfsInfo;\n    }\n\n    struct Price {\n        uint price;\n    }\n\n    struct NftInfo {\n        string nftName;\n        address nftProducer;\n        ImageInfo imageInfo;\n        Price price;\n        bool hasStarted;\n    }\n\n    modifier hasMandotaryFields(string memory _name, address _address, string memory _ipfsInfo) {\n        bytes memory tempEmptyNameStringTest = bytes(_name); \n        bytes memory tempEmptyImageStringTest = bytes(_ipfsInfo); \n\n        require(tempEmptyNameStringTest.length > 0 \n                && tempEmptyImageStringTest.length > 0\n                && _address != address(0));\n\n        _;\n    }\n\n    function createNftInfo(string memory _name, address _address, string memory _ipfsInfo) \n            public hasMandotaryFields(_name, _address, _ipfsInfo) \n            returns (NftInfo memory) {\n        NftInfo memory nftInfo = NftInfo(_name, _address, ImageInfo(_ipfsInfo), Price(0), false);\n        return nftInfo;\n    }\n}\n\ncontract NftCollection is Ownable {\n    /*\n     * Store all NFT for each address has.\n     * Stores the number of tokens each address has\n     */\n    mapping (address => NftLibs.NftInfo[]) private AddressToNftInfos;\n\n    /*\n     * Stores Whitelist on Map structure because dynamic list use more GAS for reallocating.\n     * TODO: For Decreasing GAS usage, we can merge AddressToNftInfos and Whitelist structure.\n     * pre/sale agar whitelist bashad mitavanad befroshad\n     * pre/sale agar whitelist bashad mitavanad befroshad\n     */\n    mapping (address => bool) private WhiteList;\n\n    // This parameter declare that minting tokens is public or just for WhiteList groups.\n    bool private publicEnabledShow = false;\n\n    // Stores the maximum number of tokens that you wanna sell.\n    uint32 private maxSupply = 0;\n\n    // Stores the remaining mints.\n    uint32 private numberOfMints = 0;\n\n    // TODO: Could combine bellow paramters in Sale structure for decreasing GAS cost\n    uint32 private preSale = 0;\n    uint32 private publicSale = 0;\n\n    uint private gasPay = 0.000001 ether;\n\n    function getNumberOfPreSale() public view returns(uint) {\n        return preSale;\n    }\n\n    function getNumberOfPubliSale() public view returns(uint) {\n        return publicSale;\n    }\n\n    function addToWhiteList(address _address) onlyOwner external {\n        WhiteList[_address] = true;\n    }\n\n    function createToken(string memory _name, address _address, string memory _ipfsInfo) public {\n        NftLibs.NftInfo memory nftInfo = NftLibs.createNftInfo(_name, _address, _ipfsInfo);\n        AddressToNftInfos[_address].push(nftInfo);\n        maxSupply ++;\n    }\n\n    function getMaxSupply() public view returns(uint) {\n        return maxSupply;\n    }\n\n    function getRemainingMints() public view returns(uint) {\n        return maxSupply - numberOfMints;\n    }\n\n    // Display status if sale has started.\n    function getSaleStarted() public view returns (bool) {\n        NftLibs.NftInfo storage nftInfo = getNftInfo();\n        return nftInfo.hasStarted;\n    }\n\n    // Once public enabled show it and enable mint button for all\n    function getOpenToPublic() public view returns (bool) {\n        return publicEnabledShow;\n    }\n\n    function setOpenToPublic() public onlyOwner returns (bool) {\n        publicEnabledShow = true;\n    }\n\n    function setClosedToPublic() public onlyOwner returns (bool) {\n        publicEnabledShow = false;\n    }\n\n    function getOnWhiteList() public view returns (bool) {\n        return WhiteList[msg.sender];\n    }\n\n    function safeMint() external payable hasMinted hasOnWhiteListOrIsPublicEnabledShow {\n        // Check to make sure gasPay ether was sent to the function call:\n        require(msg.value >= gasPay);\n\n        if (getOpenToPublic()) {\n            publicSale ++;\n        } else if(getOnWhiteList()) { // Only for more readability writing this condition\n            preSale ++;\n        }\n\n        // After get GAS could convert token to Non-Fungible token :)))\n        address payable _owner = address(uint160(owner()));\n        _owner.transfer(gasPay);\n\n        numberOfMints ++;\n    }\n\n    // Private functions\n    function getNftInfo() private view hasMinted returns(NftLibs.NftInfo storage) {\n        NftLibs.NftInfo[] storage nftInfos = AddressToNftInfos[msg.sender];\n\n        // TODO: Fix bellow.\n        return nftInfos[0];\n    }\n\n    modifier hasMinted() {\n        require(AddressToNftInfos[msg.sender].length > 0);\n        _;\n    } \n\n    modifier hasOnWhiteListOrIsPublicEnabledShow() {\n        require(getOnWhiteList() || getOpenToPublic());\n        _;\n    }\n}",
  "sourcePath": "contracts/NftCollection.sol",
  "type": "contract"
}