{
  "abi": [
    {
      "anonymous": false,
      "inputs": [
        {
          "indexed": true,
          "internalType": "address",
          "name": "previousOwner",
          "type": "address"
        },
        {
          "indexed": true,
          "internalType": "address",
          "name": "newOwner",
          "type": "address"
        }
      ],
      "name": "OwnershipTransferred",
      "type": "event"
    },
    {
      "inputs": [
        {
          "internalType": "string",
          "name": "_name",
          "type": "string"
        },
        {
          "internalType": "address",
          "name": "_address",
          "type": "address"
        },
        {
          "internalType": "string",
          "name": "_ipfsInfo",
          "type": "string"
        }
      ],
      "name": "createToken",
      "outputs": [],
      "stateMutability": "nonpayable",
      "type": "function"
    },
    {
      "inputs": [],
      "name": "getMaxSupply",
      "outputs": [
        {
          "internalType": "uint256",
          "name": "",
          "type": "uint256"
        }
      ],
      "stateMutability": "view",
      "type": "function"
    },
    {
      "inputs": [
        {
          "internalType": "address",
          "name": "",
          "type": "address"
        }
      ],
      "name": "getOnWhiteList",
      "outputs": [
        {
          "internalType": "bool",
          "name": "",
          "type": "bool"
        }
      ],
      "stateMutability": "pure",
      "type": "function"
    },
    {
      "inputs": [],
      "name": "getOpenToPublic",
      "outputs": [
        {
          "internalType": "bool",
          "name": "",
          "type": "bool"
        }
      ],
      "stateMutability": "view",
      "type": "function"
    },
    {
      "inputs": [],
      "name": "getRemainingMints",
      "outputs": [
        {
          "internalType": "uint256",
          "name": "",
          "type": "uint256"
        }
      ],
      "stateMutability": "view",
      "type": "function"
    },
    {
      "inputs": [],
      "name": "getSaleStarted",
      "outputs": [
        {
          "internalType": "bool",
          "name": "",
          "type": "bool"
        }
      ],
      "stateMutability": "view",
      "type": "function"
    },
    {
      "inputs": [],
      "name": "isOwner",
      "outputs": [
        {
          "internalType": "bool",
          "name": "",
          "type": "bool"
        }
      ],
      "stateMutability": "view",
      "type": "function"
    },
    {
      "inputs": [],
      "name": "owner",
      "outputs": [
        {
          "internalType": "address",
          "name": "",
          "type": "address"
        }
      ],
      "stateMutability": "view",
      "type": "function"
    },
    {
      "inputs": [],
      "name": "renounceOwnership",
      "outputs": [],
      "stateMutability": "nonpayable",
      "type": "function"
    },
    {
      "inputs": [],
      "name": "safeMint",
      "outputs": [],
      "stateMutability": "payable",
      "type": "function"
    },
    {
      "inputs": [
        {
          "internalType": "address",
          "name": "newOwner",
          "type": "address"
        }
      ],
      "name": "transferOwnership",
      "outputs": [],
      "stateMutability": "nonpayable",
      "type": "function"
    }
  ],
  "bytecode": "6080604052600280546001600160401b031916905564e8d4a5100060035534801561002957600080fd5b50600080546001600160a01b03191633178082556040516001600160a01b039190911691907f8be0079c531659141344cd1fd0a4f28419497f9722a3daafe3b4186f6b6457e0908290a3610a92806100826000396000f3fe60806040526004361061009c5760003560e01c806377eb17b41161006457806377eb17b41461012d5780638680d87e1461014d5780638da5cb5b146101625780638f32d59b14610184578063f2fde38b14610199578063fd02c239146101b95761009c565b80630b64251e146100a15780633acde386146100cc5780634c0f38c2146100ec5780636871ee401461010e578063715018a614610118575b600080fd5b3480156100ad57600080fd5b506100b66101ce565b6040516100c3919061097a565b60405180910390f35b3480156100d857600080fd5b506100b66100e73660046107cc565b6101e6565b3480156100f857600080fd5b506101016101ec565b6040516100c391906109c3565b6101166101f8565b005b34801561012457600080fd5b50610116610295565b34801561013957600080fd5b506101166101483660046107ef565b6102f0565b34801561015957600080fd5b506100b6610476565b34801561016e57600080fd5b50610177610493565b6040516100c39190610966565b34801561019057600080fd5b506100b66104a2565b3480156101a557600080fd5b506101166101b43660046107cc565b6104b3565b3480156101c557600080fd5b506101016104d0565b6000806101d96104ed565b6004015460ff1691505090565b50600190565b60025463ffffffff1690565b3360009081526001602052604090205461021157600080fd5b60035434101561022057600080fd5b600061022a610493565b6003546040519192506001600160a01b0383169181156108fc0291906000818181858888f19350505050158015610265573d6000803e3d6000fd5b505060028054600163ffffffff640100000000808404821692909201160267ffffffff0000000019909116179055565b61029d6104a2565b6102a657600080fd5b600080546040516001600160a01b03909116907f8be0079c531659141344cd1fd0a4f28419497f9722a3daafe3b4186f6b6457e0908390a3600080546001600160a01b0319169055565b6102f86105a3565b604051620cf04560e51b815273__NftLibs_______________________________9063019e08a09061033290879087908790600401610985565b60006040518083038186803b15801561034a57600080fd5b505af415801561035e573d6000803e3d6000fd5b505050506040513d6000823e601f3d908101601f191682016040526103869190810190610864565b6001600160a01b03841660009081526001602081815260408320805492830181558352918290208351805194955085946005909302909101926103ce928492909101906105e4565b506020828101516001830180546001600160a01b0319166001600160a01b039092169190911790556040830151805180519192600285019261041392849201906105e4565b505050606082015151600382015560808201516004909101805460a09093015115156101000261ff001992151560ff19909416939093179190911691909117905550506002805463ffffffff8082166001011663ffffffff199091161790555050565b6000806104816104ed565b60040154610100900460ff1692915050565b6000546001600160a01b031690565b6000546001600160a01b0316331490565b6104bb6104a2565b6104c457600080fd5b6104cd81610535565b50565b60025463ffffffff64010000000082048116918116919091031690565b3360009081526001602052604081205461050657600080fd5b33600090815260016020526040812080549091829161052157fe5b906000526020600020906005020191505090565b6001600160a01b03811661054857600080fd5b600080546040516001600160a01b03808516939216917f8be0079c531659141344cd1fd0a4f28419497f9722a3daafe3b4186f6b6457e091a3600080546001600160a01b0319166001600160a01b0392909216919091179055565b6040805160c08101825260608152600060208201529081016105c3610662565b81526020016105d0610675565b815260006020820181905260409091015290565b828054600181600116156101000203166002900490600052602060002090601f016020900481019282601f1061062557805160ff1916838001178555610652565b82800160010185558215610652579182015b82811115610652578251825591602001919060010190610637565b5061065e929150610688565b5090565b6040518060200160405280606081525090565b6040518060200160405280600081525090565b5b8082111561065e5760008155600101610689565b80516106a881610a47565b92915050565b805180151581146106a857600080fd5b600082601f8301126106ce578081fd5b81356106e16106dc826109f3565b6109cc565b91508082528360208285010111156106f857600080fd5b8060208401602084013760009082016020015292915050565b600082601f830112610721578081fd5b815161072f6106dc826109f3565b915080825283602082850101111561074657600080fd5b610757816020840160208601610a17565b5092915050565b60006020828403121561076f578081fd5b61077960206109cc565b9050815167ffffffffffffffff81111561079257600080fd5b61079e84828501610711565b82525092915050565b6000602082840312156107b8578081fd5b6107c260206109cc565b9151825250919050565b6000602082840312156107dd578081fd5b81356107e881610a47565b9392505050565b600080600060608486031215610803578182fd5b833567ffffffffffffffff8082111561081a578384fd5b610826878388016106be565b94506020860135915061083882610a47565b9092506040850135908082111561084d578283fd5b5061085a868287016106be565b9150509250925092565b600060208284031215610875578081fd5b815167ffffffffffffffff8082111561088c578283fd5b9083019060c0828603121561089f578283fd5b6108a960c06109cc565b8251828111156108b7578485fd5b6108c387828601610711565b8252506108d3866020850161069d565b60208201526040830151828111156108e9578485fd5b6108f58782860161075e565b60408301525061090886606085016107a7565b606082015261091a86608085016106ae565b608082015261092c8660a085016106ae565b60a082015295945050505050565b60008151808452610952816020860160208601610a17565b601f01601f19169290920160200192915050565b6001600160a01b0391909116815260200190565b901515815260200190565b600060608252610998606083018661093a565b6001600160a01b038516602084015282810360408401526109b9818561093a565b9695505050505050565b90815260200190565b60405181810167ffffffffffffffff811182821017156109eb57600080fd5b604052919050565b600067ffffffffffffffff821115610a09578081fd5b50601f01601f191660200190565b60005b83811015610a32578181015183820152602001610a1a565b83811115610a41576000848401525b50505050565b6001600160a01b03811681146104cd57600080fdfea26469706673582212205568fd17e03922544e03d2c76ec03a2f835c0cb8693c76f510979b76e928156d64736f6c634300060c0033",
  "bytecodeSha1": "9871a4f883db56eff96c86f1ac98f07264ff4304",
  "compiler": {
    "evm_version": "istanbul",
    "optimizer": {
      "enabled": true,
      "runs": 200
    },
    "version": "0.6.12+commit.27d51765"
  },
  "contractName": "NftCollection",
  "deployedBytecode": "60806040526004361061009c5760003560e01c806377eb17b41161006457806377eb17b41461012d5780638680d87e1461014d5780638da5cb5b146101625780638f32d59b14610184578063f2fde38b14610199578063fd02c239146101b95761009c565b80630b64251e146100a15780633acde386146100cc5780634c0f38c2146100ec5780636871ee401461010e578063715018a614610118575b600080fd5b3480156100ad57600080fd5b506100b66101ce565b6040516100c3919061097a565b60405180910390f35b3480156100d857600080fd5b506100b66100e73660046107cc565b6101e6565b3480156100f857600080fd5b506101016101ec565b6040516100c391906109c3565b6101166101f8565b005b34801561012457600080fd5b50610116610295565b34801561013957600080fd5b506101166101483660046107ef565b6102f0565b34801561015957600080fd5b506100b6610476565b34801561016e57600080fd5b50610177610493565b6040516100c39190610966565b34801561019057600080fd5b506100b66104a2565b3480156101a557600080fd5b506101166101b43660046107cc565b6104b3565b3480156101c557600080fd5b506101016104d0565b6000806101d96104ed565b6004015460ff1691505090565b50600190565b60025463ffffffff1690565b3360009081526001602052604090205461021157600080fd5b60035434101561022057600080fd5b600061022a610493565b6003546040519192506001600160a01b0383169181156108fc0291906000818181858888f19350505050158015610265573d6000803e3d6000fd5b505060028054600163ffffffff640100000000808404821692909201160267ffffffff0000000019909116179055565b61029d6104a2565b6102a657600080fd5b600080546040516001600160a01b03909116907f8be0079c531659141344cd1fd0a4f28419497f9722a3daafe3b4186f6b6457e0908390a3600080546001600160a01b0319169055565b6102f86105a3565b604051620cf04560e51b815273__$67ab562366c52fcbcaecae584739bc0d72$__9063019e08a09061033290879087908790600401610985565b60006040518083038186803b15801561034a57600080fd5b505af415801561035e573d6000803e3d6000fd5b505050506040513d6000823e601f3d908101601f191682016040526103869190810190610864565b6001600160a01b03841660009081526001602081815260408320805492830181558352918290208351805194955085946005909302909101926103ce928492909101906105e4565b506020828101516001830180546001600160a01b0319166001600160a01b039092169190911790556040830151805180519192600285019261041392849201906105e4565b505050606082015151600382015560808201516004909101805460a09093015115156101000261ff001992151560ff19909416939093179190911691909117905550506002805463ffffffff8082166001011663ffffffff199091161790555050565b6000806104816104ed565b60040154610100900460ff1692915050565b6000546001600160a01b031690565b6000546001600160a01b0316331490565b6104bb6104a2565b6104c457600080fd5b6104cd81610535565b50565b60025463ffffffff64010000000082048116918116919091031690565b3360009081526001602052604081205461050657600080fd5b33600090815260016020526040812080549091829161052157fe5b906000526020600020906005020191505090565b6001600160a01b03811661054857600080fd5b600080546040516001600160a01b03808516939216917f8be0079c531659141344cd1fd0a4f28419497f9722a3daafe3b4186f6b6457e091a3600080546001600160a01b0319166001600160a01b0392909216919091179055565b6040805160c08101825260608152600060208201529081016105c3610662565b81526020016105d0610675565b815260006020820181905260409091015290565b828054600181600116156101000203166002900490600052602060002090601f016020900481019282601f1061062557805160ff1916838001178555610652565b82800160010185558215610652579182015b82811115610652578251825591602001919060010190610637565b5061065e929150610688565b5090565b6040518060200160405280606081525090565b6040518060200160405280600081525090565b5b8082111561065e5760008155600101610689565b80516106a881610a47565b92915050565b805180151581146106a857600080fd5b600082601f8301126106ce578081fd5b81356106e16106dc826109f3565b6109cc565b91508082528360208285010111156106f857600080fd5b8060208401602084013760009082016020015292915050565b600082601f830112610721578081fd5b815161072f6106dc826109f3565b915080825283602082850101111561074657600080fd5b610757816020840160208601610a17565b5092915050565b60006020828403121561076f578081fd5b61077960206109cc565b9050815167ffffffffffffffff81111561079257600080fd5b61079e84828501610711565b82525092915050565b6000602082840312156107b8578081fd5b6107c260206109cc565b9151825250919050565b6000602082840312156107dd578081fd5b81356107e881610a47565b9392505050565b600080600060608486031215610803578182fd5b833567ffffffffffffffff8082111561081a578384fd5b610826878388016106be565b94506020860135915061083882610a47565b9092506040850135908082111561084d578283fd5b5061085a868287016106be565b9150509250925092565b600060208284031215610875578081fd5b815167ffffffffffffffff8082111561088c578283fd5b9083019060c0828603121561089f578283fd5b6108a960c06109cc565b8251828111156108b7578485fd5b6108c387828601610711565b8252506108d3866020850161069d565b60208201526040830151828111156108e9578485fd5b6108f58782860161075e565b60408301525061090886606085016107a7565b606082015261091a86608085016106ae565b608082015261092c8660a085016106ae565b60a082015295945050505050565b60008151808452610952816020860160208601610a17565b601f01601f19169290920160200192915050565b6001600160a01b0391909116815260200190565b901515815260200190565b600060608252610998606083018661093a565b6001600160a01b038516602084015282810360408401526109b9818561093a565b9695505050505050565b90815260200190565b60405181810167ffffffffffffffff811182821017156109eb57600080fd5b604052919050565b600067ffffffffffffffff821115610a09578081fd5b50601f01601f191660200190565b60005b83811015610a32578181015183820152602001610a1a565b83811115610a41576000848401525b50505050565b6001600160a01b03811681146104cd57600080fdfea26469706673582212205568fd17e03922544e03d2c76ec03a2f835c0cb8693c76f510979b76e928156d64736f6c634300060c0033",
  "language": "Solidity",
  "natspec": {
    "kind": "dev",
    "methods": {
      "isOwner()": {
        "returns": {
          "_0": "true if `msg.sender` is the owner of the contract."
        }
      },
      "owner()": {
        "returns": {
          "_0": "the address of the owner."
        }
      },
      "renounceOwnership()": {
        "details": "Allows the current owner to relinquish control of the contract.",
        "notice": "Renouncing to ownership will leave the contract without an owner. It will not be possible to call the functions with the `onlyOwner` modifier anymore."
      },
      "transferOwnership(address)": {
        "details": "Allows the current owner to transfer control of the contract to a newOwner.",
        "params": {
          "newOwner": "The address to transfer ownership to."
        }
      }
    },
    "version": 1
  },
  "opcodes": "PUSH1 0x80 PUSH1 0x40 MSTORE PUSH1 0x4 CALLDATASIZE LT PUSH2 0x9C JUMPI PUSH1 0x0 CALLDATALOAD PUSH1 0xE0 SHR DUP1 PUSH4 0x77EB17B4 GT PUSH2 0x64 JUMPI DUP1 PUSH4 0x77EB17B4 EQ PUSH2 0x12D JUMPI DUP1 PUSH4 0x8680D87E EQ PUSH2 0x14D JUMPI DUP1 PUSH4 0x8DA5CB5B EQ PUSH2 0x162 JUMPI DUP1 PUSH4 0x8F32D59B EQ PUSH2 0x184 JUMPI DUP1 PUSH4 0xF2FDE38B EQ PUSH2 0x199 JUMPI DUP1 PUSH4 0xFD02C239 EQ PUSH2 0x1B9 JUMPI PUSH2 0x9C JUMP JUMPDEST DUP1 PUSH4 0xB64251E EQ PUSH2 0xA1 JUMPI DUP1 PUSH4 0x3ACDE386 EQ PUSH2 0xCC JUMPI DUP1 PUSH4 0x4C0F38C2 EQ PUSH2 0xEC JUMPI DUP1 PUSH4 0x6871EE40 EQ PUSH2 0x10E JUMPI DUP1 PUSH4 0x715018A6 EQ PUSH2 0x118 JUMPI JUMPDEST PUSH1 0x0 DUP1 REVERT JUMPDEST CALLVALUE DUP1 ISZERO PUSH2 0xAD JUMPI PUSH1 0x0 DUP1 REVERT JUMPDEST POP PUSH2 0xB6 PUSH2 0x1CE JUMP JUMPDEST PUSH1 0x40 MLOAD PUSH2 0xC3 SWAP2 SWAP1 PUSH2 0x97A JUMP JUMPDEST PUSH1 0x40 MLOAD DUP1 SWAP2 SUB SWAP1 RETURN JUMPDEST CALLVALUE DUP1 ISZERO PUSH2 0xD8 JUMPI PUSH1 0x0 DUP1 REVERT JUMPDEST POP PUSH2 0xB6 PUSH2 0xE7 CALLDATASIZE PUSH1 0x4 PUSH2 0x7CC JUMP JUMPDEST PUSH2 0x1E6 JUMP JUMPDEST CALLVALUE DUP1 ISZERO PUSH2 0xF8 JUMPI PUSH1 0x0 DUP1 REVERT JUMPDEST POP PUSH2 0x101 PUSH2 0x1EC JUMP JUMPDEST PUSH1 0x40 MLOAD PUSH2 0xC3 SWAP2 SWAP1 PUSH2 0x9C3 JUMP JUMPDEST PUSH2 0x116 PUSH2 0x1F8 JUMP JUMPDEST STOP JUMPDEST CALLVALUE DUP1 ISZERO PUSH2 0x124 JUMPI PUSH1 0x0 DUP1 REVERT JUMPDEST POP PUSH2 0x116 PUSH2 0x295 JUMP JUMPDEST CALLVALUE DUP1 ISZERO PUSH2 0x139 JUMPI PUSH1 0x0 DUP1 REVERT JUMPDEST POP PUSH2 0x116 PUSH2 0x148 CALLDATASIZE PUSH1 0x4 PUSH2 0x7EF JUMP JUMPDEST PUSH2 0x2F0 JUMP JUMPDEST CALLVALUE DUP1 ISZERO PUSH2 0x159 JUMPI PUSH1 0x0 DUP1 REVERT JUMPDEST POP PUSH2 0xB6 PUSH2 0x476 JUMP JUMPDEST CALLVALUE DUP1 ISZERO PUSH2 0x16E JUMPI PUSH1 0x0 DUP1 REVERT JUMPDEST POP PUSH2 0x177 PUSH2 0x493 JUMP JUMPDEST PUSH1 0x40 MLOAD PUSH2 0xC3 SWAP2 SWAP1 PUSH2 0x966 JUMP JUMPDEST CALLVALUE DUP1 ISZERO PUSH2 0x190 JUMPI PUSH1 0x0 DUP1 REVERT JUMPDEST POP PUSH2 0xB6 PUSH2 0x4A2 JUMP JUMPDEST CALLVALUE DUP1 ISZERO PUSH2 0x1A5 JUMPI PUSH1 0x0 DUP1 REVERT JUMPDEST POP PUSH2 0x116 PUSH2 0x1B4 CALLDATASIZE PUSH1 0x4 PUSH2 0x7CC JUMP JUMPDEST PUSH2 0x4B3 JUMP JUMPDEST CALLVALUE DUP1 ISZERO PUSH2 0x1C5 JUMPI PUSH1 0x0 DUP1 REVERT JUMPDEST POP PUSH2 0x101 PUSH2 0x4D0 JUMP JUMPDEST PUSH1 0x0 DUP1 PUSH2 0x1D9 PUSH2 0x4ED JUMP JUMPDEST PUSH1 0x4 ADD SLOAD PUSH1 0xFF AND SWAP2 POP POP SWAP1 JUMP JUMPDEST POP PUSH1 0x1 SWAP1 JUMP JUMPDEST PUSH1 0x2 SLOAD PUSH4 0xFFFFFFFF AND SWAP1 JUMP JUMPDEST CALLER PUSH1 0x0 SWAP1 DUP2 MSTORE PUSH1 0x1 PUSH1 0x20 MSTORE PUSH1 0x40 SWAP1 KECCAK256 SLOAD PUSH2 0x211 JUMPI PUSH1 0x0 DUP1 REVERT JUMPDEST PUSH1 0x3 SLOAD CALLVALUE LT ISZERO PUSH2 0x220 JUMPI PUSH1 0x0 DUP1 REVERT JUMPDEST PUSH1 0x0 PUSH2 0x22A PUSH2 0x493 JUMP JUMPDEST PUSH1 0x3 SLOAD PUSH1 0x40 MLOAD SWAP2 SWAP3 POP PUSH1 0x1 PUSH1 0x1 PUSH1 0xA0 SHL SUB DUP4 AND SWAP2 DUP2 ISZERO PUSH2 0x8FC MUL SWAP2 SWAP1 PUSH1 0x0 DUP2 DUP2 DUP2 DUP6 DUP9 DUP9 CALL SWAP4 POP POP POP POP ISZERO DUP1 ISZERO PUSH2 0x265 JUMPI RETURNDATASIZE PUSH1 0x0 DUP1 RETURNDATACOPY RETURNDATASIZE PUSH1 0x0 REVERT JUMPDEST POP POP PUSH1 0x2 DUP1 SLOAD PUSH1 0x1 PUSH4 0xFFFFFFFF PUSH5 0x100000000 DUP1 DUP5 DIV DUP3 AND SWAP3 SWAP1 SWAP3 ADD AND MUL PUSH8 0xFFFFFFFF00000000 NOT SWAP1 SWAP2 AND OR SWAP1 SSTORE JUMP JUMPDEST PUSH2 0x29D PUSH2 0x4A2 JUMP JUMPDEST PUSH2 0x2A6 JUMPI PUSH1 0x0 DUP1 REVERT JUMPDEST PUSH1 0x0 DUP1 SLOAD PUSH1 0x40 MLOAD PUSH1 0x1 PUSH1 0x1 PUSH1 0xA0 SHL SUB SWAP1 SWAP2 AND SWAP1 PUSH32 0x8BE0079C531659141344CD1FD0A4F28419497F9722A3DAAFE3B4186F6B6457E0 SWAP1 DUP4 SWAP1 LOG3 PUSH1 0x0 DUP1 SLOAD PUSH1 0x1 PUSH1 0x1 PUSH1 0xA0 SHL SUB NOT AND SWAP1 SSTORE JUMP JUMPDEST PUSH2 0x2F8 PUSH2 0x5A3 JUMP JUMPDEST PUSH1 0x40 MLOAD PUSH3 0xCF045 PUSH1 0xE5 SHL DUP2 MSTORE PUSH20 0x0 SWAP1 PUSH4 0x19E08A0 SWAP1 PUSH2 0x332 SWAP1 DUP8 SWAP1 DUP8 SWAP1 DUP8 SWAP1 PUSH1 0x4 ADD PUSH2 0x985 JUMP JUMPDEST PUSH1 0x0 PUSH1 0x40 MLOAD DUP1 DUP4 SUB DUP2 DUP7 DUP1 EXTCODESIZE ISZERO DUP1 ISZERO PUSH2 0x34A JUMPI PUSH1 0x0 DUP1 REVERT JUMPDEST POP GAS DELEGATECALL ISZERO DUP1 ISZERO PUSH2 0x35E JUMPI RETURNDATASIZE PUSH1 0x0 DUP1 RETURNDATACOPY RETURNDATASIZE PUSH1 0x0 REVERT JUMPDEST POP POP POP POP PUSH1 0x40 MLOAD RETURNDATASIZE PUSH1 0x0 DUP3 RETURNDATACOPY PUSH1 0x1F RETURNDATASIZE SWAP1 DUP2 ADD PUSH1 0x1F NOT AND DUP3 ADD PUSH1 0x40 MSTORE PUSH2 0x386 SWAP2 SWAP1 DUP2 ADD SWAP1 PUSH2 0x864 JUMP JUMPDEST PUSH1 0x1 PUSH1 0x1 PUSH1 0xA0 SHL SUB DUP5 AND PUSH1 0x0 SWAP1 DUP2 MSTORE PUSH1 0x1 PUSH1 0x20 DUP2 DUP2 MSTORE PUSH1 0x40 DUP4 KECCAK256 DUP1 SLOAD SWAP3 DUP4 ADD DUP2 SSTORE DUP4 MSTORE SWAP2 DUP3 SWAP1 KECCAK256 DUP4 MLOAD DUP1 MLOAD SWAP5 SWAP6 POP DUP6 SWAP5 PUSH1 0x5 SWAP1 SWAP4 MUL SWAP1 SWAP2 ADD SWAP3 PUSH2 0x3CE SWAP3 DUP5 SWAP3 SWAP1 SWAP2 ADD SWAP1 PUSH2 0x5E4 JUMP JUMPDEST POP PUSH1 0x20 DUP3 DUP2 ADD MLOAD PUSH1 0x1 DUP4 ADD DUP1 SLOAD PUSH1 0x1 PUSH1 0x1 PUSH1 0xA0 SHL SUB NOT AND PUSH1 0x1 PUSH1 0x1 PUSH1 0xA0 SHL SUB SWAP1 SWAP3 AND SWAP2 SWAP1 SWAP2 OR SWAP1 SSTORE PUSH1 0x40 DUP4 ADD MLOAD DUP1 MLOAD DUP1 MLOAD SWAP2 SWAP3 PUSH1 0x2 DUP6 ADD SWAP3 PUSH2 0x413 SWAP3 DUP5 SWAP3 ADD SWAP1 PUSH2 0x5E4 JUMP JUMPDEST POP POP POP PUSH1 0x60 DUP3 ADD MLOAD MLOAD PUSH1 0x3 DUP3 ADD SSTORE PUSH1 0x80 DUP3 ADD MLOAD PUSH1 0x4 SWAP1 SWAP2 ADD DUP1 SLOAD PUSH1 0xA0 SWAP1 SWAP4 ADD MLOAD ISZERO ISZERO PUSH2 0x100 MUL PUSH2 0xFF00 NOT SWAP3 ISZERO ISZERO PUSH1 0xFF NOT SWAP1 SWAP5 AND SWAP4 SWAP1 SWAP4 OR SWAP2 SWAP1 SWAP2 AND SWAP2 SWAP1 SWAP2 OR SWAP1 SSTORE POP POP PUSH1 0x2 DUP1 SLOAD PUSH4 0xFFFFFFFF DUP1 DUP3 AND PUSH1 0x1 ADD AND PUSH4 0xFFFFFFFF NOT SWAP1 SWAP2 AND OR SWAP1 SSTORE POP POP JUMP JUMPDEST PUSH1 0x0 DUP1 PUSH2 0x481 PUSH2 0x4ED JUMP JUMPDEST PUSH1 0x4 ADD SLOAD PUSH2 0x100 SWAP1 DIV PUSH1 0xFF AND SWAP3 SWAP2 POP POP JUMP JUMPDEST PUSH1 0x0 SLOAD PUSH1 0x1 PUSH1 0x1 PUSH1 0xA0 SHL SUB AND SWAP1 JUMP JUMPDEST PUSH1 0x0 SLOAD PUSH1 0x1 PUSH1 0x1 PUSH1 0xA0 SHL SUB AND CALLER EQ SWAP1 JUMP JUMPDEST PUSH2 0x4BB PUSH2 0x4A2 JUMP JUMPDEST PUSH2 0x4C4 JUMPI PUSH1 0x0 DUP1 REVERT JUMPDEST PUSH2 0x4CD DUP2 PUSH2 0x535 JUMP JUMPDEST POP JUMP JUMPDEST PUSH1 0x2 SLOAD PUSH4 0xFFFFFFFF PUSH5 0x100000000 DUP3 DIV DUP2 AND SWAP2 DUP2 AND SWAP2 SWAP1 SWAP2 SUB AND SWAP1 JUMP JUMPDEST CALLER PUSH1 0x0 SWAP1 DUP2 MSTORE PUSH1 0x1 PUSH1 0x20 MSTORE PUSH1 0x40 DUP2 KECCAK256 SLOAD PUSH2 0x506 JUMPI PUSH1 0x0 DUP1 REVERT JUMPDEST CALLER PUSH1 0x0 SWAP1 DUP2 MSTORE PUSH1 0x1 PUSH1 0x20 MSTORE PUSH1 0x40 DUP2 KECCAK256 DUP1 SLOAD SWAP1 SWAP2 DUP3 SWAP2 PUSH2 0x521 JUMPI INVALID JUMPDEST SWAP1 PUSH1 0x0 MSTORE PUSH1 0x20 PUSH1 0x0 KECCAK256 SWAP1 PUSH1 0x5 MUL ADD SWAP2 POP POP SWAP1 JUMP JUMPDEST PUSH1 0x1 PUSH1 0x1 PUSH1 0xA0 SHL SUB DUP2 AND PUSH2 0x548 JUMPI PUSH1 0x0 DUP1 REVERT JUMPDEST PUSH1 0x0 DUP1 SLOAD PUSH1 0x40 MLOAD PUSH1 0x1 PUSH1 0x1 PUSH1 0xA0 SHL SUB DUP1 DUP6 AND SWAP4 SWAP3 AND SWAP2 PUSH32 0x8BE0079C531659141344CD1FD0A4F28419497F9722A3DAAFE3B4186F6B6457E0 SWAP2 LOG3 PUSH1 0x0 DUP1 SLOAD PUSH1 0x1 PUSH1 0x1 PUSH1 0xA0 SHL SUB NOT AND PUSH1 0x1 PUSH1 0x1 PUSH1 0xA0 SHL SUB SWAP3 SWAP1 SWAP3 AND SWAP2 SWAP1 SWAP2 OR SWAP1 SSTORE JUMP JUMPDEST PUSH1 0x40 DUP1 MLOAD PUSH1 0xC0 DUP2 ADD DUP3 MSTORE PUSH1 0x60 DUP2 MSTORE PUSH1 0x0 PUSH1 0x20 DUP3 ADD MSTORE SWAP1 DUP2 ADD PUSH2 0x5C3 PUSH2 0x662 JUMP JUMPDEST DUP2 MSTORE PUSH1 0x20 ADD PUSH2 0x5D0 PUSH2 0x675 JUMP JUMPDEST DUP2 MSTORE PUSH1 0x0 PUSH1 0x20 DUP3 ADD DUP2 SWAP1 MSTORE PUSH1 0x40 SWAP1 SWAP2 ADD MSTORE SWAP1 JUMP JUMPDEST DUP3 DUP1 SLOAD PUSH1 0x1 DUP2 PUSH1 0x1 AND ISZERO PUSH2 0x100 MUL SUB AND PUSH1 0x2 SWAP1 DIV SWAP1 PUSH1 0x0 MSTORE PUSH1 0x20 PUSH1 0x0 KECCAK256 SWAP1 PUSH1 0x1F ADD PUSH1 0x20 SWAP1 DIV DUP2 ADD SWAP3 DUP3 PUSH1 0x1F LT PUSH2 0x625 JUMPI DUP1 MLOAD PUSH1 0xFF NOT AND DUP4 DUP1 ADD OR DUP6 SSTORE PUSH2 0x652 JUMP JUMPDEST DUP3 DUP1 ADD PUSH1 0x1 ADD DUP6 SSTORE DUP3 ISZERO PUSH2 0x652 JUMPI SWAP2 DUP3 ADD JUMPDEST DUP3 DUP2 GT ISZERO PUSH2 0x652 JUMPI DUP3 MLOAD DUP3 SSTORE SWAP2 PUSH1 0x20 ADD SWAP2 SWAP1 PUSH1 0x1 ADD SWAP1 PUSH2 0x637 JUMP JUMPDEST POP PUSH2 0x65E SWAP3 SWAP2 POP PUSH2 0x688 JUMP JUMPDEST POP SWAP1 JUMP JUMPDEST PUSH1 0x40 MLOAD DUP1 PUSH1 0x20 ADD PUSH1 0x40 MSTORE DUP1 PUSH1 0x60 DUP2 MSTORE POP SWAP1 JUMP JUMPDEST PUSH1 0x40 MLOAD DUP1 PUSH1 0x20 ADD PUSH1 0x40 MSTORE DUP1 PUSH1 0x0 DUP2 MSTORE POP SWAP1 JUMP JUMPDEST JUMPDEST DUP1 DUP3 GT ISZERO PUSH2 0x65E JUMPI PUSH1 0x0 DUP2 SSTORE PUSH1 0x1 ADD PUSH2 0x689 JUMP JUMPDEST DUP1 MLOAD PUSH2 0x6A8 DUP2 PUSH2 0xA47 JUMP JUMPDEST SWAP3 SWAP2 POP POP JUMP JUMPDEST DUP1 MLOAD DUP1 ISZERO ISZERO DUP2 EQ PUSH2 0x6A8 JUMPI PUSH1 0x0 DUP1 REVERT JUMPDEST PUSH1 0x0 DUP3 PUSH1 0x1F DUP4 ADD SLT PUSH2 0x6CE JUMPI DUP1 DUP2 REVERT JUMPDEST DUP2 CALLDATALOAD PUSH2 0x6E1 PUSH2 0x6DC DUP3 PUSH2 0x9F3 JUMP JUMPDEST PUSH2 0x9CC JUMP JUMPDEST SWAP2 POP DUP1 DUP3 MSTORE DUP4 PUSH1 0x20 DUP3 DUP6 ADD ADD GT ISZERO PUSH2 0x6F8 JUMPI PUSH1 0x0 DUP1 REVERT JUMPDEST DUP1 PUSH1 0x20 DUP5 ADD PUSH1 0x20 DUP5 ADD CALLDATACOPY PUSH1 0x0 SWAP1 DUP3 ADD PUSH1 0x20 ADD MSTORE SWAP3 SWAP2 POP POP JUMP JUMPDEST PUSH1 0x0 DUP3 PUSH1 0x1F DUP4 ADD SLT PUSH2 0x721 JUMPI DUP1 DUP2 REVERT JUMPDEST DUP2 MLOAD PUSH2 0x72F PUSH2 0x6DC DUP3 PUSH2 0x9F3 JUMP JUMPDEST SWAP2 POP DUP1 DUP3 MSTORE DUP4 PUSH1 0x20 DUP3 DUP6 ADD ADD GT ISZERO PUSH2 0x746 JUMPI PUSH1 0x0 DUP1 REVERT JUMPDEST PUSH2 0x757 DUP2 PUSH1 0x20 DUP5 ADD PUSH1 0x20 DUP7 ADD PUSH2 0xA17 JUMP JUMPDEST POP SWAP3 SWAP2 POP POP JUMP JUMPDEST PUSH1 0x0 PUSH1 0x20 DUP3 DUP5 SUB SLT ISZERO PUSH2 0x76F JUMPI DUP1 DUP2 REVERT JUMPDEST PUSH2 0x779 PUSH1 0x20 PUSH2 0x9CC JUMP JUMPDEST SWAP1 POP DUP2 MLOAD PUSH8 0xFFFFFFFFFFFFFFFF DUP2 GT ISZERO PUSH2 0x792 JUMPI PUSH1 0x0 DUP1 REVERT JUMPDEST PUSH2 0x79E DUP5 DUP3 DUP6 ADD PUSH2 0x711 JUMP JUMPDEST DUP3 MSTORE POP SWAP3 SWAP2 POP POP JUMP JUMPDEST PUSH1 0x0 PUSH1 0x20 DUP3 DUP5 SUB SLT ISZERO PUSH2 0x7B8 JUMPI DUP1 DUP2 REVERT JUMPDEST PUSH2 0x7C2 PUSH1 0x20 PUSH2 0x9CC JUMP JUMPDEST SWAP2 MLOAD DUP3 MSTORE POP SWAP2 SWAP1 POP JUMP JUMPDEST PUSH1 0x0 PUSH1 0x20 DUP3 DUP5 SUB SLT ISZERO PUSH2 0x7DD JUMPI DUP1 DUP2 REVERT JUMPDEST DUP2 CALLDATALOAD PUSH2 0x7E8 DUP2 PUSH2 0xA47 JUMP JUMPDEST SWAP4 SWAP3 POP POP POP JUMP JUMPDEST PUSH1 0x0 DUP1 PUSH1 0x0 PUSH1 0x60 DUP5 DUP7 SUB SLT ISZERO PUSH2 0x803 JUMPI DUP2 DUP3 REVERT JUMPDEST DUP4 CALLDATALOAD PUSH8 0xFFFFFFFFFFFFFFFF DUP1 DUP3 GT ISZERO PUSH2 0x81A JUMPI DUP4 DUP5 REVERT JUMPDEST PUSH2 0x826 DUP8 DUP4 DUP9 ADD PUSH2 0x6BE JUMP JUMPDEST SWAP5 POP PUSH1 0x20 DUP7 ADD CALLDATALOAD SWAP2 POP PUSH2 0x838 DUP3 PUSH2 0xA47 JUMP JUMPDEST SWAP1 SWAP3 POP PUSH1 0x40 DUP6 ADD CALLDATALOAD SWAP1 DUP1 DUP3 GT ISZERO PUSH2 0x84D JUMPI DUP3 DUP4 REVERT JUMPDEST POP PUSH2 0x85A DUP7 DUP3 DUP8 ADD PUSH2 0x6BE JUMP JUMPDEST SWAP2 POP POP SWAP3 POP SWAP3 POP SWAP3 JUMP JUMPDEST PUSH1 0x0 PUSH1 0x20 DUP3 DUP5 SUB SLT ISZERO PUSH2 0x875 JUMPI DUP1 DUP2 REVERT JUMPDEST DUP2 MLOAD PUSH8 0xFFFFFFFFFFFFFFFF DUP1 DUP3 GT ISZERO PUSH2 0x88C JUMPI DUP3 DUP4 REVERT JUMPDEST SWAP1 DUP4 ADD SWAP1 PUSH1 0xC0 DUP3 DUP7 SUB SLT ISZERO PUSH2 0x89F JUMPI DUP3 DUP4 REVERT JUMPDEST PUSH2 0x8A9 PUSH1 0xC0 PUSH2 0x9CC JUMP JUMPDEST DUP3 MLOAD DUP3 DUP2 GT ISZERO PUSH2 0x8B7 JUMPI DUP5 DUP6 REVERT JUMPDEST PUSH2 0x8C3 DUP8 DUP3 DUP7 ADD PUSH2 0x711 JUMP JUMPDEST DUP3 MSTORE POP PUSH2 0x8D3 DUP7 PUSH1 0x20 DUP6 ADD PUSH2 0x69D JUMP JUMPDEST PUSH1 0x20 DUP3 ADD MSTORE PUSH1 0x40 DUP4 ADD MLOAD DUP3 DUP2 GT ISZERO PUSH2 0x8E9 JUMPI DUP5 DUP6 REVERT JUMPDEST PUSH2 0x8F5 DUP8 DUP3 DUP7 ADD PUSH2 0x75E JUMP JUMPDEST PUSH1 0x40 DUP4 ADD MSTORE POP PUSH2 0x908 DUP7 PUSH1 0x60 DUP6 ADD PUSH2 0x7A7 JUMP JUMPDEST PUSH1 0x60 DUP3 ADD MSTORE PUSH2 0x91A DUP7 PUSH1 0x80 DUP6 ADD PUSH2 0x6AE JUMP JUMPDEST PUSH1 0x80 DUP3 ADD MSTORE PUSH2 0x92C DUP7 PUSH1 0xA0 DUP6 ADD PUSH2 0x6AE JUMP JUMPDEST PUSH1 0xA0 DUP3 ADD MSTORE SWAP6 SWAP5 POP POP POP POP POP JUMP JUMPDEST PUSH1 0x0 DUP2 MLOAD DUP1 DUP5 MSTORE PUSH2 0x952 DUP2 PUSH1 0x20 DUP7 ADD PUSH1 0x20 DUP7 ADD PUSH2 0xA17 JUMP JUMPDEST PUSH1 0x1F ADD PUSH1 0x1F NOT AND SWAP3 SWAP1 SWAP3 ADD PUSH1 0x20 ADD SWAP3 SWAP2 POP POP JUMP JUMPDEST PUSH1 0x1 PUSH1 0x1 PUSH1 0xA0 SHL SUB SWAP2 SWAP1 SWAP2 AND DUP2 MSTORE PUSH1 0x20 ADD SWAP1 JUMP JUMPDEST SWAP1 ISZERO ISZERO DUP2 MSTORE PUSH1 0x20 ADD SWAP1 JUMP JUMPDEST PUSH1 0x0 PUSH1 0x60 DUP3 MSTORE PUSH2 0x998 PUSH1 0x60 DUP4 ADD DUP7 PUSH2 0x93A JUMP JUMPDEST PUSH1 0x1 PUSH1 0x1 PUSH1 0xA0 SHL SUB DUP6 AND PUSH1 0x20 DUP5 ADD MSTORE DUP3 DUP2 SUB PUSH1 0x40 DUP5 ADD MSTORE PUSH2 0x9B9 DUP2 DUP6 PUSH2 0x93A JUMP JUMPDEST SWAP7 SWAP6 POP POP POP POP POP POP JUMP JUMPDEST SWAP1 DUP2 MSTORE PUSH1 0x20 ADD SWAP1 JUMP JUMPDEST PUSH1 0x40 MLOAD DUP2 DUP2 ADD PUSH8 0xFFFFFFFFFFFFFFFF DUP2 GT DUP3 DUP3 LT OR ISZERO PUSH2 0x9EB JUMPI PUSH1 0x0 DUP1 REVERT JUMPDEST PUSH1 0x40 MSTORE SWAP2 SWAP1 POP JUMP JUMPDEST PUSH1 0x0 PUSH8 0xFFFFFFFFFFFFFFFF DUP3 GT ISZERO PUSH2 0xA09 JUMPI DUP1 DUP2 REVERT JUMPDEST POP PUSH1 0x1F ADD PUSH1 0x1F NOT AND PUSH1 0x20 ADD SWAP1 JUMP JUMPDEST PUSH1 0x0 JUMPDEST DUP4 DUP2 LT ISZERO PUSH2 0xA32 JUMPI DUP2 DUP2 ADD MLOAD DUP4 DUP3 ADD MSTORE PUSH1 0x20 ADD PUSH2 0xA1A JUMP JUMPDEST DUP4 DUP2 GT ISZERO PUSH2 0xA41 JUMPI PUSH1 0x0 DUP5 DUP5 ADD MSTORE JUMPDEST POP POP POP POP JUMP JUMPDEST PUSH1 0x1 PUSH1 0x1 PUSH1 0xA0 SHL SUB DUP2 AND DUP2 EQ PUSH2 0x4CD JUMPI PUSH1 0x0 DUP1 REVERT INVALID LOG2 PUSH5 0x6970667358 0x22 SLT KECCAK256 SSTORE PUSH9 0xFD17E03922544E03D2 0xC7 PUSH15 0xC03A2F835C0CB8693C76F510979B76 0xE9 0x28 ISZERO PUSH14 0x64736F6C634300060C0033000000 ",
  "sha1": "7abf3995d2d664661710ff595d4fe8ad87715c4f",
  "source": "pragma solidity ^0.6.0;\npragma experimental ABIEncoderV2;\n\nimport \"./Ownable.sol\";\n\n// NFT type define \nlibrary NftLibs {\n    /*\n     *  Store a reference to an image, stored in IPFS, in an ethereum smart contract.\n     */\n    struct ImageInfo {\n        string ipfsInfo;\n    }\n\n    struct Price {\n        uint price;\n    }\n\n    struct NftInfo {\n        string nftName;\n        address nftProducer;\n        ImageInfo imageInfo;\n        Price price;\n        bool hasStarted;\n        bool publicEnabledShow;\n    }\n\n    modifier hasMandotaryFields(string memory _name, address _address, string memory _ipfsInfo) {\n        bytes memory tempEmptyNameStringTest = bytes(_name); \n        bytes memory tempEmptyImageStringTest = bytes(_ipfsInfo); \n\n        require(tempEmptyNameStringTest.length > 0 \n                && tempEmptyImageStringTest.length > 0\n                && _address != address(0));\n\n        _;\n    }\n\n    function createNftInfo(string memory _name, address _address, string memory _ipfsInfo) \n            public hasMandotaryFields(_name, _address, _ipfsInfo) \n            returns (NftInfo memory) {\n        NftInfo memory nftInfo = NftInfo(_name, _address, ImageInfo(_ipfsInfo), Price(0), false, false);\n        return nftInfo;\n    }\n}\n\ncontract NftCollection is Ownable {\n    /*\n     * Store all NFT for each address has.\n     * Stores the number of tokens each address has\n     */\n    mapping (address => NftLibs.NftInfo[]) AddressToNftInfos;\n\n    // Stores the maximum number of tokens that you wanna sell.\n    uint32 maxSupply = 0;\n\n    // Stores the remaining mints.\n    uint32 numberOfMints = 0;\n\n    uint gasPay = 0.000001 ether;\n\n    // Public functions\n    function createToken(string memory _name, address _address, string memory _ipfsInfo) public {\n        NftLibs.NftInfo memory nftInfo = NftLibs.createNftInfo(_name, _address, _ipfsInfo);\n        AddressToNftInfos[_address].push(nftInfo);\n        maxSupply ++;\n    }\n\n    function getMaxSupply() public view returns(uint) {\n        return maxSupply;\n    }\n\n    function getRemainingMints() public view returns(uint) {\n        return maxSupply - numberOfMints;\n    }\n\n    // Display status if sale has started.\n    function getSaleStarted() public view returns (bool) {\n        NftLibs.NftInfo storage nftInfo = getNftInfo();\n        return nftInfo.hasStarted;\n    }\n\n    // Once public enabled show it and enable mint button for all\n    function getOpenToPublic() public view returns (bool) {\n        NftLibs.NftInfo storage nftInfo = getNftInfo();\n        return nftInfo.publicEnabledShow;\n    }\n\n    // TODO: Implement function.\n    function getOnWhiteList(address) public pure returns (bool) {\n        return true;\n    }\n\n    function safeMint() external payable hasMinted {\n        // Check to make sure gasPay ether was sent to the function call:\n        require(msg.value >= gasPay);\n\n        // After get GAS could convert token to Non-Fungible token :)))\n        address payable _owner = address(uint160(owner()));\n        _owner.transfer(gasPay);\n\n        numberOfMints ++;\n    }\n\n    // Private functions\n    function getNftInfo() private view hasMinted returns(NftLibs.NftInfo storage) {\n        NftLibs.NftInfo[] storage nftInfos = AddressToNftInfos[msg.sender];\n\n        // TODO: Fix bellow.\n        return nftInfos[0];\n    }\n\n    modifier hasMinted() {\n        require(AddressToNftInfos[msg.sender].length > 0);\n        _;\n    } \n}",
  "sourcePath": "contracts/NftCollection.sol",
  "type": "contract"
}