{
  "abi": [
    {
      "anonymous": false,
      "inputs": [
        {
          "indexed": true,
          "internalType": "address",
          "name": "previousOwner",
          "type": "address"
        },
        {
          "indexed": true,
          "internalType": "address",
          "name": "newOwner",
          "type": "address"
        }
      ],
      "name": "OwnershipTransferred",
      "type": "event"
    },
    {
      "inputs": [
        {
          "internalType": "address",
          "name": "_address",
          "type": "address"
        }
      ],
      "name": "addToWhiteList",
      "outputs": [],
      "stateMutability": "nonpayable",
      "type": "function"
    },
    {
      "inputs": [
        {
          "internalType": "string",
          "name": "_name",
          "type": "string"
        },
        {
          "internalType": "address",
          "name": "_address",
          "type": "address"
        },
        {
          "internalType": "string",
          "name": "_ipfsInfo",
          "type": "string"
        }
      ],
      "name": "createToken",
      "outputs": [],
      "stateMutability": "nonpayable",
      "type": "function"
    },
    {
      "inputs": [],
      "name": "getMaxSupply",
      "outputs": [
        {
          "internalType": "uint256",
          "name": "",
          "type": "uint256"
        }
      ],
      "stateMutability": "view",
      "type": "function"
    },
    {
      "inputs": [],
      "name": "getOnWhiteList",
      "outputs": [
        {
          "internalType": "bool",
          "name": "",
          "type": "bool"
        }
      ],
      "stateMutability": "view",
      "type": "function"
    },
    {
      "inputs": [],
      "name": "getOpenToPublic",
      "outputs": [
        {
          "internalType": "bool",
          "name": "",
          "type": "bool"
        }
      ],
      "stateMutability": "view",
      "type": "function"
    },
    {
      "inputs": [],
      "name": "getRemainingMints",
      "outputs": [
        {
          "internalType": "uint256",
          "name": "",
          "type": "uint256"
        }
      ],
      "stateMutability": "view",
      "type": "function"
    },
    {
      "inputs": [],
      "name": "getSaleStarted",
      "outputs": [
        {
          "internalType": "bool",
          "name": "",
          "type": "bool"
        }
      ],
      "stateMutability": "view",
      "type": "function"
    },
    {
      "inputs": [],
      "name": "isOwner",
      "outputs": [
        {
          "internalType": "bool",
          "name": "",
          "type": "bool"
        }
      ],
      "stateMutability": "view",
      "type": "function"
    },
    {
      "inputs": [],
      "name": "owner",
      "outputs": [
        {
          "internalType": "address",
          "name": "",
          "type": "address"
        }
      ],
      "stateMutability": "view",
      "type": "function"
    },
    {
      "inputs": [],
      "name": "renounceOwnership",
      "outputs": [],
      "stateMutability": "nonpayable",
      "type": "function"
    },
    {
      "inputs": [],
      "name": "safeMint",
      "outputs": [],
      "stateMutability": "payable",
      "type": "function"
    },
    {
      "inputs": [],
      "name": "setClosedToPublic",
      "outputs": [
        {
          "internalType": "bool",
          "name": "",
          "type": "bool"
        }
      ],
      "stateMutability": "nonpayable",
      "type": "function"
    },
    {
      "inputs": [],
      "name": "setOpenToPublic",
      "outputs": [
        {
          "internalType": "bool",
          "name": "",
          "type": "bool"
        }
      ],
      "stateMutability": "nonpayable",
      "type": "function"
    },
    {
      "inputs": [
        {
          "internalType": "address",
          "name": "newOwner",
          "type": "address"
        }
      ],
      "name": "transferOwnership",
      "outputs": [],
      "stateMutability": "nonpayable",
      "type": "function"
    }
  ],
  "bytecode": "608060405260038054610100600160481b031916905564e8d4a5100060045534801561002a57600080fd5b50600080546001600160a01b03191633178082556040516001600160a01b039190911691907f8be0079c531659141344cd1fd0a4f28419497f9722a3daafe3b4186f6b6457e0908290a3610b8c806100836000396000f3fe6080604052600436106100dd5760003560e01c806377eb17b41161007f5780638f32d59b116100595780638f32d59b146101ef578063c987f40314610204578063f2fde38b14610219578063fd02c23914610239576100dd565b806377eb17b4146101985780638680d87e146101b85780638da5cb5b146101cd576100dd565b8063491100c5116100bb578063491100c5146101445780634c0f38c2146101595780636871ee401461017b578063715018a614610183576100dd565b80630b64251e146100e25780633a6be1151461010d57806347ee039414610122575b600080fd5b3480156100ee57600080fd5b506100f761024e565b6040516101049190610a74565b60405180910390f35b34801561011957600080fd5b506100f7610266565b34801561012e57600080fd5b5061014261013d3660046108d8565b610289565b005b34801561015057600080fd5b506100f76102be565b34801561016557600080fd5b5061016e6102de565b6040516101049190610abd565b6101426102ef565b34801561018f57600080fd5b506101426103ad565b3480156101a457600080fd5b506101426101b33660046108fb565b610408565b3480156101c457600080fd5b506100f7610581565b3480156101d957600080fd5b506101e261058a565b6040516101049190610a60565b3480156101fb57600080fd5b506100f7610599565b34801561021057600080fd5b506100f76105aa565b34801561022557600080fd5b506101426102343660046108d8565b6105c0565b34801561024557600080fd5b5061016e6105dd565b600080610259610600565b6004015460ff1691505090565b6000610270610599565b61027957600080fd5b6003805460ff1916600117905590565b610291610599565b61029a57600080fd5b6001600160a01b03166000908152600260205260409020805460ff19166001179055565b60006102c8610599565b6102d157600080fd5b6003805460ff1916905590565b600354610100900463ffffffff1690565b3360009081526001602052604090205461030857600080fd5b6103106105aa565b8061031e575061031e610581565b61032757600080fd5b60045434101561033657600080fd5b600061034061058a565b6004546040519192506001600160a01b0383169181156108fc0291906000818181858888f1935050505015801561037b573d6000803e3d6000fd5b505060038054600163ffffffff65010000000000808404821692909201160268ffffffff000000000019909116179055565b6103b5610599565b6103be57600080fd5b600080546040516001600160a01b03909116907f8be0079c531659141344cd1fd0a4f28419497f9722a3daafe3b4186f6b6457e0908390a3600080546001600160a01b0319169055565b6104106106b6565b604051620cf04560e51b815273__NftLibs_______________________________9063019e08a09061044a90879087908790600401610a7f565b60006040518083038186803b15801561046257600080fd5b505af4158015610476573d6000803e3d6000fd5b505050506040513d6000823e601f3d908101601f1916820160405261049e9190810190610970565b6001600160a01b03841660009081526001602081815260408320805492830181558352918290208351805194955085946005909302909101926104e6928492909101906106f0565b506020828101516001830180546001600160a01b0319166001600160a01b039092169190911790556040830151805180519192600285019261052b92849201906106f0565b5050506060820151516003828101919091556080909201516004909101805460ff1916911515919091179055805464ffffffff001981166101009182900463ffffffff9081166001011690910217905550505050565b60035460ff1690565b6000546001600160a01b031690565b6000546001600160a01b0316331490565b3360009081526002602052604090205460ff1690565b6105c8610599565b6105d157600080fd5b6105da81610648565b50565b60035463ffffffff65010000000000820481166101009092048116919091031690565b3360009081526001602052604081205461061957600080fd5b33600090815260016020526040812080549091829161063457fe5b906000526020600020906005020191505090565b6001600160a01b03811661065b57600080fd5b600080546040516001600160a01b03808516939216917f8be0079c531659141344cd1fd0a4f28419497f9722a3daafe3b4186f6b6457e091a3600080546001600160a01b0319166001600160a01b0392909216919091179055565b6040805160a08101825260608152600060208201529081016106d661076e565b81526020016106e3610781565b8152600060209091015290565b828054600181600116156101000203166002900490600052602060002090601f016020900481019282601f1061073157805160ff191683800117855561075e565b8280016001018555821561075e579182015b8281111561075e578251825591602001919060010190610743565b5061076a929150610794565b5090565b6040518060200160405280606081525090565b6040518060200160405280600081525090565b5b8082111561076a5760008155600101610795565b80516107b481610b41565b92915050565b805180151581146107b457600080fd5b600082601f8301126107da578081fd5b81356107ed6107e882610aed565b610ac6565b915080825283602082850101111561080457600080fd5b8060208401602084013760009082016020015292915050565b600082601f83011261082d578081fd5b815161083b6107e882610aed565b915080825283602082850101111561085257600080fd5b610863816020840160208601610b11565b5092915050565b60006020828403121561087b578081fd5b6108856020610ac6565b9050815167ffffffffffffffff81111561089e57600080fd5b6108aa8482850161081d565b82525092915050565b6000602082840312156108c4578081fd5b6108ce6020610ac6565b9151825250919050565b6000602082840312156108e9578081fd5b81356108f481610b41565b9392505050565b60008060006060848603121561090f578182fd5b833567ffffffffffffffff80821115610926578384fd5b610932878388016107ca565b94506020860135915061094482610b41565b90925060408501359080821115610959578283fd5b50610966868287016107ca565b9150509250925092565b600060208284031215610981578081fd5b815167ffffffffffffffff80821115610998578283fd5b9083019060a082860312156109ab578283fd5b6109b560a0610ac6565b8251828111156109c3578485fd5b6109cf8782860161081d565b8252506109df86602085016107a9565b60208201526040830151828111156109f5578485fd5b610a018782860161086a565b604083015250610a1486606085016108b3565b6060820152610a2686608085016107ba565b608082015295945050505050565b60008151808452610a4c816020860160208601610b11565b601f01601f19169290920160200192915050565b6001600160a01b0391909116815260200190565b901515815260200190565b600060608252610a926060830186610a34565b6001600160a01b03851660208401528281036040840152610ab38185610a34565b9695505050505050565b90815260200190565b60405181810167ffffffffffffffff81118282101715610ae557600080fd5b604052919050565b600067ffffffffffffffff821115610b03578081fd5b50601f01601f191660200190565b60005b83811015610b2c578181015183820152602001610b14565b83811115610b3b576000848401525b50505050565b6001600160a01b03811681146105da57600080fdfea2646970667358221220a7cd1c47be9cb123d9e1b48c7a3fb9b32046ec423b243b484e129c8e1626baad64736f6c634300060c0033",
  "bytecodeSha1": "4c6ac9e101d56883c4ccf41726324b7f5a00db70",
  "compiler": {
    "evm_version": "istanbul",
    "optimizer": {
      "enabled": true,
      "runs": 200
    },
    "version": "0.6.12+commit.27d51765"
  },
  "contractName": "NftCollection",
  "deployedBytecode": "6080604052600436106100dd5760003560e01c806377eb17b41161007f5780638f32d59b116100595780638f32d59b146101ef578063c987f40314610204578063f2fde38b14610219578063fd02c23914610239576100dd565b806377eb17b4146101985780638680d87e146101b85780638da5cb5b146101cd576100dd565b8063491100c5116100bb578063491100c5146101445780634c0f38c2146101595780636871ee401461017b578063715018a614610183576100dd565b80630b64251e146100e25780633a6be1151461010d57806347ee039414610122575b600080fd5b3480156100ee57600080fd5b506100f761024e565b6040516101049190610a74565b60405180910390f35b34801561011957600080fd5b506100f7610266565b34801561012e57600080fd5b5061014261013d3660046108d8565b610289565b005b34801561015057600080fd5b506100f76102be565b34801561016557600080fd5b5061016e6102de565b6040516101049190610abd565b6101426102ef565b34801561018f57600080fd5b506101426103ad565b3480156101a457600080fd5b506101426101b33660046108fb565b610408565b3480156101c457600080fd5b506100f7610581565b3480156101d957600080fd5b506101e261058a565b6040516101049190610a60565b3480156101fb57600080fd5b506100f7610599565b34801561021057600080fd5b506100f76105aa565b34801561022557600080fd5b506101426102343660046108d8565b6105c0565b34801561024557600080fd5b5061016e6105dd565b600080610259610600565b6004015460ff1691505090565b6000610270610599565b61027957600080fd5b6003805460ff1916600117905590565b610291610599565b61029a57600080fd5b6001600160a01b03166000908152600260205260409020805460ff19166001179055565b60006102c8610599565b6102d157600080fd5b6003805460ff1916905590565b600354610100900463ffffffff1690565b3360009081526001602052604090205461030857600080fd5b6103106105aa565b8061031e575061031e610581565b61032757600080fd5b60045434101561033657600080fd5b600061034061058a565b6004546040519192506001600160a01b0383169181156108fc0291906000818181858888f1935050505015801561037b573d6000803e3d6000fd5b505060038054600163ffffffff65010000000000808404821692909201160268ffffffff000000000019909116179055565b6103b5610599565b6103be57600080fd5b600080546040516001600160a01b03909116907f8be0079c531659141344cd1fd0a4f28419497f9722a3daafe3b4186f6b6457e0908390a3600080546001600160a01b0319169055565b6104106106b6565b604051620cf04560e51b815273__$67ab562366c52fcbcaecae584739bc0d72$__9063019e08a09061044a90879087908790600401610a7f565b60006040518083038186803b15801561046257600080fd5b505af4158015610476573d6000803e3d6000fd5b505050506040513d6000823e601f3d908101601f1916820160405261049e9190810190610970565b6001600160a01b03841660009081526001602081815260408320805492830181558352918290208351805194955085946005909302909101926104e6928492909101906106f0565b506020828101516001830180546001600160a01b0319166001600160a01b039092169190911790556040830151805180519192600285019261052b92849201906106f0565b5050506060820151516003828101919091556080909201516004909101805460ff1916911515919091179055805464ffffffff001981166101009182900463ffffffff9081166001011690910217905550505050565b60035460ff1690565b6000546001600160a01b031690565b6000546001600160a01b0316331490565b3360009081526002602052604090205460ff1690565b6105c8610599565b6105d157600080fd5b6105da81610648565b50565b60035463ffffffff65010000000000820481166101009092048116919091031690565b3360009081526001602052604081205461061957600080fd5b33600090815260016020526040812080549091829161063457fe5b906000526020600020906005020191505090565b6001600160a01b03811661065b57600080fd5b600080546040516001600160a01b03808516939216917f8be0079c531659141344cd1fd0a4f28419497f9722a3daafe3b4186f6b6457e091a3600080546001600160a01b0319166001600160a01b0392909216919091179055565b6040805160a08101825260608152600060208201529081016106d661076e565b81526020016106e3610781565b8152600060209091015290565b828054600181600116156101000203166002900490600052602060002090601f016020900481019282601f1061073157805160ff191683800117855561075e565b8280016001018555821561075e579182015b8281111561075e578251825591602001919060010190610743565b5061076a929150610794565b5090565b6040518060200160405280606081525090565b6040518060200160405280600081525090565b5b8082111561076a5760008155600101610795565b80516107b481610b41565b92915050565b805180151581146107b457600080fd5b600082601f8301126107da578081fd5b81356107ed6107e882610aed565b610ac6565b915080825283602082850101111561080457600080fd5b8060208401602084013760009082016020015292915050565b600082601f83011261082d578081fd5b815161083b6107e882610aed565b915080825283602082850101111561085257600080fd5b610863816020840160208601610b11565b5092915050565b60006020828403121561087b578081fd5b6108856020610ac6565b9050815167ffffffffffffffff81111561089e57600080fd5b6108aa8482850161081d565b82525092915050565b6000602082840312156108c4578081fd5b6108ce6020610ac6565b9151825250919050565b6000602082840312156108e9578081fd5b81356108f481610b41565b9392505050565b60008060006060848603121561090f578182fd5b833567ffffffffffffffff80821115610926578384fd5b610932878388016107ca565b94506020860135915061094482610b41565b90925060408501359080821115610959578283fd5b50610966868287016107ca565b9150509250925092565b600060208284031215610981578081fd5b815167ffffffffffffffff80821115610998578283fd5b9083019060a082860312156109ab578283fd5b6109b560a0610ac6565b8251828111156109c3578485fd5b6109cf8782860161081d565b8252506109df86602085016107a9565b60208201526040830151828111156109f5578485fd5b610a018782860161086a565b604083015250610a1486606085016108b3565b6060820152610a2686608085016107ba565b608082015295945050505050565b60008151808452610a4c816020860160208601610b11565b601f01601f19169290920160200192915050565b6001600160a01b0391909116815260200190565b901515815260200190565b600060608252610a926060830186610a34565b6001600160a01b03851660208401528281036040840152610ab38185610a34565b9695505050505050565b90815260200190565b60405181810167ffffffffffffffff81118282101715610ae557600080fd5b604052919050565b600067ffffffffffffffff821115610b03578081fd5b50601f01601f191660200190565b60005b83811015610b2c578181015183820152602001610b14565b83811115610b3b576000848401525b50505050565b6001600160a01b03811681146105da57600080fdfea2646970667358221220a7cd1c47be9cb123d9e1b48c7a3fb9b32046ec423b243b484e129c8e1626baad64736f6c634300060c0033",
  "language": "Solidity",
  "natspec": {
    "kind": "dev",
    "methods": {
      "isOwner()": {
        "returns": {
          "_0": "true if `msg.sender` is the owner of the contract."
        }
      },
      "owner()": {
        "returns": {
          "_0": "the address of the owner."
        }
      },
      "renounceOwnership()": {
        "details": "Allows the current owner to relinquish control of the contract.",
        "notice": "Renouncing to ownership will leave the contract without an owner. It will not be possible to call the functions with the `onlyOwner` modifier anymore."
      },
      "transferOwnership(address)": {
        "details": "Allows the current owner to transfer control of the contract to a newOwner.",
        "params": {
          "newOwner": "The address to transfer ownership to."
        }
      }
    },
    "version": 1
  },
  "opcodes": "PUSH1 0x80 PUSH1 0x40 MSTORE PUSH1 0x4 CALLDATASIZE LT PUSH2 0xDD JUMPI PUSH1 0x0 CALLDATALOAD PUSH1 0xE0 SHR DUP1 PUSH4 0x77EB17B4 GT PUSH2 0x7F JUMPI DUP1 PUSH4 0x8F32D59B GT PUSH2 0x59 JUMPI DUP1 PUSH4 0x8F32D59B EQ PUSH2 0x1EF JUMPI DUP1 PUSH4 0xC987F403 EQ PUSH2 0x204 JUMPI DUP1 PUSH4 0xF2FDE38B EQ PUSH2 0x219 JUMPI DUP1 PUSH4 0xFD02C239 EQ PUSH2 0x239 JUMPI PUSH2 0xDD JUMP JUMPDEST DUP1 PUSH4 0x77EB17B4 EQ PUSH2 0x198 JUMPI DUP1 PUSH4 0x8680D87E EQ PUSH2 0x1B8 JUMPI DUP1 PUSH4 0x8DA5CB5B EQ PUSH2 0x1CD JUMPI PUSH2 0xDD JUMP JUMPDEST DUP1 PUSH4 0x491100C5 GT PUSH2 0xBB JUMPI DUP1 PUSH4 0x491100C5 EQ PUSH2 0x144 JUMPI DUP1 PUSH4 0x4C0F38C2 EQ PUSH2 0x159 JUMPI DUP1 PUSH4 0x6871EE40 EQ PUSH2 0x17B JUMPI DUP1 PUSH4 0x715018A6 EQ PUSH2 0x183 JUMPI PUSH2 0xDD JUMP JUMPDEST DUP1 PUSH4 0xB64251E EQ PUSH2 0xE2 JUMPI DUP1 PUSH4 0x3A6BE115 EQ PUSH2 0x10D JUMPI DUP1 PUSH4 0x47EE0394 EQ PUSH2 0x122 JUMPI JUMPDEST PUSH1 0x0 DUP1 REVERT JUMPDEST CALLVALUE DUP1 ISZERO PUSH2 0xEE JUMPI PUSH1 0x0 DUP1 REVERT JUMPDEST POP PUSH2 0xF7 PUSH2 0x24E JUMP JUMPDEST PUSH1 0x40 MLOAD PUSH2 0x104 SWAP2 SWAP1 PUSH2 0xA74 JUMP JUMPDEST PUSH1 0x40 MLOAD DUP1 SWAP2 SUB SWAP1 RETURN JUMPDEST CALLVALUE DUP1 ISZERO PUSH2 0x119 JUMPI PUSH1 0x0 DUP1 REVERT JUMPDEST POP PUSH2 0xF7 PUSH2 0x266 JUMP JUMPDEST CALLVALUE DUP1 ISZERO PUSH2 0x12E JUMPI PUSH1 0x0 DUP1 REVERT JUMPDEST POP PUSH2 0x142 PUSH2 0x13D CALLDATASIZE PUSH1 0x4 PUSH2 0x8D8 JUMP JUMPDEST PUSH2 0x289 JUMP JUMPDEST STOP JUMPDEST CALLVALUE DUP1 ISZERO PUSH2 0x150 JUMPI PUSH1 0x0 DUP1 REVERT JUMPDEST POP PUSH2 0xF7 PUSH2 0x2BE JUMP JUMPDEST CALLVALUE DUP1 ISZERO PUSH2 0x165 JUMPI PUSH1 0x0 DUP1 REVERT JUMPDEST POP PUSH2 0x16E PUSH2 0x2DE JUMP JUMPDEST PUSH1 0x40 MLOAD PUSH2 0x104 SWAP2 SWAP1 PUSH2 0xABD JUMP JUMPDEST PUSH2 0x142 PUSH2 0x2EF JUMP JUMPDEST CALLVALUE DUP1 ISZERO PUSH2 0x18F JUMPI PUSH1 0x0 DUP1 REVERT JUMPDEST POP PUSH2 0x142 PUSH2 0x3AD JUMP JUMPDEST CALLVALUE DUP1 ISZERO PUSH2 0x1A4 JUMPI PUSH1 0x0 DUP1 REVERT JUMPDEST POP PUSH2 0x142 PUSH2 0x1B3 CALLDATASIZE PUSH1 0x4 PUSH2 0x8FB JUMP JUMPDEST PUSH2 0x408 JUMP JUMPDEST CALLVALUE DUP1 ISZERO PUSH2 0x1C4 JUMPI PUSH1 0x0 DUP1 REVERT JUMPDEST POP PUSH2 0xF7 PUSH2 0x581 JUMP JUMPDEST CALLVALUE DUP1 ISZERO PUSH2 0x1D9 JUMPI PUSH1 0x0 DUP1 REVERT JUMPDEST POP PUSH2 0x1E2 PUSH2 0x58A JUMP JUMPDEST PUSH1 0x40 MLOAD PUSH2 0x104 SWAP2 SWAP1 PUSH2 0xA60 JUMP JUMPDEST CALLVALUE DUP1 ISZERO PUSH2 0x1FB JUMPI PUSH1 0x0 DUP1 REVERT JUMPDEST POP PUSH2 0xF7 PUSH2 0x599 JUMP JUMPDEST CALLVALUE DUP1 ISZERO PUSH2 0x210 JUMPI PUSH1 0x0 DUP1 REVERT JUMPDEST POP PUSH2 0xF7 PUSH2 0x5AA JUMP JUMPDEST CALLVALUE DUP1 ISZERO PUSH2 0x225 JUMPI PUSH1 0x0 DUP1 REVERT JUMPDEST POP PUSH2 0x142 PUSH2 0x234 CALLDATASIZE PUSH1 0x4 PUSH2 0x8D8 JUMP JUMPDEST PUSH2 0x5C0 JUMP JUMPDEST CALLVALUE DUP1 ISZERO PUSH2 0x245 JUMPI PUSH1 0x0 DUP1 REVERT JUMPDEST POP PUSH2 0x16E PUSH2 0x5DD JUMP JUMPDEST PUSH1 0x0 DUP1 PUSH2 0x259 PUSH2 0x600 JUMP JUMPDEST PUSH1 0x4 ADD SLOAD PUSH1 0xFF AND SWAP2 POP POP SWAP1 JUMP JUMPDEST PUSH1 0x0 PUSH2 0x270 PUSH2 0x599 JUMP JUMPDEST PUSH2 0x279 JUMPI PUSH1 0x0 DUP1 REVERT JUMPDEST PUSH1 0x3 DUP1 SLOAD PUSH1 0xFF NOT AND PUSH1 0x1 OR SWAP1 SSTORE SWAP1 JUMP JUMPDEST PUSH2 0x291 PUSH2 0x599 JUMP JUMPDEST PUSH2 0x29A JUMPI PUSH1 0x0 DUP1 REVERT JUMPDEST PUSH1 0x1 PUSH1 0x1 PUSH1 0xA0 SHL SUB AND PUSH1 0x0 SWAP1 DUP2 MSTORE PUSH1 0x2 PUSH1 0x20 MSTORE PUSH1 0x40 SWAP1 KECCAK256 DUP1 SLOAD PUSH1 0xFF NOT AND PUSH1 0x1 OR SWAP1 SSTORE JUMP JUMPDEST PUSH1 0x0 PUSH2 0x2C8 PUSH2 0x599 JUMP JUMPDEST PUSH2 0x2D1 JUMPI PUSH1 0x0 DUP1 REVERT JUMPDEST PUSH1 0x3 DUP1 SLOAD PUSH1 0xFF NOT AND SWAP1 SSTORE SWAP1 JUMP JUMPDEST PUSH1 0x3 SLOAD PUSH2 0x100 SWAP1 DIV PUSH4 0xFFFFFFFF AND SWAP1 JUMP JUMPDEST CALLER PUSH1 0x0 SWAP1 DUP2 MSTORE PUSH1 0x1 PUSH1 0x20 MSTORE PUSH1 0x40 SWAP1 KECCAK256 SLOAD PUSH2 0x308 JUMPI PUSH1 0x0 DUP1 REVERT JUMPDEST PUSH2 0x310 PUSH2 0x5AA JUMP JUMPDEST DUP1 PUSH2 0x31E JUMPI POP PUSH2 0x31E PUSH2 0x581 JUMP JUMPDEST PUSH2 0x327 JUMPI PUSH1 0x0 DUP1 REVERT JUMPDEST PUSH1 0x4 SLOAD CALLVALUE LT ISZERO PUSH2 0x336 JUMPI PUSH1 0x0 DUP1 REVERT JUMPDEST PUSH1 0x0 PUSH2 0x340 PUSH2 0x58A JUMP JUMPDEST PUSH1 0x4 SLOAD PUSH1 0x40 MLOAD SWAP2 SWAP3 POP PUSH1 0x1 PUSH1 0x1 PUSH1 0xA0 SHL SUB DUP4 AND SWAP2 DUP2 ISZERO PUSH2 0x8FC MUL SWAP2 SWAP1 PUSH1 0x0 DUP2 DUP2 DUP2 DUP6 DUP9 DUP9 CALL SWAP4 POP POP POP POP ISZERO DUP1 ISZERO PUSH2 0x37B JUMPI RETURNDATASIZE PUSH1 0x0 DUP1 RETURNDATACOPY RETURNDATASIZE PUSH1 0x0 REVERT JUMPDEST POP POP PUSH1 0x3 DUP1 SLOAD PUSH1 0x1 PUSH4 0xFFFFFFFF PUSH6 0x10000000000 DUP1 DUP5 DIV DUP3 AND SWAP3 SWAP1 SWAP3 ADD AND MUL PUSH9 0xFFFFFFFF0000000000 NOT SWAP1 SWAP2 AND OR SWAP1 SSTORE JUMP JUMPDEST PUSH2 0x3B5 PUSH2 0x599 JUMP JUMPDEST PUSH2 0x3BE JUMPI PUSH1 0x0 DUP1 REVERT JUMPDEST PUSH1 0x0 DUP1 SLOAD PUSH1 0x40 MLOAD PUSH1 0x1 PUSH1 0x1 PUSH1 0xA0 SHL SUB SWAP1 SWAP2 AND SWAP1 PUSH32 0x8BE0079C531659141344CD1FD0A4F28419497F9722A3DAAFE3B4186F6B6457E0 SWAP1 DUP4 SWAP1 LOG3 PUSH1 0x0 DUP1 SLOAD PUSH1 0x1 PUSH1 0x1 PUSH1 0xA0 SHL SUB NOT AND SWAP1 SSTORE JUMP JUMPDEST PUSH2 0x410 PUSH2 0x6B6 JUMP JUMPDEST PUSH1 0x40 MLOAD PUSH3 0xCF045 PUSH1 0xE5 SHL DUP2 MSTORE PUSH20 0x0 SWAP1 PUSH4 0x19E08A0 SWAP1 PUSH2 0x44A SWAP1 DUP8 SWAP1 DUP8 SWAP1 DUP8 SWAP1 PUSH1 0x4 ADD PUSH2 0xA7F JUMP JUMPDEST PUSH1 0x0 PUSH1 0x40 MLOAD DUP1 DUP4 SUB DUP2 DUP7 DUP1 EXTCODESIZE ISZERO DUP1 ISZERO PUSH2 0x462 JUMPI PUSH1 0x0 DUP1 REVERT JUMPDEST POP GAS DELEGATECALL ISZERO DUP1 ISZERO PUSH2 0x476 JUMPI RETURNDATASIZE PUSH1 0x0 DUP1 RETURNDATACOPY RETURNDATASIZE PUSH1 0x0 REVERT JUMPDEST POP POP POP POP PUSH1 0x40 MLOAD RETURNDATASIZE PUSH1 0x0 DUP3 RETURNDATACOPY PUSH1 0x1F RETURNDATASIZE SWAP1 DUP2 ADD PUSH1 0x1F NOT AND DUP3 ADD PUSH1 0x40 MSTORE PUSH2 0x49E SWAP2 SWAP1 DUP2 ADD SWAP1 PUSH2 0x970 JUMP JUMPDEST PUSH1 0x1 PUSH1 0x1 PUSH1 0xA0 SHL SUB DUP5 AND PUSH1 0x0 SWAP1 DUP2 MSTORE PUSH1 0x1 PUSH1 0x20 DUP2 DUP2 MSTORE PUSH1 0x40 DUP4 KECCAK256 DUP1 SLOAD SWAP3 DUP4 ADD DUP2 SSTORE DUP4 MSTORE SWAP2 DUP3 SWAP1 KECCAK256 DUP4 MLOAD DUP1 MLOAD SWAP5 SWAP6 POP DUP6 SWAP5 PUSH1 0x5 SWAP1 SWAP4 MUL SWAP1 SWAP2 ADD SWAP3 PUSH2 0x4E6 SWAP3 DUP5 SWAP3 SWAP1 SWAP2 ADD SWAP1 PUSH2 0x6F0 JUMP JUMPDEST POP PUSH1 0x20 DUP3 DUP2 ADD MLOAD PUSH1 0x1 DUP4 ADD DUP1 SLOAD PUSH1 0x1 PUSH1 0x1 PUSH1 0xA0 SHL SUB NOT AND PUSH1 0x1 PUSH1 0x1 PUSH1 0xA0 SHL SUB SWAP1 SWAP3 AND SWAP2 SWAP1 SWAP2 OR SWAP1 SSTORE PUSH1 0x40 DUP4 ADD MLOAD DUP1 MLOAD DUP1 MLOAD SWAP2 SWAP3 PUSH1 0x2 DUP6 ADD SWAP3 PUSH2 0x52B SWAP3 DUP5 SWAP3 ADD SWAP1 PUSH2 0x6F0 JUMP JUMPDEST POP POP POP PUSH1 0x60 DUP3 ADD MLOAD MLOAD PUSH1 0x3 DUP3 DUP2 ADD SWAP2 SWAP1 SWAP2 SSTORE PUSH1 0x80 SWAP1 SWAP3 ADD MLOAD PUSH1 0x4 SWAP1 SWAP2 ADD DUP1 SLOAD PUSH1 0xFF NOT AND SWAP2 ISZERO ISZERO SWAP2 SWAP1 SWAP2 OR SWAP1 SSTORE DUP1 SLOAD PUSH5 0xFFFFFFFF00 NOT DUP2 AND PUSH2 0x100 SWAP2 DUP3 SWAP1 DIV PUSH4 0xFFFFFFFF SWAP1 DUP2 AND PUSH1 0x1 ADD AND SWAP1 SWAP2 MUL OR SWAP1 SSTORE POP POP POP POP JUMP JUMPDEST PUSH1 0x3 SLOAD PUSH1 0xFF AND SWAP1 JUMP JUMPDEST PUSH1 0x0 SLOAD PUSH1 0x1 PUSH1 0x1 PUSH1 0xA0 SHL SUB AND SWAP1 JUMP JUMPDEST PUSH1 0x0 SLOAD PUSH1 0x1 PUSH1 0x1 PUSH1 0xA0 SHL SUB AND CALLER EQ SWAP1 JUMP JUMPDEST CALLER PUSH1 0x0 SWAP1 DUP2 MSTORE PUSH1 0x2 PUSH1 0x20 MSTORE PUSH1 0x40 SWAP1 KECCAK256 SLOAD PUSH1 0xFF AND SWAP1 JUMP JUMPDEST PUSH2 0x5C8 PUSH2 0x599 JUMP JUMPDEST PUSH2 0x5D1 JUMPI PUSH1 0x0 DUP1 REVERT JUMPDEST PUSH2 0x5DA DUP2 PUSH2 0x648 JUMP JUMPDEST POP JUMP JUMPDEST PUSH1 0x3 SLOAD PUSH4 0xFFFFFFFF PUSH6 0x10000000000 DUP3 DIV DUP2 AND PUSH2 0x100 SWAP1 SWAP3 DIV DUP2 AND SWAP2 SWAP1 SWAP2 SUB AND SWAP1 JUMP JUMPDEST CALLER PUSH1 0x0 SWAP1 DUP2 MSTORE PUSH1 0x1 PUSH1 0x20 MSTORE PUSH1 0x40 DUP2 KECCAK256 SLOAD PUSH2 0x619 JUMPI PUSH1 0x0 DUP1 REVERT JUMPDEST CALLER PUSH1 0x0 SWAP1 DUP2 MSTORE PUSH1 0x1 PUSH1 0x20 MSTORE PUSH1 0x40 DUP2 KECCAK256 DUP1 SLOAD SWAP1 SWAP2 DUP3 SWAP2 PUSH2 0x634 JUMPI INVALID JUMPDEST SWAP1 PUSH1 0x0 MSTORE PUSH1 0x20 PUSH1 0x0 KECCAK256 SWAP1 PUSH1 0x5 MUL ADD SWAP2 POP POP SWAP1 JUMP JUMPDEST PUSH1 0x1 PUSH1 0x1 PUSH1 0xA0 SHL SUB DUP2 AND PUSH2 0x65B JUMPI PUSH1 0x0 DUP1 REVERT JUMPDEST PUSH1 0x0 DUP1 SLOAD PUSH1 0x40 MLOAD PUSH1 0x1 PUSH1 0x1 PUSH1 0xA0 SHL SUB DUP1 DUP6 AND SWAP4 SWAP3 AND SWAP2 PUSH32 0x8BE0079C531659141344CD1FD0A4F28419497F9722A3DAAFE3B4186F6B6457E0 SWAP2 LOG3 PUSH1 0x0 DUP1 SLOAD PUSH1 0x1 PUSH1 0x1 PUSH1 0xA0 SHL SUB NOT AND PUSH1 0x1 PUSH1 0x1 PUSH1 0xA0 SHL SUB SWAP3 SWAP1 SWAP3 AND SWAP2 SWAP1 SWAP2 OR SWAP1 SSTORE JUMP JUMPDEST PUSH1 0x40 DUP1 MLOAD PUSH1 0xA0 DUP2 ADD DUP3 MSTORE PUSH1 0x60 DUP2 MSTORE PUSH1 0x0 PUSH1 0x20 DUP3 ADD MSTORE SWAP1 DUP2 ADD PUSH2 0x6D6 PUSH2 0x76E JUMP JUMPDEST DUP2 MSTORE PUSH1 0x20 ADD PUSH2 0x6E3 PUSH2 0x781 JUMP JUMPDEST DUP2 MSTORE PUSH1 0x0 PUSH1 0x20 SWAP1 SWAP2 ADD MSTORE SWAP1 JUMP JUMPDEST DUP3 DUP1 SLOAD PUSH1 0x1 DUP2 PUSH1 0x1 AND ISZERO PUSH2 0x100 MUL SUB AND PUSH1 0x2 SWAP1 DIV SWAP1 PUSH1 0x0 MSTORE PUSH1 0x20 PUSH1 0x0 KECCAK256 SWAP1 PUSH1 0x1F ADD PUSH1 0x20 SWAP1 DIV DUP2 ADD SWAP3 DUP3 PUSH1 0x1F LT PUSH2 0x731 JUMPI DUP1 MLOAD PUSH1 0xFF NOT AND DUP4 DUP1 ADD OR DUP6 SSTORE PUSH2 0x75E JUMP JUMPDEST DUP3 DUP1 ADD PUSH1 0x1 ADD DUP6 SSTORE DUP3 ISZERO PUSH2 0x75E JUMPI SWAP2 DUP3 ADD JUMPDEST DUP3 DUP2 GT ISZERO PUSH2 0x75E JUMPI DUP3 MLOAD DUP3 SSTORE SWAP2 PUSH1 0x20 ADD SWAP2 SWAP1 PUSH1 0x1 ADD SWAP1 PUSH2 0x743 JUMP JUMPDEST POP PUSH2 0x76A SWAP3 SWAP2 POP PUSH2 0x794 JUMP JUMPDEST POP SWAP1 JUMP JUMPDEST PUSH1 0x40 MLOAD DUP1 PUSH1 0x20 ADD PUSH1 0x40 MSTORE DUP1 PUSH1 0x60 DUP2 MSTORE POP SWAP1 JUMP JUMPDEST PUSH1 0x40 MLOAD DUP1 PUSH1 0x20 ADD PUSH1 0x40 MSTORE DUP1 PUSH1 0x0 DUP2 MSTORE POP SWAP1 JUMP JUMPDEST JUMPDEST DUP1 DUP3 GT ISZERO PUSH2 0x76A JUMPI PUSH1 0x0 DUP2 SSTORE PUSH1 0x1 ADD PUSH2 0x795 JUMP JUMPDEST DUP1 MLOAD PUSH2 0x7B4 DUP2 PUSH2 0xB41 JUMP JUMPDEST SWAP3 SWAP2 POP POP JUMP JUMPDEST DUP1 MLOAD DUP1 ISZERO ISZERO DUP2 EQ PUSH2 0x7B4 JUMPI PUSH1 0x0 DUP1 REVERT JUMPDEST PUSH1 0x0 DUP3 PUSH1 0x1F DUP4 ADD SLT PUSH2 0x7DA JUMPI DUP1 DUP2 REVERT JUMPDEST DUP2 CALLDATALOAD PUSH2 0x7ED PUSH2 0x7E8 DUP3 PUSH2 0xAED JUMP JUMPDEST PUSH2 0xAC6 JUMP JUMPDEST SWAP2 POP DUP1 DUP3 MSTORE DUP4 PUSH1 0x20 DUP3 DUP6 ADD ADD GT ISZERO PUSH2 0x804 JUMPI PUSH1 0x0 DUP1 REVERT JUMPDEST DUP1 PUSH1 0x20 DUP5 ADD PUSH1 0x20 DUP5 ADD CALLDATACOPY PUSH1 0x0 SWAP1 DUP3 ADD PUSH1 0x20 ADD MSTORE SWAP3 SWAP2 POP POP JUMP JUMPDEST PUSH1 0x0 DUP3 PUSH1 0x1F DUP4 ADD SLT PUSH2 0x82D JUMPI DUP1 DUP2 REVERT JUMPDEST DUP2 MLOAD PUSH2 0x83B PUSH2 0x7E8 DUP3 PUSH2 0xAED JUMP JUMPDEST SWAP2 POP DUP1 DUP3 MSTORE DUP4 PUSH1 0x20 DUP3 DUP6 ADD ADD GT ISZERO PUSH2 0x852 JUMPI PUSH1 0x0 DUP1 REVERT JUMPDEST PUSH2 0x863 DUP2 PUSH1 0x20 DUP5 ADD PUSH1 0x20 DUP7 ADD PUSH2 0xB11 JUMP JUMPDEST POP SWAP3 SWAP2 POP POP JUMP JUMPDEST PUSH1 0x0 PUSH1 0x20 DUP3 DUP5 SUB SLT ISZERO PUSH2 0x87B JUMPI DUP1 DUP2 REVERT JUMPDEST PUSH2 0x885 PUSH1 0x20 PUSH2 0xAC6 JUMP JUMPDEST SWAP1 POP DUP2 MLOAD PUSH8 0xFFFFFFFFFFFFFFFF DUP2 GT ISZERO PUSH2 0x89E JUMPI PUSH1 0x0 DUP1 REVERT JUMPDEST PUSH2 0x8AA DUP5 DUP3 DUP6 ADD PUSH2 0x81D JUMP JUMPDEST DUP3 MSTORE POP SWAP3 SWAP2 POP POP JUMP JUMPDEST PUSH1 0x0 PUSH1 0x20 DUP3 DUP5 SUB SLT ISZERO PUSH2 0x8C4 JUMPI DUP1 DUP2 REVERT JUMPDEST PUSH2 0x8CE PUSH1 0x20 PUSH2 0xAC6 JUMP JUMPDEST SWAP2 MLOAD DUP3 MSTORE POP SWAP2 SWAP1 POP JUMP JUMPDEST PUSH1 0x0 PUSH1 0x20 DUP3 DUP5 SUB SLT ISZERO PUSH2 0x8E9 JUMPI DUP1 DUP2 REVERT JUMPDEST DUP2 CALLDATALOAD PUSH2 0x8F4 DUP2 PUSH2 0xB41 JUMP JUMPDEST SWAP4 SWAP3 POP POP POP JUMP JUMPDEST PUSH1 0x0 DUP1 PUSH1 0x0 PUSH1 0x60 DUP5 DUP7 SUB SLT ISZERO PUSH2 0x90F JUMPI DUP2 DUP3 REVERT JUMPDEST DUP4 CALLDATALOAD PUSH8 0xFFFFFFFFFFFFFFFF DUP1 DUP3 GT ISZERO PUSH2 0x926 JUMPI DUP4 DUP5 REVERT JUMPDEST PUSH2 0x932 DUP8 DUP4 DUP9 ADD PUSH2 0x7CA JUMP JUMPDEST SWAP5 POP PUSH1 0x20 DUP7 ADD CALLDATALOAD SWAP2 POP PUSH2 0x944 DUP3 PUSH2 0xB41 JUMP JUMPDEST SWAP1 SWAP3 POP PUSH1 0x40 DUP6 ADD CALLDATALOAD SWAP1 DUP1 DUP3 GT ISZERO PUSH2 0x959 JUMPI DUP3 DUP4 REVERT JUMPDEST POP PUSH2 0x966 DUP7 DUP3 DUP8 ADD PUSH2 0x7CA JUMP JUMPDEST SWAP2 POP POP SWAP3 POP SWAP3 POP SWAP3 JUMP JUMPDEST PUSH1 0x0 PUSH1 0x20 DUP3 DUP5 SUB SLT ISZERO PUSH2 0x981 JUMPI DUP1 DUP2 REVERT JUMPDEST DUP2 MLOAD PUSH8 0xFFFFFFFFFFFFFFFF DUP1 DUP3 GT ISZERO PUSH2 0x998 JUMPI DUP3 DUP4 REVERT JUMPDEST SWAP1 DUP4 ADD SWAP1 PUSH1 0xA0 DUP3 DUP7 SUB SLT ISZERO PUSH2 0x9AB JUMPI DUP3 DUP4 REVERT JUMPDEST PUSH2 0x9B5 PUSH1 0xA0 PUSH2 0xAC6 JUMP JUMPDEST DUP3 MLOAD DUP3 DUP2 GT ISZERO PUSH2 0x9C3 JUMPI DUP5 DUP6 REVERT JUMPDEST PUSH2 0x9CF DUP8 DUP3 DUP7 ADD PUSH2 0x81D JUMP JUMPDEST DUP3 MSTORE POP PUSH2 0x9DF DUP7 PUSH1 0x20 DUP6 ADD PUSH2 0x7A9 JUMP JUMPDEST PUSH1 0x20 DUP3 ADD MSTORE PUSH1 0x40 DUP4 ADD MLOAD DUP3 DUP2 GT ISZERO PUSH2 0x9F5 JUMPI DUP5 DUP6 REVERT JUMPDEST PUSH2 0xA01 DUP8 DUP3 DUP7 ADD PUSH2 0x86A JUMP JUMPDEST PUSH1 0x40 DUP4 ADD MSTORE POP PUSH2 0xA14 DUP7 PUSH1 0x60 DUP6 ADD PUSH2 0x8B3 JUMP JUMPDEST PUSH1 0x60 DUP3 ADD MSTORE PUSH2 0xA26 DUP7 PUSH1 0x80 DUP6 ADD PUSH2 0x7BA JUMP JUMPDEST PUSH1 0x80 DUP3 ADD MSTORE SWAP6 SWAP5 POP POP POP POP POP JUMP JUMPDEST PUSH1 0x0 DUP2 MLOAD DUP1 DUP5 MSTORE PUSH2 0xA4C DUP2 PUSH1 0x20 DUP7 ADD PUSH1 0x20 DUP7 ADD PUSH2 0xB11 JUMP JUMPDEST PUSH1 0x1F ADD PUSH1 0x1F NOT AND SWAP3 SWAP1 SWAP3 ADD PUSH1 0x20 ADD SWAP3 SWAP2 POP POP JUMP JUMPDEST PUSH1 0x1 PUSH1 0x1 PUSH1 0xA0 SHL SUB SWAP2 SWAP1 SWAP2 AND DUP2 MSTORE PUSH1 0x20 ADD SWAP1 JUMP JUMPDEST SWAP1 ISZERO ISZERO DUP2 MSTORE PUSH1 0x20 ADD SWAP1 JUMP JUMPDEST PUSH1 0x0 PUSH1 0x60 DUP3 MSTORE PUSH2 0xA92 PUSH1 0x60 DUP4 ADD DUP7 PUSH2 0xA34 JUMP JUMPDEST PUSH1 0x1 PUSH1 0x1 PUSH1 0xA0 SHL SUB DUP6 AND PUSH1 0x20 DUP5 ADD MSTORE DUP3 DUP2 SUB PUSH1 0x40 DUP5 ADD MSTORE PUSH2 0xAB3 DUP2 DUP6 PUSH2 0xA34 JUMP JUMPDEST SWAP7 SWAP6 POP POP POP POP POP POP JUMP JUMPDEST SWAP1 DUP2 MSTORE PUSH1 0x20 ADD SWAP1 JUMP JUMPDEST PUSH1 0x40 MLOAD DUP2 DUP2 ADD PUSH8 0xFFFFFFFFFFFFFFFF DUP2 GT DUP3 DUP3 LT OR ISZERO PUSH2 0xAE5 JUMPI PUSH1 0x0 DUP1 REVERT JUMPDEST PUSH1 0x40 MSTORE SWAP2 SWAP1 POP JUMP JUMPDEST PUSH1 0x0 PUSH8 0xFFFFFFFFFFFFFFFF DUP3 GT ISZERO PUSH2 0xB03 JUMPI DUP1 DUP2 REVERT JUMPDEST POP PUSH1 0x1F ADD PUSH1 0x1F NOT AND PUSH1 0x20 ADD SWAP1 JUMP JUMPDEST PUSH1 0x0 JUMPDEST DUP4 DUP2 LT ISZERO PUSH2 0xB2C JUMPI DUP2 DUP2 ADD MLOAD DUP4 DUP3 ADD MSTORE PUSH1 0x20 ADD PUSH2 0xB14 JUMP JUMPDEST DUP4 DUP2 GT ISZERO PUSH2 0xB3B JUMPI PUSH1 0x0 DUP5 DUP5 ADD MSTORE JUMPDEST POP POP POP POP JUMP JUMPDEST PUSH1 0x1 PUSH1 0x1 PUSH1 0xA0 SHL SUB DUP2 AND DUP2 EQ PUSH2 0x5DA JUMPI PUSH1 0x0 DUP1 REVERT INVALID LOG2 PUSH5 0x6970667358 0x22 SLT KECCAK256 0xA7 0xCD SHR SELFBALANCE 0xBE SWAP13 0xB1 0x23 0xD9 0xE1 0xB4 DUP13 PUSH27 0x3FB9B32046EC423B243B484E129C8E1626BAAD64736F6C63430006 0xC STOP CALLER ",
  "sha1": "dff9a31740fa6567d72a2c27c5338f6b2852514e",
  "source": "pragma solidity ^0.6.0;\npragma experimental ABIEncoderV2;\n\nimport \"./Ownable.sol\";\n\n// NFT type define \nlibrary NftLibs {\n    /*\n     *  Store a reference to an image, stored in IPFS, in an ethereum smart contract.\n     */\n    struct ImageInfo {\n        string ipfsInfo;\n    }\n\n    struct Price {\n        uint price;\n    }\n\n    struct NftInfo {\n        string nftName;\n        address nftProducer;\n        ImageInfo imageInfo;\n        Price price;\n        bool hasStarted;\n    }\n\n    modifier hasMandotaryFields(string memory _name, address _address, string memory _ipfsInfo) {\n        bytes memory tempEmptyNameStringTest = bytes(_name); \n        bytes memory tempEmptyImageStringTest = bytes(_ipfsInfo); \n\n        require(tempEmptyNameStringTest.length > 0 \n                && tempEmptyImageStringTest.length > 0\n                && _address != address(0));\n\n        _;\n    }\n\n    function createNftInfo(string memory _name, address _address, string memory _ipfsInfo) \n            public hasMandotaryFields(_name, _address, _ipfsInfo) \n            returns (NftInfo memory) {\n        NftInfo memory nftInfo = NftInfo(_name, _address, ImageInfo(_ipfsInfo), Price(0), false);\n        return nftInfo;\n    }\n}\n\ncontract NftCollection is Ownable {\n    /*\n     * Store all NFT for each address has.\n     * Stores the number of tokens each address has\n     */\n    mapping (address => NftLibs.NftInfo[]) AddressToNftInfos;\n\n    /*\n     * Stores Whitelist on Map structure because dynamic list use more GAS for reallocating.\n     * TODO: For Decreasing GAS usage, we can merge AddressToNftInfos and Whitelist structure.\n     * pre/sale agar whitelist bashad mitavanad befroshad\n     * pre/sale agar whitelist bashad mitavanad befroshad\n     */\n    mapping (address => bool) WhiteList;\n\n    // This parameter declare that minting tokens is public or just for WhiteList groups.\n    bool publicEnabledShow;\n\n    // Stores the maximum number of tokens that you wanna sell.\n    uint32 maxSupply = 0;\n\n    // Stores the remaining mints.\n    uint32 numberOfMints = 0;\n\n    uint gasPay = 0.000001 ether;\n\n    // Just admin could add address to this whitelist\n    function addToWhiteList(address _address) onlyOwner external {\n        WhiteList[_address] = true;\n    }\n\n    function createToken(string memory _name, address _address, string memory _ipfsInfo) public {\n        NftLibs.NftInfo memory nftInfo = NftLibs.createNftInfo(_name, _address, _ipfsInfo);\n        AddressToNftInfos[_address].push(nftInfo);\n        maxSupply ++;\n    }\n\n    function getMaxSupply() public view returns(uint) {\n        return maxSupply;\n    }\n\n    function getRemainingMints() public view returns(uint) {\n        return maxSupply - numberOfMints;\n    }\n\n    // Display status if sale has started.\n    function getSaleStarted() public view returns (bool) {\n        NftLibs.NftInfo storage nftInfo = getNftInfo();\n        return nftInfo.hasStarted;\n    }\n\n    // Once public enabled show it and enable mint button for all\n    function getOpenToPublic() public view returns (bool) {\n        return publicEnabledShow;\n    }\n\n    function setOpenToPublic() public onlyOwner returns (bool) {\n        publicEnabledShow = true;\n    }\n\n    function setClosedToPublic() public onlyOwner returns (bool) {\n        publicEnabledShow = false;\n    }\n\n    function getOnWhiteList() public view returns (bool) {\n        return WhiteList[msg.sender];\n    }\n\n    function safeMint() external payable hasMinted hasOnWhiteListOrIsPublicEnabledShow {\n        // Check to make sure gasPay ether was sent to the function call:\n        require(msg.value >= gasPay);\n\n        // After get GAS could convert token to Non-Fungible token :)))\n        address payable _owner = address(uint160(owner()));\n        _owner.transfer(gasPay);\n\n        numberOfMints ++;\n    }\n\n    // Private functions\n    function getNftInfo() private view hasMinted returns(NftLibs.NftInfo storage) {\n        NftLibs.NftInfo[] storage nftInfos = AddressToNftInfos[msg.sender];\n\n        // TODO: Fix bellow.\n        return nftInfos[0];\n    }\n\n    modifier hasMinted() {\n        require(AddressToNftInfos[msg.sender].length > 0);\n        _;\n    } \n\n    modifier hasOnWhiteListOrIsPublicEnabledShow() {\n        require(getOnWhiteList() || getOpenToPublic());\n        _;\n    }\n}",
  "sourcePath": "contracts/NftCollection.sol",
  "type": "contract"
}