{
  "abi": [
    {
      "anonymous": false,
      "inputs": [
        {
          "indexed": true,
          "internalType": "address",
          "name": "previousOwner",
          "type": "address"
        },
        {
          "indexed": true,
          "internalType": "address",
          "name": "newOwner",
          "type": "address"
        }
      ],
      "name": "OwnershipTransferred",
      "type": "event"
    },
    {
      "inputs": [
        {
          "internalType": "string",
          "name": "_name",
          "type": "string"
        },
        {
          "internalType": "address",
          "name": "_address",
          "type": "address"
        },
        {
          "internalType": "string",
          "name": "_ipfsInfo",
          "type": "string"
        }
      ],
      "name": "createToken",
      "outputs": [],
      "stateMutability": "nonpayable",
      "type": "function"
    },
    {
      "inputs": [],
      "name": "getMaxSupply",
      "outputs": [
        {
          "internalType": "uint256",
          "name": "",
          "type": "uint256"
        }
      ],
      "stateMutability": "view",
      "type": "function"
    },
    {
      "inputs": [
        {
          "internalType": "address",
          "name": "",
          "type": "address"
        }
      ],
      "name": "getOnWhiteList",
      "outputs": [
        {
          "internalType": "bool",
          "name": "",
          "type": "bool"
        }
      ],
      "stateMutability": "pure",
      "type": "function"
    },
    {
      "inputs": [],
      "name": "getOpenToPublic",
      "outputs": [
        {
          "internalType": "bool",
          "name": "",
          "type": "bool"
        }
      ],
      "stateMutability": "view",
      "type": "function"
    },
    {
      "inputs": [],
      "name": "getRemainingMints",
      "outputs": [
        {
          "internalType": "uint256",
          "name": "",
          "type": "uint256"
        }
      ],
      "stateMutability": "view",
      "type": "function"
    },
    {
      "inputs": [],
      "name": "getSaleStarted",
      "outputs": [
        {
          "internalType": "bool",
          "name": "",
          "type": "bool"
        }
      ],
      "stateMutability": "view",
      "type": "function"
    },
    {
      "inputs": [],
      "name": "isOwner",
      "outputs": [
        {
          "internalType": "bool",
          "name": "",
          "type": "bool"
        }
      ],
      "stateMutability": "view",
      "type": "function"
    },
    {
      "inputs": [],
      "name": "owner",
      "outputs": [
        {
          "internalType": "address",
          "name": "",
          "type": "address"
        }
      ],
      "stateMutability": "view",
      "type": "function"
    },
    {
      "inputs": [],
      "name": "renounceOwnership",
      "outputs": [],
      "stateMutability": "nonpayable",
      "type": "function"
    },
    {
      "inputs": [],
      "name": "safeMint",
      "outputs": [],
      "stateMutability": "payable",
      "type": "function"
    },
    {
      "inputs": [
        {
          "internalType": "address",
          "name": "newOwner",
          "type": "address"
        }
      ],
      "name": "transferOwnership",
      "outputs": [],
      "stateMutability": "nonpayable",
      "type": "function"
    },
    {
      "inputs": [],
      "name": "withdraw",
      "outputs": [],
      "stateMutability": "nonpayable",
      "type": "function"
    }
  ],
  "bytecode": "6080604052600280546001600160401b0319169055655af3107a400060035534801561002a57600080fd5b50600080546001600160a01b03191633178082556040516001600160a01b039190911691907f8be0079c531659141344cd1fd0a4f28419497f9722a3daafe3b4186f6b6457e0908290a3610ac1806100836000396000f3fe6080604052600436106100a75760003560e01c806377eb17b41161006457806377eb17b41461014d5780638680d87e1461016d5780638da5cb5b146101825780638f32d59b146101a4578063f2fde38b146101b9578063fd02c239146101d9576100a7565b80630b64251e146100ac5780633acde386146100d75780633ccfd60b146100f75780634c0f38c21461010e5780636871ee4014610130578063715018a614610138575b600080fd5b3480156100b857600080fd5b506100c16101ee565b6040516100ce91906109a9565b60405180910390f35b3480156100e357600080fd5b506100c16100f23660046107fb565b610206565b34801561010357600080fd5b5061010c61020c565b005b34801561011a57600080fd5b50610123610263565b6040516100ce91906109f2565b61010c61026f565b34801561014457600080fd5b5061010c6102c4565b34801561015957600080fd5b5061010c61016836600461081e565b61031f565b34801561017957600080fd5b506100c16104a5565b34801561018e57600080fd5b506101976104c2565b6040516100ce9190610995565b3480156101b057600080fd5b506100c16104d1565b3480156101c557600080fd5b5061010c6101d43660046107fb565b6104e2565b3480156101e557600080fd5b506101236104ff565b6000806101f961051c565b6004015460ff1691505090565b50600190565b6102146104d1565b61021d57600080fd5b60006102276104c2565b6040519091506001600160a01b038216904780156108fc02916000818181858888f1935050505015801561025f573d6000803e3d6000fd5b5050565b60025463ffffffff1690565b3360009081526001602052604090205461028857600080fd5b600354341461029657600080fd5b60028054600163ffffffff640100000000808404821692909201160267ffffffff0000000019909116179055565b6102cc6104d1565b6102d557600080fd5b600080546040516001600160a01b03909116907f8be0079c531659141344cd1fd0a4f28419497f9722a3daafe3b4186f6b6457e0908390a3600080546001600160a01b0319169055565b6103276105d2565b604051620cf04560e51b815273__NftLibs_______________________________9063019e08a090610361908790879087906004016109b4565b60006040518083038186803b15801561037957600080fd5b505af415801561038d573d6000803e3d6000fd5b505050506040513d6000823e601f3d908101601f191682016040526103b59190810190610893565b6001600160a01b03841660009081526001602081815260408320805492830181558352918290208351805194955085946005909302909101926103fd92849290910190610613565b506020828101516001830180546001600160a01b0319166001600160a01b03909216919091179055604083015180518051919260028501926104429284920190610613565b505050606082015151600382015560808201516004909101805460a09093015115156101000261ff001992151560ff19909416939093179190911691909117905550506002805463ffffffff8082166001011663ffffffff199091161790555050565b6000806104b061051c565b60040154610100900460ff1692915050565b6000546001600160a01b031690565b6000546001600160a01b0316331490565b6104ea6104d1565b6104f357600080fd5b6104fc81610564565b50565b60025463ffffffff64010000000082048116918116919091031690565b3360009081526001602052604081205461053557600080fd5b33600090815260016020526040812080549091829161055057fe5b906000526020600020906005020191505090565b6001600160a01b03811661057757600080fd5b600080546040516001600160a01b03808516939216917f8be0079c531659141344cd1fd0a4f28419497f9722a3daafe3b4186f6b6457e091a3600080546001600160a01b0319166001600160a01b0392909216919091179055565b6040805160c08101825260608152600060208201529081016105f2610691565b81526020016105ff6106a4565b815260006020820181905260409091015290565b828054600181600116156101000203166002900490600052602060002090601f016020900481019282601f1061065457805160ff1916838001178555610681565b82800160010185558215610681579182015b82811115610681578251825591602001919060010190610666565b5061068d9291506106b7565b5090565b6040518060200160405280606081525090565b6040518060200160405280600081525090565b5b8082111561068d57600081556001016106b8565b80516106d781610a76565b92915050565b805180151581146106d757600080fd5b600082601f8301126106fd578081fd5b813561071061070b82610a22565b6109fb565b915080825283602082850101111561072757600080fd5b8060208401602084013760009082016020015292915050565b600082601f830112610750578081fd5b815161075e61070b82610a22565b915080825283602082850101111561077557600080fd5b610786816020840160208601610a46565b5092915050565b60006020828403121561079e578081fd5b6107a860206109fb565b9050815167ffffffffffffffff8111156107c157600080fd5b6107cd84828501610740565b82525092915050565b6000602082840312156107e7578081fd5b6107f160206109fb565b9151825250919050565b60006020828403121561080c578081fd5b813561081781610a76565b9392505050565b600080600060608486031215610832578182fd5b833567ffffffffffffffff80821115610849578384fd5b610855878388016106ed565b94506020860135915061086782610a76565b9092506040850135908082111561087c578283fd5b50610889868287016106ed565b9150509250925092565b6000602082840312156108a4578081fd5b815167ffffffffffffffff808211156108bb578283fd5b9083019060c082860312156108ce578283fd5b6108d860c06109fb565b8251828111156108e6578485fd5b6108f287828601610740565b82525061090286602085016106cc565b6020820152604083015182811115610918578485fd5b6109248782860161078d565b60408301525061093786606085016107d6565b606082015261094986608085016106dd565b608082015261095b8660a085016106dd565b60a082015295945050505050565b60008151808452610981816020860160208601610a46565b601f01601f19169290920160200192915050565b6001600160a01b0391909116815260200190565b901515815260200190565b6000606082526109c76060830186610969565b6001600160a01b038516602084015282810360408401526109e88185610969565b9695505050505050565b90815260200190565b60405181810167ffffffffffffffff81118282101715610a1a57600080fd5b604052919050565b600067ffffffffffffffff821115610a38578081fd5b50601f01601f191660200190565b60005b83811015610a61578181015183820152602001610a49565b83811115610a70576000848401525b50505050565b6001600160a01b03811681146104fc57600080fdfea26469706673582212207411a0d9988242280780b5035d7c0d263420c38004242da3b58248ee494f3fd764736f6c634300060c0033",
  "bytecodeSha1": "ba1ed1186e0d522e08b6c47dd5859e9a9e22f621",
  "compiler": {
    "evm_version": "istanbul",
    "optimizer": {
      "enabled": true,
      "runs": 200
    },
    "version": "0.6.12+commit.27d51765"
  },
  "contractName": "NftCollection",
  "deployedBytecode": "6080604052600436106100a75760003560e01c806377eb17b41161006457806377eb17b41461014d5780638680d87e1461016d5780638da5cb5b146101825780638f32d59b146101a4578063f2fde38b146101b9578063fd02c239146101d9576100a7565b80630b64251e146100ac5780633acde386146100d75780633ccfd60b146100f75780634c0f38c21461010e5780636871ee4014610130578063715018a614610138575b600080fd5b3480156100b857600080fd5b506100c16101ee565b6040516100ce91906109a9565b60405180910390f35b3480156100e357600080fd5b506100c16100f23660046107fb565b610206565b34801561010357600080fd5b5061010c61020c565b005b34801561011a57600080fd5b50610123610263565b6040516100ce91906109f2565b61010c61026f565b34801561014457600080fd5b5061010c6102c4565b34801561015957600080fd5b5061010c61016836600461081e565b61031f565b34801561017957600080fd5b506100c16104a5565b34801561018e57600080fd5b506101976104c2565b6040516100ce9190610995565b3480156101b057600080fd5b506100c16104d1565b3480156101c557600080fd5b5061010c6101d43660046107fb565b6104e2565b3480156101e557600080fd5b506101236104ff565b6000806101f961051c565b6004015460ff1691505090565b50600190565b6102146104d1565b61021d57600080fd5b60006102276104c2565b6040519091506001600160a01b038216904780156108fc02916000818181858888f1935050505015801561025f573d6000803e3d6000fd5b5050565b60025463ffffffff1690565b3360009081526001602052604090205461028857600080fd5b600354341461029657600080fd5b60028054600163ffffffff640100000000808404821692909201160267ffffffff0000000019909116179055565b6102cc6104d1565b6102d557600080fd5b600080546040516001600160a01b03909116907f8be0079c531659141344cd1fd0a4f28419497f9722a3daafe3b4186f6b6457e0908390a3600080546001600160a01b0319169055565b6103276105d2565b604051620cf04560e51b815273__$67ab562366c52fcbcaecae584739bc0d72$__9063019e08a090610361908790879087906004016109b4565b60006040518083038186803b15801561037957600080fd5b505af415801561038d573d6000803e3d6000fd5b505050506040513d6000823e601f3d908101601f191682016040526103b59190810190610893565b6001600160a01b03841660009081526001602081815260408320805492830181558352918290208351805194955085946005909302909101926103fd92849290910190610613565b506020828101516001830180546001600160a01b0319166001600160a01b03909216919091179055604083015180518051919260028501926104429284920190610613565b505050606082015151600382015560808201516004909101805460a09093015115156101000261ff001992151560ff19909416939093179190911691909117905550506002805463ffffffff8082166001011663ffffffff199091161790555050565b6000806104b061051c565b60040154610100900460ff1692915050565b6000546001600160a01b031690565b6000546001600160a01b0316331490565b6104ea6104d1565b6104f357600080fd5b6104fc81610564565b50565b60025463ffffffff64010000000082048116918116919091031690565b3360009081526001602052604081205461053557600080fd5b33600090815260016020526040812080549091829161055057fe5b906000526020600020906005020191505090565b6001600160a01b03811661057757600080fd5b600080546040516001600160a01b03808516939216917f8be0079c531659141344cd1fd0a4f28419497f9722a3daafe3b4186f6b6457e091a3600080546001600160a01b0319166001600160a01b0392909216919091179055565b6040805160c08101825260608152600060208201529081016105f2610691565b81526020016105ff6106a4565b815260006020820181905260409091015290565b828054600181600116156101000203166002900490600052602060002090601f016020900481019282601f1061065457805160ff1916838001178555610681565b82800160010185558215610681579182015b82811115610681578251825591602001919060010190610666565b5061068d9291506106b7565b5090565b6040518060200160405280606081525090565b6040518060200160405280600081525090565b5b8082111561068d57600081556001016106b8565b80516106d781610a76565b92915050565b805180151581146106d757600080fd5b600082601f8301126106fd578081fd5b813561071061070b82610a22565b6109fb565b915080825283602082850101111561072757600080fd5b8060208401602084013760009082016020015292915050565b600082601f830112610750578081fd5b815161075e61070b82610a22565b915080825283602082850101111561077557600080fd5b610786816020840160208601610a46565b5092915050565b60006020828403121561079e578081fd5b6107a860206109fb565b9050815167ffffffffffffffff8111156107c157600080fd5b6107cd84828501610740565b82525092915050565b6000602082840312156107e7578081fd5b6107f160206109fb565b9151825250919050565b60006020828403121561080c578081fd5b813561081781610a76565b9392505050565b600080600060608486031215610832578182fd5b833567ffffffffffffffff80821115610849578384fd5b610855878388016106ed565b94506020860135915061086782610a76565b9092506040850135908082111561087c578283fd5b50610889868287016106ed565b9150509250925092565b6000602082840312156108a4578081fd5b815167ffffffffffffffff808211156108bb578283fd5b9083019060c082860312156108ce578283fd5b6108d860c06109fb565b8251828111156108e6578485fd5b6108f287828601610740565b82525061090286602085016106cc565b6020820152604083015182811115610918578485fd5b6109248782860161078d565b60408301525061093786606085016107d6565b606082015261094986608085016106dd565b608082015261095b8660a085016106dd565b60a082015295945050505050565b60008151808452610981816020860160208601610a46565b601f01601f19169290920160200192915050565b6001600160a01b0391909116815260200190565b901515815260200190565b6000606082526109c76060830186610969565b6001600160a01b038516602084015282810360408401526109e88185610969565b9695505050505050565b90815260200190565b60405181810167ffffffffffffffff81118282101715610a1a57600080fd5b604052919050565b600067ffffffffffffffff821115610a38578081fd5b50601f01601f191660200190565b60005b83811015610a61578181015183820152602001610a49565b83811115610a70576000848401525b50505050565b6001600160a01b03811681146104fc57600080fdfea26469706673582212207411a0d9988242280780b5035d7c0d263420c38004242da3b58248ee494f3fd764736f6c634300060c0033",
  "language": "Solidity",
  "natspec": {
    "kind": "dev",
    "methods": {
      "isOwner()": {
        "returns": {
          "_0": "true if `msg.sender` is the owner of the contract."
        }
      },
      "owner()": {
        "returns": {
          "_0": "the address of the owner."
        }
      },
      "renounceOwnership()": {
        "details": "Allows the current owner to relinquish control of the contract.",
        "notice": "Renouncing to ownership will leave the contract without an owner. It will not be possible to call the functions with the `onlyOwner` modifier anymore."
      },
      "transferOwnership(address)": {
        "details": "Allows the current owner to transfer control of the contract to a newOwner.",
        "params": {
          "newOwner": "The address to transfer ownership to."
        }
      }
    },
    "version": 1
  },
  "opcodes": "PUSH1 0x80 PUSH1 0x40 MSTORE PUSH1 0x4 CALLDATASIZE LT PUSH2 0xA7 JUMPI PUSH1 0x0 CALLDATALOAD PUSH1 0xE0 SHR DUP1 PUSH4 0x77EB17B4 GT PUSH2 0x64 JUMPI DUP1 PUSH4 0x77EB17B4 EQ PUSH2 0x14D JUMPI DUP1 PUSH4 0x8680D87E EQ PUSH2 0x16D JUMPI DUP1 PUSH4 0x8DA5CB5B EQ PUSH2 0x182 JUMPI DUP1 PUSH4 0x8F32D59B EQ PUSH2 0x1A4 JUMPI DUP1 PUSH4 0xF2FDE38B EQ PUSH2 0x1B9 JUMPI DUP1 PUSH4 0xFD02C239 EQ PUSH2 0x1D9 JUMPI PUSH2 0xA7 JUMP JUMPDEST DUP1 PUSH4 0xB64251E EQ PUSH2 0xAC JUMPI DUP1 PUSH4 0x3ACDE386 EQ PUSH2 0xD7 JUMPI DUP1 PUSH4 0x3CCFD60B EQ PUSH2 0xF7 JUMPI DUP1 PUSH4 0x4C0F38C2 EQ PUSH2 0x10E JUMPI DUP1 PUSH4 0x6871EE40 EQ PUSH2 0x130 JUMPI DUP1 PUSH4 0x715018A6 EQ PUSH2 0x138 JUMPI JUMPDEST PUSH1 0x0 DUP1 REVERT JUMPDEST CALLVALUE DUP1 ISZERO PUSH2 0xB8 JUMPI PUSH1 0x0 DUP1 REVERT JUMPDEST POP PUSH2 0xC1 PUSH2 0x1EE JUMP JUMPDEST PUSH1 0x40 MLOAD PUSH2 0xCE SWAP2 SWAP1 PUSH2 0x9A9 JUMP JUMPDEST PUSH1 0x40 MLOAD DUP1 SWAP2 SUB SWAP1 RETURN JUMPDEST CALLVALUE DUP1 ISZERO PUSH2 0xE3 JUMPI PUSH1 0x0 DUP1 REVERT JUMPDEST POP PUSH2 0xC1 PUSH2 0xF2 CALLDATASIZE PUSH1 0x4 PUSH2 0x7FB JUMP JUMPDEST PUSH2 0x206 JUMP JUMPDEST CALLVALUE DUP1 ISZERO PUSH2 0x103 JUMPI PUSH1 0x0 DUP1 REVERT JUMPDEST POP PUSH2 0x10C PUSH2 0x20C JUMP JUMPDEST STOP JUMPDEST CALLVALUE DUP1 ISZERO PUSH2 0x11A JUMPI PUSH1 0x0 DUP1 REVERT JUMPDEST POP PUSH2 0x123 PUSH2 0x263 JUMP JUMPDEST PUSH1 0x40 MLOAD PUSH2 0xCE SWAP2 SWAP1 PUSH2 0x9F2 JUMP JUMPDEST PUSH2 0x10C PUSH2 0x26F JUMP JUMPDEST CALLVALUE DUP1 ISZERO PUSH2 0x144 JUMPI PUSH1 0x0 DUP1 REVERT JUMPDEST POP PUSH2 0x10C PUSH2 0x2C4 JUMP JUMPDEST CALLVALUE DUP1 ISZERO PUSH2 0x159 JUMPI PUSH1 0x0 DUP1 REVERT JUMPDEST POP PUSH2 0x10C PUSH2 0x168 CALLDATASIZE PUSH1 0x4 PUSH2 0x81E JUMP JUMPDEST PUSH2 0x31F JUMP JUMPDEST CALLVALUE DUP1 ISZERO PUSH2 0x179 JUMPI PUSH1 0x0 DUP1 REVERT JUMPDEST POP PUSH2 0xC1 PUSH2 0x4A5 JUMP JUMPDEST CALLVALUE DUP1 ISZERO PUSH2 0x18E JUMPI PUSH1 0x0 DUP1 REVERT JUMPDEST POP PUSH2 0x197 PUSH2 0x4C2 JUMP JUMPDEST PUSH1 0x40 MLOAD PUSH2 0xCE SWAP2 SWAP1 PUSH2 0x995 JUMP JUMPDEST CALLVALUE DUP1 ISZERO PUSH2 0x1B0 JUMPI PUSH1 0x0 DUP1 REVERT JUMPDEST POP PUSH2 0xC1 PUSH2 0x4D1 JUMP JUMPDEST CALLVALUE DUP1 ISZERO PUSH2 0x1C5 JUMPI PUSH1 0x0 DUP1 REVERT JUMPDEST POP PUSH2 0x10C PUSH2 0x1D4 CALLDATASIZE PUSH1 0x4 PUSH2 0x7FB JUMP JUMPDEST PUSH2 0x4E2 JUMP JUMPDEST CALLVALUE DUP1 ISZERO PUSH2 0x1E5 JUMPI PUSH1 0x0 DUP1 REVERT JUMPDEST POP PUSH2 0x123 PUSH2 0x4FF JUMP JUMPDEST PUSH1 0x0 DUP1 PUSH2 0x1F9 PUSH2 0x51C JUMP JUMPDEST PUSH1 0x4 ADD SLOAD PUSH1 0xFF AND SWAP2 POP POP SWAP1 JUMP JUMPDEST POP PUSH1 0x1 SWAP1 JUMP JUMPDEST PUSH2 0x214 PUSH2 0x4D1 JUMP JUMPDEST PUSH2 0x21D JUMPI PUSH1 0x0 DUP1 REVERT JUMPDEST PUSH1 0x0 PUSH2 0x227 PUSH2 0x4C2 JUMP JUMPDEST PUSH1 0x40 MLOAD SWAP1 SWAP2 POP PUSH1 0x1 PUSH1 0x1 PUSH1 0xA0 SHL SUB DUP3 AND SWAP1 SELFBALANCE DUP1 ISZERO PUSH2 0x8FC MUL SWAP2 PUSH1 0x0 DUP2 DUP2 DUP2 DUP6 DUP9 DUP9 CALL SWAP4 POP POP POP POP ISZERO DUP1 ISZERO PUSH2 0x25F JUMPI RETURNDATASIZE PUSH1 0x0 DUP1 RETURNDATACOPY RETURNDATASIZE PUSH1 0x0 REVERT JUMPDEST POP POP JUMP JUMPDEST PUSH1 0x2 SLOAD PUSH4 0xFFFFFFFF AND SWAP1 JUMP JUMPDEST CALLER PUSH1 0x0 SWAP1 DUP2 MSTORE PUSH1 0x1 PUSH1 0x20 MSTORE PUSH1 0x40 SWAP1 KECCAK256 SLOAD PUSH2 0x288 JUMPI PUSH1 0x0 DUP1 REVERT JUMPDEST PUSH1 0x3 SLOAD CALLVALUE EQ PUSH2 0x296 JUMPI PUSH1 0x0 DUP1 REVERT JUMPDEST PUSH1 0x2 DUP1 SLOAD PUSH1 0x1 PUSH4 0xFFFFFFFF PUSH5 0x100000000 DUP1 DUP5 DIV DUP3 AND SWAP3 SWAP1 SWAP3 ADD AND MUL PUSH8 0xFFFFFFFF00000000 NOT SWAP1 SWAP2 AND OR SWAP1 SSTORE JUMP JUMPDEST PUSH2 0x2CC PUSH2 0x4D1 JUMP JUMPDEST PUSH2 0x2D5 JUMPI PUSH1 0x0 DUP1 REVERT JUMPDEST PUSH1 0x0 DUP1 SLOAD PUSH1 0x40 MLOAD PUSH1 0x1 PUSH1 0x1 PUSH1 0xA0 SHL SUB SWAP1 SWAP2 AND SWAP1 PUSH32 0x8BE0079C531659141344CD1FD0A4F28419497F9722A3DAAFE3B4186F6B6457E0 SWAP1 DUP4 SWAP1 LOG3 PUSH1 0x0 DUP1 SLOAD PUSH1 0x1 PUSH1 0x1 PUSH1 0xA0 SHL SUB NOT AND SWAP1 SSTORE JUMP JUMPDEST PUSH2 0x327 PUSH2 0x5D2 JUMP JUMPDEST PUSH1 0x40 MLOAD PUSH3 0xCF045 PUSH1 0xE5 SHL DUP2 MSTORE PUSH20 0x0 SWAP1 PUSH4 0x19E08A0 SWAP1 PUSH2 0x361 SWAP1 DUP8 SWAP1 DUP8 SWAP1 DUP8 SWAP1 PUSH1 0x4 ADD PUSH2 0x9B4 JUMP JUMPDEST PUSH1 0x0 PUSH1 0x40 MLOAD DUP1 DUP4 SUB DUP2 DUP7 DUP1 EXTCODESIZE ISZERO DUP1 ISZERO PUSH2 0x379 JUMPI PUSH1 0x0 DUP1 REVERT JUMPDEST POP GAS DELEGATECALL ISZERO DUP1 ISZERO PUSH2 0x38D JUMPI RETURNDATASIZE PUSH1 0x0 DUP1 RETURNDATACOPY RETURNDATASIZE PUSH1 0x0 REVERT JUMPDEST POP POP POP POP PUSH1 0x40 MLOAD RETURNDATASIZE PUSH1 0x0 DUP3 RETURNDATACOPY PUSH1 0x1F RETURNDATASIZE SWAP1 DUP2 ADD PUSH1 0x1F NOT AND DUP3 ADD PUSH1 0x40 MSTORE PUSH2 0x3B5 SWAP2 SWAP1 DUP2 ADD SWAP1 PUSH2 0x893 JUMP JUMPDEST PUSH1 0x1 PUSH1 0x1 PUSH1 0xA0 SHL SUB DUP5 AND PUSH1 0x0 SWAP1 DUP2 MSTORE PUSH1 0x1 PUSH1 0x20 DUP2 DUP2 MSTORE PUSH1 0x40 DUP4 KECCAK256 DUP1 SLOAD SWAP3 DUP4 ADD DUP2 SSTORE DUP4 MSTORE SWAP2 DUP3 SWAP1 KECCAK256 DUP4 MLOAD DUP1 MLOAD SWAP5 SWAP6 POP DUP6 SWAP5 PUSH1 0x5 SWAP1 SWAP4 MUL SWAP1 SWAP2 ADD SWAP3 PUSH2 0x3FD SWAP3 DUP5 SWAP3 SWAP1 SWAP2 ADD SWAP1 PUSH2 0x613 JUMP JUMPDEST POP PUSH1 0x20 DUP3 DUP2 ADD MLOAD PUSH1 0x1 DUP4 ADD DUP1 SLOAD PUSH1 0x1 PUSH1 0x1 PUSH1 0xA0 SHL SUB NOT AND PUSH1 0x1 PUSH1 0x1 PUSH1 0xA0 SHL SUB SWAP1 SWAP3 AND SWAP2 SWAP1 SWAP2 OR SWAP1 SSTORE PUSH1 0x40 DUP4 ADD MLOAD DUP1 MLOAD DUP1 MLOAD SWAP2 SWAP3 PUSH1 0x2 DUP6 ADD SWAP3 PUSH2 0x442 SWAP3 DUP5 SWAP3 ADD SWAP1 PUSH2 0x613 JUMP JUMPDEST POP POP POP PUSH1 0x60 DUP3 ADD MLOAD MLOAD PUSH1 0x3 DUP3 ADD SSTORE PUSH1 0x80 DUP3 ADD MLOAD PUSH1 0x4 SWAP1 SWAP2 ADD DUP1 SLOAD PUSH1 0xA0 SWAP1 SWAP4 ADD MLOAD ISZERO ISZERO PUSH2 0x100 MUL PUSH2 0xFF00 NOT SWAP3 ISZERO ISZERO PUSH1 0xFF NOT SWAP1 SWAP5 AND SWAP4 SWAP1 SWAP4 OR SWAP2 SWAP1 SWAP2 AND SWAP2 SWAP1 SWAP2 OR SWAP1 SSTORE POP POP PUSH1 0x2 DUP1 SLOAD PUSH4 0xFFFFFFFF DUP1 DUP3 AND PUSH1 0x1 ADD AND PUSH4 0xFFFFFFFF NOT SWAP1 SWAP2 AND OR SWAP1 SSTORE POP POP JUMP JUMPDEST PUSH1 0x0 DUP1 PUSH2 0x4B0 PUSH2 0x51C JUMP JUMPDEST PUSH1 0x4 ADD SLOAD PUSH2 0x100 SWAP1 DIV PUSH1 0xFF AND SWAP3 SWAP2 POP POP JUMP JUMPDEST PUSH1 0x0 SLOAD PUSH1 0x1 PUSH1 0x1 PUSH1 0xA0 SHL SUB AND SWAP1 JUMP JUMPDEST PUSH1 0x0 SLOAD PUSH1 0x1 PUSH1 0x1 PUSH1 0xA0 SHL SUB AND CALLER EQ SWAP1 JUMP JUMPDEST PUSH2 0x4EA PUSH2 0x4D1 JUMP JUMPDEST PUSH2 0x4F3 JUMPI PUSH1 0x0 DUP1 REVERT JUMPDEST PUSH2 0x4FC DUP2 PUSH2 0x564 JUMP JUMPDEST POP JUMP JUMPDEST PUSH1 0x2 SLOAD PUSH4 0xFFFFFFFF PUSH5 0x100000000 DUP3 DIV DUP2 AND SWAP2 DUP2 AND SWAP2 SWAP1 SWAP2 SUB AND SWAP1 JUMP JUMPDEST CALLER PUSH1 0x0 SWAP1 DUP2 MSTORE PUSH1 0x1 PUSH1 0x20 MSTORE PUSH1 0x40 DUP2 KECCAK256 SLOAD PUSH2 0x535 JUMPI PUSH1 0x0 DUP1 REVERT JUMPDEST CALLER PUSH1 0x0 SWAP1 DUP2 MSTORE PUSH1 0x1 PUSH1 0x20 MSTORE PUSH1 0x40 DUP2 KECCAK256 DUP1 SLOAD SWAP1 SWAP2 DUP3 SWAP2 PUSH2 0x550 JUMPI INVALID JUMPDEST SWAP1 PUSH1 0x0 MSTORE PUSH1 0x20 PUSH1 0x0 KECCAK256 SWAP1 PUSH1 0x5 MUL ADD SWAP2 POP POP SWAP1 JUMP JUMPDEST PUSH1 0x1 PUSH1 0x1 PUSH1 0xA0 SHL SUB DUP2 AND PUSH2 0x577 JUMPI PUSH1 0x0 DUP1 REVERT JUMPDEST PUSH1 0x0 DUP1 SLOAD PUSH1 0x40 MLOAD PUSH1 0x1 PUSH1 0x1 PUSH1 0xA0 SHL SUB DUP1 DUP6 AND SWAP4 SWAP3 AND SWAP2 PUSH32 0x8BE0079C531659141344CD1FD0A4F28419497F9722A3DAAFE3B4186F6B6457E0 SWAP2 LOG3 PUSH1 0x0 DUP1 SLOAD PUSH1 0x1 PUSH1 0x1 PUSH1 0xA0 SHL SUB NOT AND PUSH1 0x1 PUSH1 0x1 PUSH1 0xA0 SHL SUB SWAP3 SWAP1 SWAP3 AND SWAP2 SWAP1 SWAP2 OR SWAP1 SSTORE JUMP JUMPDEST PUSH1 0x40 DUP1 MLOAD PUSH1 0xC0 DUP2 ADD DUP3 MSTORE PUSH1 0x60 DUP2 MSTORE PUSH1 0x0 PUSH1 0x20 DUP3 ADD MSTORE SWAP1 DUP2 ADD PUSH2 0x5F2 PUSH2 0x691 JUMP JUMPDEST DUP2 MSTORE PUSH1 0x20 ADD PUSH2 0x5FF PUSH2 0x6A4 JUMP JUMPDEST DUP2 MSTORE PUSH1 0x0 PUSH1 0x20 DUP3 ADD DUP2 SWAP1 MSTORE PUSH1 0x40 SWAP1 SWAP2 ADD MSTORE SWAP1 JUMP JUMPDEST DUP3 DUP1 SLOAD PUSH1 0x1 DUP2 PUSH1 0x1 AND ISZERO PUSH2 0x100 MUL SUB AND PUSH1 0x2 SWAP1 DIV SWAP1 PUSH1 0x0 MSTORE PUSH1 0x20 PUSH1 0x0 KECCAK256 SWAP1 PUSH1 0x1F ADD PUSH1 0x20 SWAP1 DIV DUP2 ADD SWAP3 DUP3 PUSH1 0x1F LT PUSH2 0x654 JUMPI DUP1 MLOAD PUSH1 0xFF NOT AND DUP4 DUP1 ADD OR DUP6 SSTORE PUSH2 0x681 JUMP JUMPDEST DUP3 DUP1 ADD PUSH1 0x1 ADD DUP6 SSTORE DUP3 ISZERO PUSH2 0x681 JUMPI SWAP2 DUP3 ADD JUMPDEST DUP3 DUP2 GT ISZERO PUSH2 0x681 JUMPI DUP3 MLOAD DUP3 SSTORE SWAP2 PUSH1 0x20 ADD SWAP2 SWAP1 PUSH1 0x1 ADD SWAP1 PUSH2 0x666 JUMP JUMPDEST POP PUSH2 0x68D SWAP3 SWAP2 POP PUSH2 0x6B7 JUMP JUMPDEST POP SWAP1 JUMP JUMPDEST PUSH1 0x40 MLOAD DUP1 PUSH1 0x20 ADD PUSH1 0x40 MSTORE DUP1 PUSH1 0x60 DUP2 MSTORE POP SWAP1 JUMP JUMPDEST PUSH1 0x40 MLOAD DUP1 PUSH1 0x20 ADD PUSH1 0x40 MSTORE DUP1 PUSH1 0x0 DUP2 MSTORE POP SWAP1 JUMP JUMPDEST JUMPDEST DUP1 DUP3 GT ISZERO PUSH2 0x68D JUMPI PUSH1 0x0 DUP2 SSTORE PUSH1 0x1 ADD PUSH2 0x6B8 JUMP JUMPDEST DUP1 MLOAD PUSH2 0x6D7 DUP2 PUSH2 0xA76 JUMP JUMPDEST SWAP3 SWAP2 POP POP JUMP JUMPDEST DUP1 MLOAD DUP1 ISZERO ISZERO DUP2 EQ PUSH2 0x6D7 JUMPI PUSH1 0x0 DUP1 REVERT JUMPDEST PUSH1 0x0 DUP3 PUSH1 0x1F DUP4 ADD SLT PUSH2 0x6FD JUMPI DUP1 DUP2 REVERT JUMPDEST DUP2 CALLDATALOAD PUSH2 0x710 PUSH2 0x70B DUP3 PUSH2 0xA22 JUMP JUMPDEST PUSH2 0x9FB JUMP JUMPDEST SWAP2 POP DUP1 DUP3 MSTORE DUP4 PUSH1 0x20 DUP3 DUP6 ADD ADD GT ISZERO PUSH2 0x727 JUMPI PUSH1 0x0 DUP1 REVERT JUMPDEST DUP1 PUSH1 0x20 DUP5 ADD PUSH1 0x20 DUP5 ADD CALLDATACOPY PUSH1 0x0 SWAP1 DUP3 ADD PUSH1 0x20 ADD MSTORE SWAP3 SWAP2 POP POP JUMP JUMPDEST PUSH1 0x0 DUP3 PUSH1 0x1F DUP4 ADD SLT PUSH2 0x750 JUMPI DUP1 DUP2 REVERT JUMPDEST DUP2 MLOAD PUSH2 0x75E PUSH2 0x70B DUP3 PUSH2 0xA22 JUMP JUMPDEST SWAP2 POP DUP1 DUP3 MSTORE DUP4 PUSH1 0x20 DUP3 DUP6 ADD ADD GT ISZERO PUSH2 0x775 JUMPI PUSH1 0x0 DUP1 REVERT JUMPDEST PUSH2 0x786 DUP2 PUSH1 0x20 DUP5 ADD PUSH1 0x20 DUP7 ADD PUSH2 0xA46 JUMP JUMPDEST POP SWAP3 SWAP2 POP POP JUMP JUMPDEST PUSH1 0x0 PUSH1 0x20 DUP3 DUP5 SUB SLT ISZERO PUSH2 0x79E JUMPI DUP1 DUP2 REVERT JUMPDEST PUSH2 0x7A8 PUSH1 0x20 PUSH2 0x9FB JUMP JUMPDEST SWAP1 POP DUP2 MLOAD PUSH8 0xFFFFFFFFFFFFFFFF DUP2 GT ISZERO PUSH2 0x7C1 JUMPI PUSH1 0x0 DUP1 REVERT JUMPDEST PUSH2 0x7CD DUP5 DUP3 DUP6 ADD PUSH2 0x740 JUMP JUMPDEST DUP3 MSTORE POP SWAP3 SWAP2 POP POP JUMP JUMPDEST PUSH1 0x0 PUSH1 0x20 DUP3 DUP5 SUB SLT ISZERO PUSH2 0x7E7 JUMPI DUP1 DUP2 REVERT JUMPDEST PUSH2 0x7F1 PUSH1 0x20 PUSH2 0x9FB JUMP JUMPDEST SWAP2 MLOAD DUP3 MSTORE POP SWAP2 SWAP1 POP JUMP JUMPDEST PUSH1 0x0 PUSH1 0x20 DUP3 DUP5 SUB SLT ISZERO PUSH2 0x80C JUMPI DUP1 DUP2 REVERT JUMPDEST DUP2 CALLDATALOAD PUSH2 0x817 DUP2 PUSH2 0xA76 JUMP JUMPDEST SWAP4 SWAP3 POP POP POP JUMP JUMPDEST PUSH1 0x0 DUP1 PUSH1 0x0 PUSH1 0x60 DUP5 DUP7 SUB SLT ISZERO PUSH2 0x832 JUMPI DUP2 DUP3 REVERT JUMPDEST DUP4 CALLDATALOAD PUSH8 0xFFFFFFFFFFFFFFFF DUP1 DUP3 GT ISZERO PUSH2 0x849 JUMPI DUP4 DUP5 REVERT JUMPDEST PUSH2 0x855 DUP8 DUP4 DUP9 ADD PUSH2 0x6ED JUMP JUMPDEST SWAP5 POP PUSH1 0x20 DUP7 ADD CALLDATALOAD SWAP2 POP PUSH2 0x867 DUP3 PUSH2 0xA76 JUMP JUMPDEST SWAP1 SWAP3 POP PUSH1 0x40 DUP6 ADD CALLDATALOAD SWAP1 DUP1 DUP3 GT ISZERO PUSH2 0x87C JUMPI DUP3 DUP4 REVERT JUMPDEST POP PUSH2 0x889 DUP7 DUP3 DUP8 ADD PUSH2 0x6ED JUMP JUMPDEST SWAP2 POP POP SWAP3 POP SWAP3 POP SWAP3 JUMP JUMPDEST PUSH1 0x0 PUSH1 0x20 DUP3 DUP5 SUB SLT ISZERO PUSH2 0x8A4 JUMPI DUP1 DUP2 REVERT JUMPDEST DUP2 MLOAD PUSH8 0xFFFFFFFFFFFFFFFF DUP1 DUP3 GT ISZERO PUSH2 0x8BB JUMPI DUP3 DUP4 REVERT JUMPDEST SWAP1 DUP4 ADD SWAP1 PUSH1 0xC0 DUP3 DUP7 SUB SLT ISZERO PUSH2 0x8CE JUMPI DUP3 DUP4 REVERT JUMPDEST PUSH2 0x8D8 PUSH1 0xC0 PUSH2 0x9FB JUMP JUMPDEST DUP3 MLOAD DUP3 DUP2 GT ISZERO PUSH2 0x8E6 JUMPI DUP5 DUP6 REVERT JUMPDEST PUSH2 0x8F2 DUP8 DUP3 DUP7 ADD PUSH2 0x740 JUMP JUMPDEST DUP3 MSTORE POP PUSH2 0x902 DUP7 PUSH1 0x20 DUP6 ADD PUSH2 0x6CC JUMP JUMPDEST PUSH1 0x20 DUP3 ADD MSTORE PUSH1 0x40 DUP4 ADD MLOAD DUP3 DUP2 GT ISZERO PUSH2 0x918 JUMPI DUP5 DUP6 REVERT JUMPDEST PUSH2 0x924 DUP8 DUP3 DUP7 ADD PUSH2 0x78D JUMP JUMPDEST PUSH1 0x40 DUP4 ADD MSTORE POP PUSH2 0x937 DUP7 PUSH1 0x60 DUP6 ADD PUSH2 0x7D6 JUMP JUMPDEST PUSH1 0x60 DUP3 ADD MSTORE PUSH2 0x949 DUP7 PUSH1 0x80 DUP6 ADD PUSH2 0x6DD JUMP JUMPDEST PUSH1 0x80 DUP3 ADD MSTORE PUSH2 0x95B DUP7 PUSH1 0xA0 DUP6 ADD PUSH2 0x6DD JUMP JUMPDEST PUSH1 0xA0 DUP3 ADD MSTORE SWAP6 SWAP5 POP POP POP POP POP JUMP JUMPDEST PUSH1 0x0 DUP2 MLOAD DUP1 DUP5 MSTORE PUSH2 0x981 DUP2 PUSH1 0x20 DUP7 ADD PUSH1 0x20 DUP7 ADD PUSH2 0xA46 JUMP JUMPDEST PUSH1 0x1F ADD PUSH1 0x1F NOT AND SWAP3 SWAP1 SWAP3 ADD PUSH1 0x20 ADD SWAP3 SWAP2 POP POP JUMP JUMPDEST PUSH1 0x1 PUSH1 0x1 PUSH1 0xA0 SHL SUB SWAP2 SWAP1 SWAP2 AND DUP2 MSTORE PUSH1 0x20 ADD SWAP1 JUMP JUMPDEST SWAP1 ISZERO ISZERO DUP2 MSTORE PUSH1 0x20 ADD SWAP1 JUMP JUMPDEST PUSH1 0x0 PUSH1 0x60 DUP3 MSTORE PUSH2 0x9C7 PUSH1 0x60 DUP4 ADD DUP7 PUSH2 0x969 JUMP JUMPDEST PUSH1 0x1 PUSH1 0x1 PUSH1 0xA0 SHL SUB DUP6 AND PUSH1 0x20 DUP5 ADD MSTORE DUP3 DUP2 SUB PUSH1 0x40 DUP5 ADD MSTORE PUSH2 0x9E8 DUP2 DUP6 PUSH2 0x969 JUMP JUMPDEST SWAP7 SWAP6 POP POP POP POP POP POP JUMP JUMPDEST SWAP1 DUP2 MSTORE PUSH1 0x20 ADD SWAP1 JUMP JUMPDEST PUSH1 0x40 MLOAD DUP2 DUP2 ADD PUSH8 0xFFFFFFFFFFFFFFFF DUP2 GT DUP3 DUP3 LT OR ISZERO PUSH2 0xA1A JUMPI PUSH1 0x0 DUP1 REVERT JUMPDEST PUSH1 0x40 MSTORE SWAP2 SWAP1 POP JUMP JUMPDEST PUSH1 0x0 PUSH8 0xFFFFFFFFFFFFFFFF DUP3 GT ISZERO PUSH2 0xA38 JUMPI DUP1 DUP2 REVERT JUMPDEST POP PUSH1 0x1F ADD PUSH1 0x1F NOT AND PUSH1 0x20 ADD SWAP1 JUMP JUMPDEST PUSH1 0x0 JUMPDEST DUP4 DUP2 LT ISZERO PUSH2 0xA61 JUMPI DUP2 DUP2 ADD MLOAD DUP4 DUP3 ADD MSTORE PUSH1 0x20 ADD PUSH2 0xA49 JUMP JUMPDEST DUP4 DUP2 GT ISZERO PUSH2 0xA70 JUMPI PUSH1 0x0 DUP5 DUP5 ADD MSTORE JUMPDEST POP POP POP POP JUMP JUMPDEST PUSH1 0x1 PUSH1 0x1 PUSH1 0xA0 SHL SUB DUP2 AND DUP2 EQ PUSH2 0x4FC JUMPI PUSH1 0x0 DUP1 REVERT INVALID LOG2 PUSH5 0x6970667358 0x22 SLT KECCAK256 PUSH21 0x11A0D9988242280780B5035D7C0D263420C3800424 0x2D LOG3 0xB5 DUP3 0x48 0xEE 0x49 0x4F EXTCODEHASH 0xD7 PUSH5 0x736F6C6343 STOP MOD 0xC STOP CALLER ",
  "sha1": "e137bd70471e8282134968defe4ed3c2073e4377",
  "source": "pragma solidity ^0.6.0;\npragma experimental ABIEncoderV2;\n\nimport \"./Ownable.sol\";\n\n// NFT type define \nlibrary NftLibs {\n    /*\n     *  Store a reference to an image, stored in IPFS, in an ethereum smart contract.\n     */\n    struct ImageInfo {\n        string ipfsInfo;\n    }\n\n    struct Price {\n        uint price;\n    }\n\n    struct NftInfo {\n        string nftName;\n        address nftProducer;\n        ImageInfo imageInfo;\n        Price price;\n        bool hasStarted;\n        bool publicEnabledShow;\n    }\n\n    modifier hasMandotaryFields(string memory _name, address _address, string memory _ipfsInfo) {\n        bytes memory tempEmptyNameStringTest = bytes(_name); \n        bytes memory tempEmptyImageStringTest = bytes(_ipfsInfo); \n\n        require(tempEmptyNameStringTest.length > 0 \n                && tempEmptyImageStringTest.length > 0\n                && _address != address(0));\n\n        _;\n    }\n\n    function createNftInfo(string memory _name, address _address, string memory _ipfsInfo) \n            public hasMandotaryFields(_name, _address, _ipfsInfo) \n            returns (NftInfo memory) {\n        NftInfo memory nftInfo = NftInfo(_name, _address, ImageInfo(_ipfsInfo), Price(0), false, false);\n        return nftInfo;\n    }\n}\n\ncontract NftCollection is Ownable {\n    /*\n     * Store all NFT for each address has.\n     * Stores the number of tokens each address has\n     */\n    mapping (address => NftLibs.NftInfo[]) AddressToNftInfos;\n\n    // Stores the maximum number of tokens that you wanna sell.\n    uint32 maxSupply = 0;\n\n    // Stores the remaining mints.\n    uint32 numberOfMints = 0;\n\n    uint gasPay = 0.0001 ether;\n\n    function createToken(string memory _name, address _address, string memory _ipfsInfo) public {\n        NftLibs.NftInfo memory nftInfo = NftLibs.createNftInfo(_name, _address, _ipfsInfo);\n        AddressToNftInfos[_address].push(nftInfo);\n        maxSupply ++;\n    }\n\n    function getNftInfo() private view hasMinted returns(NftLibs.NftInfo storage) {\n        NftLibs.NftInfo[] storage nftInfos = AddressToNftInfos[msg.sender];\n\n        // TODO: Fix bellow.\n        return nftInfos[0];\n    }\n\n    modifier hasMinted() {\n        require(AddressToNftInfos[msg.sender].length > 0);\n        _;\n    }\n\n    function withdraw() external onlyOwner {\n        address payable _owner = address(uint160(owner()));\n        _owner.transfer(address(this).balance);\n    }\n\n    function safeMint() external payable hasMinted() {\n        // Check to make sure gasPay ether was sent to the function call:\n        require(msg.value == gasPay);\n\n        // After get GAS could convert token to Non-Fungible token :)))\n        numberOfMints ++;\n    }\n\n    function getMaxSupply() public view returns(uint) {\n        return maxSupply;\n    }\n\n    function getRemainingMints() public view returns(uint) {\n        return maxSupply - numberOfMints;\n    }\n\n    // Display status if sale has started.\n    function getSaleStarted() public view returns (bool) {\n        NftLibs.NftInfo storage nftInfo = getNftInfo();\n        return nftInfo.hasStarted;\n    }\n\n    // Once public enabled show it and enable mint button for all\n    function getOpenToPublic() public view returns (bool) {\n        NftLibs.NftInfo storage nftInfo = getNftInfo();\n        return nftInfo.publicEnabledShow;\n    }\n\n    // TODO: Implement function.\n    function getOnWhiteList(address) public pure returns (bool) {\n        return true;\n    }\n}",
  "sourcePath": "contracts/NftCollection.sol",
  "type": "contract"
}